{
  "contractName": "Trustify",
  "abi": [
    {
      "inputs": [
        {
          "internalType": "address",
          "name": "coinAddress",
          "type": "address"
        }
      ],
      "stateMutability": "nonpayable",
      "type": "constructor"
    },
    {
      "inputs": [
        {
          "internalType": "address",
          "name": "myAddress",
          "type": "address"
        },
        {
          "internalType": "address",
          "name": "companyAddress",
          "type": "address"
        }
      ],
      "name": "havePayed",
      "outputs": [
        {
          "internalType": "bool",
          "name": "",
          "type": "bool"
        }
      ],
      "stateMutability": "view",
      "type": "function"
    },
    {
      "inputs": [
        {
          "internalType": "address",
          "name": "addressToDeposit",
          "type": "address"
        },
        {
          "internalType": "uint256",
          "name": "amount",
          "type": "uint256"
        }
      ],
      "name": "depositTokens",
      "outputs": [],
      "stateMutability": "nonpayable",
      "type": "function"
    },
    {
      "inputs": [
        {
          "internalType": "address",
          "name": "addressToReview",
          "type": "address"
        },
        {
          "internalType": "string",
          "name": "text",
          "type": "string"
        },
        {
          "internalType": "uint8",
          "name": "stars",
          "type": "uint8"
        }
      ],
      "name": "writeAReview",
      "outputs": [],
      "stateMutability": "nonpayable",
      "type": "function"
    },
    {
      "inputs": [
        {
          "internalType": "address",
          "name": "reviewAddress",
          "type": "address"
        }
      ],
      "name": "deleteReview",
      "outputs": [],
      "stateMutability": "nonpayable",
      "type": "function"
    },
    {
      "inputs": [
        {
          "internalType": "uint256",
          "name": "start",
          "type": "uint256"
        },
        {
          "internalType": "uint256",
          "name": "end",
          "type": "uint256"
        },
        {
          "internalType": "address",
          "name": "companyAddress",
          "type": "address"
        }
      ],
      "name": "getCompanyReview",
      "outputs": [
        {
          "internalType": "string[]",
          "name": "",
          "type": "string[]"
        },
        {
          "internalType": "uint8[]",
          "name": "",
          "type": "uint8[]"
        },
        {
          "internalType": "string[]",
          "name": "",
          "type": "string[]"
        }
      ],
      "stateMutability": "view",
      "type": "function"
    },
    {
      "inputs": [
        {
          "internalType": "address",
          "name": "addressReviewed",
          "type": "address"
        }
      ],
      "name": "getSpecificReview",
      "outputs": [
        {
          "internalType": "string",
          "name": "",
          "type": "string"
        },
        {
          "internalType": "uint8",
          "name": "",
          "type": "uint8"
        },
        {
          "internalType": "string",
          "name": "",
          "type": "string"
        }
      ],
      "stateMutability": "view",
      "type": "function"
    },
    {
      "inputs": [
        {
          "internalType": "uint256",
          "name": "start",
          "type": "uint256"
        },
        {
          "internalType": "uint256",
          "name": "end",
          "type": "uint256"
        }
      ],
      "name": "getMyReview",
      "outputs": [
        {
          "internalType": "string[]",
          "name": "",
          "type": "string[]"
        },
        {
          "internalType": "uint8[]",
          "name": "",
          "type": "uint8[]"
        },
        {
          "internalType": "string[]",
          "name": "",
          "type": "string[]"
        },
        {
          "internalType": "address[]",
          "name": "",
          "type": "address[]"
        }
      ],
      "stateMutability": "view",
      "type": "function"
    },
    {
      "inputs": [
        {
          "internalType": "address",
          "name": "addressReviewed",
          "type": "address"
        }
      ],
      "name": "getAverageStars",
      "outputs": [
        {
          "internalType": "uint256[]",
          "name": "",
          "type": "uint256[]"
        }
      ],
      "stateMutability": "view",
      "type": "function"
    }
  ],
  "bytecode": "0x60806040523480156200001157600080fd5b5060405162004256380380620042568339818101604052810190620000379190620000e8565b806000806101000a81548173ffffffffffffffffffffffffffffffffffffffff021916908373ffffffffffffffffffffffffffffffffffffffff160217905550506200011a565b600080fd5b600073ffffffffffffffffffffffffffffffffffffffff82169050919050565b6000620000b08262000083565b9050919050565b620000c281620000a3565b8114620000ce57600080fd5b50565b600081519050620000e281620000b7565b92915050565b6000602082840312156200010157620001006200007e565b5b60006200011184828501620000d1565b91505092915050565b61412c806200012a6000396000f3fe608060405234801561001057600080fd5b50600436106100885760003560e01c8063803b43791161005b578063803b43791461012557806395b5d3d614610157578063a5718aaf1461018a578063e60d82a2146101bc57610088565b80631e01b6681461008d57806348e31c3d146100bd57806366168bd7146100d9578063662a0d4a146100f5575b600080fd5b6100a760048036038101906100a29190612a67565b6101d8565b6040516100b49190612ac2565b60405180910390f35b6100d760048036038101906100d29190612c5c565b610272565b005b6100f360048036038101906100ee9190612d01565b610bb5565b005b61010f600480360381019061010a9190612d41565b610f42565b60405161011c9190612e2c565b60405180910390f35b61013f600480360381019061013a9190612d41565b611177565b60405161014e93929190612edc565b60405180910390f35b610171600480360381019061016c9190612f21565b611415565b60405161018194939291906131e9565b60405180910390f35b6101a4600480360381019061019f919061324a565b611b3b565b6040516101b39392919061329d565b60405180910390f35b6101d660048036038101906101d19190612d41565b612175565b005b6000600160008373ffffffffffffffffffffffffffffffffffffffff1673ffffffffffffffffffffffffffffffffffffffff16815260200190815260200160002060010160008473ffffffffffffffffffffffffffffffffffffffff1673ffffffffffffffffffffffffffffffffffffffff16815260200190815260200160002060010160019054906101000a900460ff16905092915050565b823373ffffffffffffffffffffffffffffffffffffffff168173ffffffffffffffffffffffffffffffffffffffff16036102e1576040517f08c379a00000000000000000000000000000000000000000000000000000000081526004016102d89061335b565b60405180910390fd5b83600160008273ffffffffffffffffffffffffffffffffffffffff1673ffffffffffffffffffffffffffffffffffffffff16815260200190815260200160002060010160003373ffffffffffffffffffffffffffffffffffffffff1673ffffffffffffffffffffffffffffffffffffffff16815260200190815260200160002060010160019054906101000a900460ff166103b1576040517f08c379a00000000000000000000000000000000000000000000000000000000081526004016103a8906133ed565b60405180910390fd5b60008360ff161180156103c8575060058360ff1611155b610407576040517f08c379a00000000000000000000000000000000000000000000000000000000081526004016103fe9061347f565b60405180910390fd5b6000600160008773ffffffffffffffffffffffffffffffffffffffff1673ffffffffffffffffffffffffffffffffffffffff16815260200190815260200160002060010160003373ffffffffffffffffffffffffffffffffffffffff1673ffffffffffffffffffffffffffffffffffffffff1681526020019081526020016000206040518060800160405290816000820180546104a3906134ce565b80601f01602080910402602001604051908101604052809291908181526020018280546104cf906134ce565b801561051c5780601f106104f15761010080835404028352916020019161051c565b820191906000526020600020905b8154815290600101906020018083116104ff57829003601f168201915b505050505081526020016001820160009054906101000a900460ff1660ff1660ff1681526020016001820160019054906101000a900460ff161515151581526020016001820160029054906101000a900460ff166002811115610582576105816134ff565b5b6002811115610594576105936134ff565b5b8152505090506000816020015160ff161480156105b657506000816000015151145b1561095957600060405180608001604052808781526020018660ff168152602001600115158152602001600060028111156105f4576105f36134ff565b5b815250905080600160008973ffffffffffffffffffffffffffffffffffffffff1673ffffffffffffffffffffffffffffffffffffffff16815260200190815260200160002060010160003373ffffffffffffffffffffffffffffffffffffffff1673ffffffffffffffffffffffffffffffffffffffff168152602001908152602001600020600082015181600001908161068e91906136da565b5060208201518160010160006101000a81548160ff021916908360ff16021790555060408201518160010160016101000a81548160ff02191690831515021790555060608201518160010160026101000a81548160ff021916908360028111156106fb576106fa6134ff565b5b0217905550905050600160008873ffffffffffffffffffffffffffffffffffffffff1673ffffffffffffffffffffffffffffffffffffffff168152602001908152602001600020600001339080600181540180825580915050600190039060005260206000200160009091909190916101000a81548173ffffffffffffffffffffffffffffffffffffffff021916908373ffffffffffffffffffffffffffffffffffffffff16021790555080600260003373ffffffffffffffffffffffffffffffffffffffff1673ffffffffffffffffffffffffffffffffffffffff16815260200190815260200160002060010160008973ffffffffffffffffffffffffffffffffffffffff1673ffffffffffffffffffffffffffffffffffffffff168152602001908152602001600020600082015181600001908161083b91906136da565b5060208201518160010160006101000a81548160ff021916908360ff16021790555060408201518160010160016101000a81548160ff02191690831515021790555060608201518160010160026101000a81548160ff021916908360028111156108a8576108a76134ff565b5b0217905550905050600260003373ffffffffffffffffffffffffffffffffffffffff1673ffffffffffffffffffffffffffffffffffffffff168152602001908152602001600020600001879080600181540180825580915050600190039060005260206000200160009091909190916101000a81548173ffffffffffffffffffffffffffffffffffffffff021916908373ffffffffffffffffffffffffffffffffffffffff16021790555050610bad565b600060405180608001604052808781526020018660ff16815260200160011515815260200160016002811115610992576109916134ff565b5b815250905080600160008973ffffffffffffffffffffffffffffffffffffffff1673ffffffffffffffffffffffffffffffffffffffff16815260200190815260200160002060010160003373ffffffffffffffffffffffffffffffffffffffff1673ffffffffffffffffffffffffffffffffffffffff1681526020019081526020016000206000820151816000019081610a2c91906136da565b5060208201518160010160006101000a81548160ff021916908360ff16021790555060408201518160010160016101000a81548160ff02191690831515021790555060608201518160010160026101000a81548160ff02191690836002811115610a9957610a986134ff565b5b021790555090505080600260003373ffffffffffffffffffffffffffffffffffffffff1673ffffffffffffffffffffffffffffffffffffffff16815260200190815260200160002060010160008973ffffffffffffffffffffffffffffffffffffffff1673ffffffffffffffffffffffffffffffffffffffff1681526020019081526020016000206000820151816000019081610b3691906136da565b5060208201518160010160006101000a81548160ff021916908360ff16021790555060408201518160010160016101000a81548160ff02191690831515021790555060608201518160010160026101000a81548160ff02191690836002811115610ba357610ba26134ff565b5b0217905550905050505b505050505050565b813373ffffffffffffffffffffffffffffffffffffffff168173ffffffffffffffffffffffffffffffffffffffff1603610c24576040517f08c379a0000000000000000000000000000000000000000000000000000000008152600401610c1b9061335b565b60405180910390fd5b8160008054906101000a900473ffffffffffffffffffffffffffffffffffffffff1673ffffffffffffffffffffffffffffffffffffffff1663dd62ed3e33306040518363ffffffff1660e01b8152600401610c809291906137bb565b602060405180830381865afa158015610c9d573d6000803e3d6000fd5b505050506040513d601f19601f82011682018060405250810190610cc191906137f9565b1015610d02576040517f08c379a0000000000000000000000000000000000000000000000000000000008152600401610cf990613872565b60405180910390fd5b6000600160008573ffffffffffffffffffffffffffffffffffffffff1673ffffffffffffffffffffffffffffffffffffffff16815260200190815260200160002060010160003373ffffffffffffffffffffffffffffffffffffffff1673ffffffffffffffffffffffffffffffffffffffff16815260200190815260200160002060010160009054906101000a900460ff1660ff1603610ef0576040518060800160405280604051806020016040528060008152508152602001600060ff16815260200160011515815260200160006002811115610de357610de26134ff565b5b815250600160008573ffffffffffffffffffffffffffffffffffffffff1673ffffffffffffffffffffffffffffffffffffffff16815260200190815260200160002060010160003373ffffffffffffffffffffffffffffffffffffffff1673ffffffffffffffffffffffffffffffffffffffff1681526020019081526020016000206000820151816000019081610e7a91906136da565b5060208201518160010160006101000a81548160ff021916908360ff16021790555060408201518160010160016101000a81548160ff02191690831515021790555060608201518160010160026101000a81548160ff02191690836002811115610ee757610ee66134ff565b5b02179055509050505b610f3d33848460008054906101000a900473ffffffffffffffffffffffffffffffffffffffff1673ffffffffffffffffffffffffffffffffffffffff1661233d909392919063ffffffff16565b505050565b60606000600160008473ffffffffffffffffffffffffffffffffffffffff1673ffffffffffffffffffffffffffffffffffffffff16815260200190815260200160002060000180549050905060008103610fd1576040517f08c379a0000000000000000000000000000000000000000000000000000000008152600401610fc89061392a565b60405180910390fd5b60008167ffffffffffffffff811115610fed57610fec612af8565b5b60405190808252806020026020018201604052801561101b5781602001602082028036833780820191505090505b50905060005b8281101561116c57600160008673ffffffffffffffffffffffffffffffffffffffff1673ffffffffffffffffffffffffffffffffffffffff1681526020019081526020016000206001016000600160008873ffffffffffffffffffffffffffffffffffffffff1673ffffffffffffffffffffffffffffffffffffffff16815260200190815260200160002060000183815481106110c1576110c061394a565b5b9060005260206000200160009054906101000a900473ffffffffffffffffffffffffffffffffffffffff1673ffffffffffffffffffffffffffffffffffffffff1673ffffffffffffffffffffffffffffffffffffffff16815260200190815260200160002060010160009054906101000a900460ff1660ff1682828151811061114d5761114c61394a565b5b6020026020010181815250508080611164906139a8565b915050611021565b508092505050919050565b6060600060606000600160008673ffffffffffffffffffffffffffffffffffffffff1673ffffffffffffffffffffffffffffffffffffffff16815260200190815260200160002060010160003373ffffffffffffffffffffffffffffffffffffffff1673ffffffffffffffffffffffffffffffffffffffff16815260200190815260200160002060010160009054906101000a900460ff16905060008160ff1603611257576040517f08c379a000000000000000000000000000000000000000000000000000000000815260040161124e90613a62565b60405180910390fd5b6000600160008773ffffffffffffffffffffffffffffffffffffffff1673ffffffffffffffffffffffffffffffffffffffff16815260200190815260200160002060010160003373ffffffffffffffffffffffffffffffffffffffff1673ffffffffffffffffffffffffffffffffffffffff16815260200190815260200160002060000180546112e6906134ce565b80601f0160208091040260200160405190810160405280929190818152602001828054611312906134ce565b801561135f5780601f106113345761010080835404028352916020019161135f565b820191906000526020600020905b81548152906001019060200180831161134257829003601f168201915b505050505090506000611400600160008973ffffffffffffffffffffffffffffffffffffffff1673ffffffffffffffffffffffffffffffffffffffff16815260200190815260200160002060010160003373ffffffffffffffffffffffffffffffffffffffff1673ffffffffffffffffffffffffffffffffffffffff16815260200190815260200160002060010160029054906101000a900460ff166123c6565b90508183829550955095505050509193909250565b6060806060806000600260003373ffffffffffffffffffffffffffffffffffffffff1673ffffffffffffffffffffffffffffffffffffffff168152602001908152602001600020600001805490509050600081116114a8576040517f08c379a000000000000000000000000000000000000000000000000000000000815260040161149f90613af4565b60405180910390fd5b80806114b390613b14565b915050808711156114f9576040517f08c379a00000000000000000000000000000000000000000000000000000000081526004016114f090613baf565b60405180910390fd5b8587111561153c576040517f08c379a000000000000000000000000000000000000000000000000000000000815260040161153390613c41565b60405180910390fd5b601960ff16878761154d9190613c61565b111561155c601960ff16612540565b60405160200161156c9190613d1d565b604051602081830303815290604052906115bc576040517f08c379a00000000000000000000000000000000000000000000000000000000081526004016115b39190613d52565b60405180910390fd5b50808611156115c9578095505b6000600188886115d99190613c61565b6115e39190613d74565b905060008167ffffffffffffffff81111561160157611600612af8565b5b60405190808252806020026020018201604052801561163457816020015b606081526020019060019003908161161f5790505b50905060008267ffffffffffffffff81111561165357611652612af8565b5b6040519080825280602002602001820160405280156116815781602001602082028036833780820191505090505b50905060008367ffffffffffffffff8111156116a05761169f612af8565b5b6040519080825280602002602001820160405280156116d357816020015b60608152602001906001900390816116be5790505b50905060008467ffffffffffffffff8111156116f2576116f1612af8565b5b6040519080825280602002602001820160405280156117205781602001602082028036833780820191505090505b50905060008060018e896117349190613c61565b61173e9190613d74565b90505b60018d8961174f9190613c61565b6117599190613d74565b8110611b1e576000600260003373ffffffffffffffffffffffffffffffffffffffff1673ffffffffffffffffffffffffffffffffffffffff1681526020019081526020016000209050806001016000826000016001856117b99190613c61565b815481106117ca576117c961394a565b5b9060005260206000200160009054906101000a900473ffffffffffffffffffffffffffffffffffffffff1673ffffffffffffffffffffffffffffffffffffffff1673ffffffffffffffffffffffffffffffffffffffff168152602001908152602001600020600001805461183d906134ce565b80601f0160208091040260200160405190810160405280929190818152602001828054611869906134ce565b80156118b65780601f1061188b576101008083540402835291602001916118b6565b820191906000526020600020905b81548152906001019060200180831161189957829003601f168201915b50505050508784815181106118ce576118cd61394a565b5b6020026020010181905250806001016000826000016001856118f09190613c61565b815481106119015761190061394a565b5b9060005260206000200160009054906101000a900473ffffffffffffffffffffffffffffffffffffffff1673ffffffffffffffffffffffffffffffffffffffff1673ffffffffffffffffffffffffffffffffffffffff16815260200190815260200160002060010160009054906101000a900460ff1686848151811061198a5761198961394a565b5b602002602001019060ff16908160ff1681525050611a44816001016000836000016001866119b89190613c61565b815481106119c9576119c861394a565b5b9060005260206000200160009054906101000a900473ffffffffffffffffffffffffffffffffffffffff1673ffffffffffffffffffffffffffffffffffffffff1673ffffffffffffffffffffffffffffffffffffffff16815260200190815260200160002060010160029054906101000a900460ff166123c6565b858481518110611a5757611a5661394a565b5b602002602001018190525080600001600183611a739190613c61565b81548110611a8457611a8361394a565b5b9060005260206000200160009054906101000a900473ffffffffffffffffffffffffffffffffffffffff16848481518110611ac257611ac161394a565b5b602002602001019073ffffffffffffffffffffffffffffffffffffffff16908173ffffffffffffffffffffffffffffffffffffffff16815250508280611b07906139a8565b935050508080611b1690613b14565b915050611741565b50848484849a509a509a509a505050505050505092959194509250565b60608060606000600160008673ffffffffffffffffffffffffffffffffffffffff1673ffffffffffffffffffffffffffffffffffffffff16815260200190815260200160002060000180549050905060008111611bcd576040517f08c379a0000000000000000000000000000000000000000000000000000000008152600401611bc490613e1a565b60405180910390fd5b8080611bd890613b14565b91505080871115611c1e576040517f08c379a0000000000000000000000000000000000000000000000000000000008152600401611c1590613baf565b60405180910390fd5b85871115611c61576040517f08c379a0000000000000000000000000000000000000000000000000000000008152600401611c5890613c41565b60405180910390fd5b601960ff168787611c729190613c61565b1115611c81601960ff16612540565b604051602001611c919190613d1d565b60405160208183030381529060405290611ce1576040517f08c379a0000000000000000000000000000000000000000000000000000000008152600401611cd89190613d52565b60405180910390fd5b5080861115611cee578095505b600060018888611cfe9190613c61565b611d089190613d74565b905060008167ffffffffffffffff811115611d2657611d25612af8565b5b604051908082528060200260200182016040528015611d5957816020015b6060815260200190600190039081611d445790505b50905060008267ffffffffffffffff811115611d7857611d77612af8565b5b604051908082528060200260200182016040528015611da65781602001602082028036833780820191505090505b50905060008367ffffffffffffffff811115611dc557611dc4612af8565b5b604051908082528060200260200182016040528015611df857816020015b6060815260200190600190039081611de35790505b50905060008060018d88611e0c9190613c61565b611e169190613d74565b90505b60018c88611e279190613c61565b611e319190613d74565b811061215c576000600160008d73ffffffffffffffffffffffffffffffffffffffff1673ffffffffffffffffffffffffffffffffffffffff168152602001908152602001600020905080600101600082600001600185611e919190613c61565b81548110611ea257611ea161394a565b5b9060005260206000200160009054906101000a900473ffffffffffffffffffffffffffffffffffffffff1673ffffffffffffffffffffffffffffffffffffffff1673ffffffffffffffffffffffffffffffffffffffff1681526020019081526020016000206000018054611f15906134ce565b80601f0160208091040260200160405190810160405280929190818152602001828054611f41906134ce565b8015611f8e5780601f10611f6357610100808354040283529160200191611f8e565b820191906000526020600020905b815481529060010190602001808311611f7157829003601f168201915b5050505050868481518110611fa657611fa561394a565b5b602002602001018190525080600101600082600001600185611fc89190613c61565b81548110611fd957611fd861394a565b5b9060005260206000200160009054906101000a900473ffffffffffffffffffffffffffffffffffffffff1673ffffffffffffffffffffffffffffffffffffffff1673ffffffffffffffffffffffffffffffffffffffff16815260200190815260200160002060010160009054906101000a900460ff168584815181106120625761206161394a565b5b602002602001019060ff16908160ff168152505061211c816001016000836000016001866120909190613c61565b815481106120a1576120a061394a565b5b9060005260206000200160009054906101000a900473ffffffffffffffffffffffffffffffffffffffff1673ffffffffffffffffffffffffffffffffffffffff1673ffffffffffffffffffffffffffffffffffffffff16815260200190815260200160002060010160029054906101000a900460ff166123c6565b84848151811061212f5761212e61394a565b5b60200260200101819052508280612145906139a8565b93505050808061215490613b14565b915050611e19565b5083838398509850985050505050505093509350939050565b803373ffffffffffffffffffffffffffffffffffffffff168173ffffffffffffffffffffffffffffffffffffffff16036121e4576040517f08c379a00000000000000000000000000000000000000000000000000000000081526004016121db9061335b565b60405180910390fd5b6002600160008473ffffffffffffffffffffffffffffffffffffffff1673ffffffffffffffffffffffffffffffffffffffff16815260200190815260200160002060010160003373ffffffffffffffffffffffffffffffffffffffff1673ffffffffffffffffffffffffffffffffffffffff16815260200190815260200160002060010160026101000a81548160ff0219169083600281111561228a576122896134ff565b5b021790555060028060003373ffffffffffffffffffffffffffffffffffffffff1673ffffffffffffffffffffffffffffffffffffffff16815260200190815260200160002060010160008473ffffffffffffffffffffffffffffffffffffffff1673ffffffffffffffffffffffffffffffffffffffff16815260200190815260200160002060010160026101000a81548160ff02191690836002811115612334576123336134ff565b5b02179055505050565b6123c0846323b872dd60e01b85858560405160240161235e93929190613e49565b604051602081830303815290604052907bffffffffffffffffffffffffffffffffffffffffffffffffffffffff19166020820180517bffffffffffffffffffffffffffffffffffffffffffffffffffffffff838183161783525050505061260e565b50505050565b6060600060028111156123dc576123db6134ff565b5b8260028111156123ef576123ee6134ff565b5b03612431576040518060400160405280600681526020017f4143544956450000000000000000000000000000000000000000000000000000815250905061253b565b60016002811115612445576124446134ff565b5b826002811115612458576124576134ff565b5b0361249a576040518060400160405280600881526020017f4d4f444946494544000000000000000000000000000000000000000000000000815250905061253b565b6002808111156124ad576124ac6134ff565b5b8260028111156124c0576124bf6134ff565b5b03612502576040518060400160405280600781526020017f44454c4554454400000000000000000000000000000000000000000000000000815250905061253b565b6040518060400160405280600781526020017f554e4b4e4f574e0000000000000000000000000000000000000000000000000081525090505b919050565b60606000600161254f846126d5565b01905060008167ffffffffffffffff81111561256e5761256d612af8565b5b6040519080825280601f01601f1916602001820160405280156125a05781602001600182028036833780820191505090505b509050600082602001820190505b600115612603578080600190039150507f3031323334353637383961626364656600000000000000000000000000000000600a86061a8153600a85816125f7576125f6613e80565b5b049450600085036125ae575b819350505050919050565b6000612670826040518060400160405280602081526020017f5361666545524332303a206c6f772d6c6576656c2063616c6c206661696c65648152508573ffffffffffffffffffffffffffffffffffffffff166128289092919063ffffffff16565b90506000815111156126d057808060200190518101906126909190613edb565b6126cf576040517f08c379a00000000000000000000000000000000000000000000000000000000081526004016126c690613f7a565b60405180910390fd5b5b505050565b600080600090507a184f03e93ff9f4daa797ed6e38ed64bf6a1f0100000000000000008310612733577a184f03e93ff9f4daa797ed6e38ed64bf6a1f010000000000000000838161272957612728613e80565b5b0492506040810190505b6d04ee2d6d415b85acef81000000008310612770576d04ee2d6d415b85acef8100000000838161276657612765613e80565b5b0492506020810190505b662386f26fc10000831061279f57662386f26fc10000838161279557612794613e80565b5b0492506010810190505b6305f5e10083106127c8576305f5e10083816127be576127bd613e80565b5b0492506008810190505b61271083106127ed5761271083816127e3576127e2613e80565b5b0492506004810190505b60648310612810576064838161280657612805613e80565b5b0492506002810190505b600a831061281f576001810190505b80915050919050565b60606128378484600085612840565b90509392505050565b606082471015612885576040517f08c379a000000000000000000000000000000000000000000000000000000000815260040161287c9061400c565b60405180910390fd5b6000808673ffffffffffffffffffffffffffffffffffffffff1685876040516128ae9190614073565b60006040518083038185875af1925050503d80600081146128eb576040519150601f19603f3d011682016040523d82523d6000602084013e6128f0565b606091505b50915091506129018783838761290d565b92505050949350505050565b6060831561296f5760008351036129675761292785612982565b612966576040517f08c379a000000000000000000000000000000000000000000000000000000000815260040161295d906140d6565b60405180910390fd5b5b82905061297a565b61297983836129a5565b5b949350505050565b6000808273ffffffffffffffffffffffffffffffffffffffff163b119050919050565b6000825111156129b85781518083602001fd5b806040517f08c379a00000000000000000000000000000000000000000000000000000000081526004016129ec9190613d52565b60405180910390fd5b6000604051905090565b600080fd5b600080fd5b600073ffffffffffffffffffffffffffffffffffffffff82169050919050565b6000612a3482612a09565b9050919050565b612a4481612a29565b8114612a4f57600080fd5b50565b600081359050612a6181612a3b565b92915050565b60008060408385031215612a7e57612a7d6129ff565b5b6000612a8c85828601612a52565b9250506020612a9d85828601612a52565b9150509250929050565b60008115159050919050565b612abc81612aa7565b82525050565b6000602082019050612ad76000830184612ab3565b92915050565b600080fd5b600080fd5b6000601f19601f8301169050919050565b7f4e487b7100000000000000000000000000000000000000000000000000000000600052604160045260246000fd5b612b3082612ae7565b810181811067ffffffffffffffff82111715612b4f57612b4e612af8565b5b80604052505050565b6000612b626129f5565b9050612b6e8282612b27565b919050565b600067ffffffffffffffff821115612b8e57612b8d612af8565b5b612b9782612ae7565b9050602081019050919050565b82818337600083830152505050565b6000612bc6612bc184612b73565b612b58565b905082815260208101848484011115612be257612be1612ae2565b5b612bed848285612ba4565b509392505050565b600082601f830112612c0a57612c09612add565b5b8135612c1a848260208601612bb3565b91505092915050565b600060ff82169050919050565b612c3981612c23565b8114612c4457600080fd5b50565b600081359050612c5681612c30565b92915050565b600080600060608486031215612c7557612c746129ff565b5b6000612c8386828701612a52565b935050602084013567ffffffffffffffff811115612ca457612ca3612a04565b5b612cb086828701612bf5565b9250506040612cc186828701612c47565b9150509250925092565b6000819050919050565b612cde81612ccb565b8114612ce957600080fd5b50565b600081359050612cfb81612cd5565b92915050565b60008060408385031215612d1857612d176129ff565b5b6000612d2685828601612a52565b9250506020612d3785828601612cec565b9150509250929050565b600060208284031215612d5757612d566129ff565b5b6000612d6584828501612a52565b91505092915050565b600081519050919050565b600082825260208201905092915050565b6000819050602082019050919050565b612da381612ccb565b82525050565b6000612db58383612d9a565b60208301905092915050565b6000602082019050919050565b6000612dd982612d6e565b612de38185612d79565b9350612dee83612d8a565b8060005b83811015612e1f578151612e068882612da9565b9750612e1183612dc1565b925050600181019050612df2565b5085935050505092915050565b60006020820190508181036000830152612e468184612dce565b905092915050565b600081519050919050565b600082825260208201905092915050565b60005b83811015612e88578082015181840152602081019050612e6d565b60008484015250505050565b6000612e9f82612e4e565b612ea98185612e59565b9350612eb9818560208601612e6a565b612ec281612ae7565b840191505092915050565b612ed681612c23565b82525050565b60006060820190508181036000830152612ef68186612e94565b9050612f056020830185612ecd565b8181036040830152612f178184612e94565b9050949350505050565b60008060408385031215612f3857612f376129ff565b5b6000612f4685828601612cec565b9250506020612f5785828601612cec565b9150509250929050565b600081519050919050565b600082825260208201905092915050565b6000819050602082019050919050565b600082825260208201905092915050565b6000612fa982612e4e565b612fb38185612f8d565b9350612fc3818560208601612e6a565b612fcc81612ae7565b840191505092915050565b6000612fe38383612f9e565b905092915050565b6000602082019050919050565b600061300382612f61565b61300d8185612f6c565b93508360208202850161301f85612f7d565b8060005b8581101561305b578484038952815161303c8582612fd7565b945061304783612feb565b925060208a01995050600181019050613023565b50829750879550505050505092915050565b600081519050919050565b600082825260208201905092915050565b6000819050602082019050919050565b6130a281612c23565b82525050565b60006130b48383613099565b60208301905092915050565b6000602082019050919050565b60006130d88261306d565b6130e28185613078565b93506130ed83613089565b8060005b8381101561311e57815161310588826130a8565b9750613110836130c0565b9250506001810190506130f1565b5085935050505092915050565b600081519050919050565b600082825260208201905092915050565b6000819050602082019050919050565b61316081612a29565b82525050565b60006131728383613157565b60208301905092915050565b6000602082019050919050565b60006131968261312b565b6131a08185613136565b93506131ab83613147565b8060005b838110156131dc5781516131c38882613166565b97506131ce8361317e565b9250506001810190506131af565b5085935050505092915050565b600060808201905081810360008301526132038187612ff8565b9050818103602083015261321781866130cd565b9050818103604083015261322b8185612ff8565b9050818103606083015261323f818461318b565b905095945050505050565b600080600060608486031215613263576132626129ff565b5b600061327186828701612cec565b935050602061328286828701612cec565b925050604061329386828701612a52565b9150509250925092565b600060608201905081810360008301526132b78186612ff8565b905081810360208301526132cb81856130cd565b905081810360408301526132df8184612ff8565b9050949350505050565b7f596f752063616e277420646f207468697320616374696f6e20746f20796f757260008201527f73656c662050616c210000000000000000000000000000000000000000000000602082015250565b6000613345602983612e59565b9150613350826132e9565b604082019050919050565b6000602082019050818103600083015261337481613338565b9050919050565b7f596f7520646f6e7420686176652061207472616e736c616374696f6e2066726f60008201527f6d20796f7572206164647265737320746f207468697320616464726573730000602082015250565b60006133d7603e83612e59565b91506133e28261337b565b604082019050919050565b60006020820190508181036000830152613406816133ca565b9050919050565b7f4572726f722c207374617273206d75737420626520612076616c75652062657460008201527f7765656e203020616e6420350000000000000000000000000000000000000000602082015250565b6000613469602c83612e59565b91506134748261340d565b604082019050919050565b600060208201905081810360008301526134988161345c565b9050919050565b7f4e487b7100000000000000000000000000000000000000000000000000000000600052602260045260246000fd5b600060028204905060018216806134e657607f821691505b6020821081036134f9576134f861349f565b5b50919050565b7f4e487b7100000000000000000000000000000000000000000000000000000000600052602160045260246000fd5b60008190508160005260206000209050919050565b60006020601f8301049050919050565b600082821b905092915050565b6000600883026135907fffffffffffffffffffffffffffffffffffffffffffffffffffffffffffffffff82613553565b61359a8683613553565b95508019841693508086168417925050509392505050565b6000819050919050565b60006135d76135d26135cd84612ccb565b6135b2565b612ccb565b9050919050565b6000819050919050565b6135f1836135bc565b6136056135fd826135de565b848454613560565b825550505050565b600090565b61361a61360d565b6136258184846135e8565b505050565b5b818110156136495761363e600082613612565b60018101905061362b565b5050565b601f82111561368e5761365f8161352e565b61366884613543565b81016020851015613677578190505b61368b61368385613543565b83018261362a565b50505b505050565b600082821c905092915050565b60006136b160001984600802613693565b1980831691505092915050565b60006136ca83836136a0565b9150826002028217905092915050565b6136e382612e4e565b67ffffffffffffffff8111156136fc576136fb612af8565b5b61370682546134ce565b61371182828561364d565b600060209050601f8311600181146137445760008415613732578287015190505b61373c85826136be565b8655506137a4565b601f1984166137528661352e565b60005b8281101561377a57848901518255600182019150602085019450602081019050613755565b868310156137975784890151613793601f8916826136a0565b8355505b6001600288020188555050505b505050505050565b6137b581612a29565b82525050565b60006040820190506137d060008301856137ac565b6137dd60208301846137ac565b9392505050565b6000815190506137f381612cd5565b92915050565b60006020828403121561380f5761380e6129ff565b5b600061381d848285016137e4565b91505092915050565b7f4572726f72207769746820746f6b656e20616c6c6f77616e6365000000000000600082015250565b600061385c601a83612e59565b915061386782613826565b602082019050919050565b6000602082019050818103600083015261388b8161384f565b9050919050565b7f5468697320636f6d70616e7920686173206e6f7420726563656976656420616e60008201527f7920726576696577732c2063616e6e6f742063616c63756c617465206176657260208201527f6167652073746172730000000000000000000000000000000000000000000000604082015250565b6000613914604983612e59565b915061391f82613892565b606082019050919050565b6000602082019050818103600083015261394381613907565b9050919050565b7f4e487b7100000000000000000000000000000000000000000000000000000000600052603260045260246000fd5b7f4e487b7100000000000000000000000000000000000000000000000000000000600052601160045260246000fd5b60006139b382612ccb565b91507fffffffffffffffffffffffffffffffffffffffffffffffffffffffffffffffff82036139e5576139e4613979565b5b600182019050919050565b7f596f752068617665206e6f742072656c656173656420616e792072657669657760008201527f7320746f20746869732061646472657373000000000000000000000000000000602082015250565b6000613a4c603183612e59565b9150613a57826139f0565b604082019050919050565b60006020820190508181036000830152613a7b81613a3f565b9050919050565b7f596f752068617665206e6f742072656c656173656420616e792072657669657760008201527f7300000000000000000000000000000000000000000000000000000000000000602082015250565b6000613ade602183612e59565b9150613ae982613a82565b604082019050919050565b60006020820190508181036000830152613b0d81613ad1565b9050919050565b6000613b1f82612ccb565b915060008203613b3257613b31613979565b5b600182039050919050565b7f5374617274206d757374206265206c657373207468616e20746865206c656e6760008201527f7468206f66207468652061727261790000000000000000000000000000000000602082015250565b6000613b99602f83612e59565b9150613ba482613b3d565b604082019050919050565b60006020820190508181036000830152613bc881613b8c565b9050919050565b7f5374617274206e756d626572206d757374206265206c657373207468616e206560008201527f6e64000000000000000000000000000000000000000000000000000000000000602082015250565b6000613c2b602283612e59565b9150613c3682613bcf565b604082019050919050565b60006020820190508181036000830152613c5a81613c1e565b9050919050565b6000613c6c82612ccb565b9150613c7783612ccb565b9250828203905081811115613c8f57613c8e613979565b5b92915050565b7f596f752063616e20676574206d61782000000000000000000000000000000000815250565b600081905092915050565b6000613cd182612e4e565b613cdb8185613cbb565b9350613ceb818560208601612e6a565b80840191505092915050565b7f2072657669657773207065722063616c6c000000000000000000000000000000815250565b6000613d2882613c95565b601082019150613d388284613cc6565b9150613d4382613cf7565b60118201915081905092915050565b60006020820190508181036000830152613d6c8184612e94565b905092915050565b6000613d7f82612ccb565b9150613d8a83612ccb565b9250828201905080821115613da257613da1613979565b5b92915050565b7f5468697320636f6d70616e792068617665206e6f74207265636569766564206160008201527f6e79207265766965777300000000000000000000000000000000000000000000602082015250565b6000613e04602a83612e59565b9150613e0f82613da8565b604082019050919050565b60006020820190508181036000830152613e3381613df7565b9050919050565b613e4381612ccb565b82525050565b6000606082019050613e5e60008301866137ac565b613e6b60208301856137ac565b613e786040830184613e3a565b949350505050565b7f4e487b7100000000000000000000000000000000000000000000000000000000600052601260045260246000fd5b613eb881612aa7565b8114613ec357600080fd5b50565b600081519050613ed581613eaf565b92915050565b600060208284031215613ef157613ef06129ff565b5b6000613eff84828501613ec6565b91505092915050565b7f5361666545524332303a204552433230206f7065726174696f6e20646964206e60008201527f6f74207375636365656400000000000000000000000000000000000000000000602082015250565b6000613f64602a83612e59565b9150613f6f82613f08565b604082019050919050565b60006020820190508181036000830152613f9381613f57565b9050919050565b7f416464726573733a20696e73756666696369656e742062616c616e636520666f60008201527f722063616c6c0000000000000000000000000000000000000000000000000000602082015250565b6000613ff6602683612e59565b915061400182613f9a565b604082019050919050565b6000602082019050818103600083015261402581613fe9565b9050919050565b600081519050919050565b600081905092915050565b600061404d8261402c565b6140578185614037565b9350614067818560208601612e6a565b80840191505092915050565b600061407f8284614042565b915081905092915050565b7f416464726573733a2063616c6c20746f206e6f6e2d636f6e7472616374000000600082015250565b60006140c0601d83612e59565b91506140cb8261408a565b602082019050919050565b600060208201905081810360008301526140ef816140b3565b905091905056fea264697066735822122080dcf37b383aeb8e3bf6a08ad5b46b24e96a26e72612c5f465a63edf74b512fe64736f6c63430008130033",
  "immutableReferences": {},
  "source": "// SPDX-License-Identifier: UNLICENSED\r\npragma solidity ^0.8.17;\r\n\r\nimport \"@openzeppelin/contracts/token/ERC20/IERC20.sol\";\r\nimport \"@openzeppelin/contracts/token/ERC20/utils/SafeERC20.sol\";\r\nimport \"@openzeppelin/contracts/utils/Strings.sol\";\r\n\r\n/*\r\nPiccole note: se l'address non esiste in blockchain non si pu fare il mapping e il contratto resistuisce un errore.\r\nle map sono automaticamente inizializzate a valori di default, quindi non si pu fare il check se esiste un mapping o no.\r\n*/\r\n\r\ncontract Trustify {\r\n    using SafeERC20 for IERC20;\r\n\r\n    uint8 private constant MAX_REVIEW_PER_CALL = 25;\r\n\r\n    IERC20 private token;\r\n\r\n    enum ReviewState {\r\n        ACTIVE,\r\n        MODIFIED,\r\n        DELETED\r\n    }\r\n\r\n    struct Review {\r\n        string text;\r\n        uint8 stars;\r\n        bool havePayed;\r\n        ReviewState state;\r\n    }\r\n\r\n    // MAPPING STUFF\r\n    struct Company {\r\n        address[] allCustomerAddress; //tiene tutti gli address degli utenti che hanno fatto una review a questa azienda (serve per la funzione che restituisce tutte le review di un'azienda)\r\n        mapping(address => Review) reviewMap; //map con address di ogni utente e la review che ha fatto a questa azienda\r\n    }\r\n\r\n    struct Customer {\r\n        address[] allCompanyAddress; //tiene tutti gli address delle aziende che hanno ricevuto una review da questo utente (serve per la funzione che restituisce tutte le review di un utente)\r\n        mapping(address => Review) reviewMap; //map con address di ogni azienda/e-shop e la review che ha fatto l'utente\r\n    }\r\n\r\n    mapping(address => Company) companyMap; //map con address di ogni azienda/e-shop\r\n    mapping(address => Customer) customerMap; //map con address di ogni utente\r\n\r\n    constructor(address coinAddress) {\r\n        token = IERC20(coinAddress);\r\n    }\r\n\r\n    //------------------ TRANSACTION STUFF -------------------------------------------------------------------------------\r\n\r\n    function havePayed(\r\n        address myAddress,\r\n        address companyAddress\r\n    ) public view returns (bool) {\r\n        return companyMap[companyAddress].reviewMap[myAddress].havePayed;\r\n    }\r\n\r\n    modifier checkTransaction(address companyWalletAddress) {\r\n        require(\r\n            companyMap[companyWalletAddress].reviewMap[msg.sender].havePayed,\r\n            \"You dont have a translaction from your address to this address\"\r\n        );\r\n        _;\r\n    }\r\n\r\n    modifier checkActionToYourself(address yourAddress) {\r\n        require(\r\n            yourAddress != msg.sender,\r\n            \"You can't do this action to yourself Pal!\"\r\n        );\r\n        _;\r\n    }\r\n\r\n    function depositTokens(\r\n        address addressToDeposit,\r\n        uint amount\r\n    ) public checkActionToYourself(addressToDeposit) {\r\n        require(\r\n            token.allowance(msg.sender, address(this)) >= amount,\r\n            \"Error with token allowance\"\r\n        );\r\n\r\n        if (companyMap[addressToDeposit].reviewMap[msg.sender].stars == 0) {\r\n            companyMap[addressToDeposit].reviewMap[msg.sender] = Review(\r\n                \"\",\r\n                0,\r\n                true,\r\n                ReviewState.ACTIVE\r\n            );\r\n        }\r\n        token.safeTransferFrom(msg.sender, addressToDeposit, amount);\r\n    }\r\n\r\n    //------------------ REVIEW STUFF ------------------------------------------------------------------------------------\r\n\r\n    /*\r\n        La funzione che scrive la review si accorge se l'utente ha gi scritto una review per quella \r\n        azienda (guarda se le stelle sono a 0, valore impossibile da mettere al di fuori dal contratto),\r\n        in tal caso sovrascrive la vecchia review con la nuova, altrimenti crea una nuova review.\r\n    */\r\n    function writeAReview(\r\n        address addressToReview,\r\n        string memory text,\r\n        uint8 stars\r\n    )\r\n        public\r\n        checkActionToYourself(addressToReview)\r\n        checkTransaction(addressToReview)\r\n    {\r\n        require(\r\n            stars > 0 && stars <= 5,\r\n            \"Error, stars must be a value between 0 and 5\"\r\n        );\r\n\r\n        Review memory tmpReview = companyMap[addressToReview].reviewMap[\r\n            msg.sender\r\n        ];\r\n\r\n        if (tmpReview.stars == 0 && bytes(tmpReview.text).length == 0) {\r\n            Review memory _review = Review(\r\n                text,\r\n                stars,\r\n                true,\r\n                ReviewState.ACTIVE\r\n            );\r\n            companyMap[addressToReview].reviewMap[msg.sender] = _review;\r\n            companyMap[addressToReview].allCustomerAddress.push(msg.sender);\r\n            customerMap[msg.sender].reviewMap[addressToReview] = _review;\r\n            customerMap[msg.sender].allCompanyAddress.push(addressToReview);\r\n        } else {\r\n            Review memory _review = Review(\r\n                text,\r\n                stars,\r\n                true,\r\n                ReviewState.MODIFIED\r\n            );\r\n            companyMap[addressToReview].reviewMap[msg.sender] = _review;\r\n            customerMap[msg.sender].reviewMap[addressToReview] = _review;\r\n        }\r\n    }\r\n\r\n    function deleteReview(\r\n        address reviewAddress\r\n    ) public checkActionToYourself(reviewAddress) {\r\n        companyMap[reviewAddress].reviewMap[msg.sender].state = ReviewState\r\n            .DELETED;\r\n        customerMap[msg.sender].reviewMap[reviewAddress].state = ReviewState\r\n            .DELETED;\r\n    }\r\n\r\n    function stateToString(\r\n        ReviewState state\r\n    ) private pure returns (string memory) {\r\n        if (state == ReviewState.ACTIVE) return \"ACTIVE\";\r\n        if (state == ReviewState.MODIFIED) return \"MODIFIED\";\r\n        if (state == ReviewState.DELETED) return \"DELETED\";\r\n        return \"UNKNOWN\";\r\n    }\r\n\r\n    //------------------ GETTER REVIEW STUFF ------------------------------------------------------------------------------------\r\n\r\n    function getCompanyReview(\r\n        uint start,\r\n        uint end,\r\n        address companyAddress\r\n    ) public view returns (string[] memory, uint8[] memory, string[] memory) {\r\n        uint totalLength = companyMap[companyAddress].allCustomerAddress.length;\r\n        require(totalLength > 0, \"This company have not received any reviews\");\r\n        totalLength--;\r\n        require(\r\n            start <= totalLength,\r\n            \"Start must be less than the length of the array\"\r\n        );\r\n        require(start <= end, \"Start number must be less than end\");\r\n        require(\r\n            end - start <= MAX_REVIEW_PER_CALL,\r\n            string.concat(\r\n                \"You can get max \",\r\n                Strings.toString(MAX_REVIEW_PER_CALL),\r\n                \" reviews per call\"\r\n            )\r\n        );\r\n\r\n        if (end > totalLength) {\r\n            end = totalLength;\r\n        }\r\n\r\n        uint length = end - start + 1;\r\n        string[] memory reviews = new string[](length);\r\n        uint8[] memory stars = new uint8[](length);\r\n        string[] memory state = new string[](length);\r\n\r\n        uint index = 0;\r\n        for (\r\n            uint i = totalLength - start + 1;\r\n            i >= totalLength - end + 1;\r\n            i--\r\n        ) {\r\n            Company storage company = companyMap[companyAddress];\r\n            reviews[index] = company\r\n                .reviewMap[company.allCustomerAddress[i - 1]]\r\n                .text;\r\n            stars[index] = company\r\n                .reviewMap[company.allCustomerAddress[i - 1]]\r\n                .stars;\r\n            state[index] = stateToString(\r\n                company.reviewMap[company.allCustomerAddress[i - 1]].state\r\n            );\r\n            index++;\r\n        }\r\n\r\n        return (reviews, stars, state);\r\n    }\r\n\r\n    function getSpecificReview(\r\n        address addressReviewed\r\n    ) public view returns (string memory, uint8, string memory) {\r\n        uint8 stars = companyMap[addressReviewed].reviewMap[msg.sender].stars;\r\n        require(\r\n            stars != 0,\r\n            \"You have not released any reviews to this address\"\r\n        );\r\n        string memory text = companyMap[addressReviewed]\r\n            .reviewMap[msg.sender]\r\n            .text;\r\n        string memory state = stateToString(\r\n            companyMap[addressReviewed].reviewMap[msg.sender].state\r\n        );\r\n        return (text, stars, state);\r\n    }\r\n\r\n    //This return N review of the user with [start, end] included, start start from 0\r\n    function getMyReview(\r\n        uint start,\r\n        uint end\r\n    )\r\n        public\r\n        view\r\n        returns (\r\n            string[] memory,\r\n            uint8[] memory,\r\n            string[] memory,\r\n            address[] memory\r\n        )\r\n    {\r\n        uint totalLength = customerMap[msg.sender].allCompanyAddress.length;\r\n        require(totalLength > 0, \"You have not released any reviews\");\r\n        totalLength--;\r\n        require(\r\n            start <= totalLength,\r\n            \"Start must be less than the length of the array\"\r\n        );\r\n\r\n        require(start <= end, \"Start number must be less than end\");\r\n        require(\r\n            end - start <= MAX_REVIEW_PER_CALL,\r\n            string.concat(\r\n                \"You can get max \",\r\n                Strings.toString(MAX_REVIEW_PER_CALL),\r\n                \" reviews per call\"\r\n            )\r\n        );\r\n\r\n        if (end > totalLength) {\r\n            end = totalLength;\r\n        }\r\n\r\n        uint length = end - start + 1;\r\n        string[] memory reviews = new string[](length);\r\n        uint8[] memory stars = new uint8[](length);\r\n        string[] memory state = new string[](length);\r\n        address[] memory addresses = new address[](length);\r\n\r\n        uint index = 0;\r\n        for (\r\n            uint i = totalLength - start + 1;\r\n            i >= totalLength - end + 1;\r\n            i--\r\n        ) {\r\n            Customer storage customer = customerMap[msg.sender];\r\n            reviews[index] = customer\r\n                .reviewMap[customer.allCompanyAddress[i - 1]]\r\n                .text;\r\n            stars[index] = customer\r\n                .reviewMap[customer.allCompanyAddress[i - 1]]\r\n                .stars;\r\n            state[index] = stateToString(\r\n                customer.reviewMap[customer.allCompanyAddress[i - 1]].state\r\n            );\r\n            addresses[index] = customer.allCompanyAddress[i - 1];\r\n            index++;\r\n        }\r\n        return (reviews, stars, state, addresses);\r\n    }\r\n\r\n    function getAverageStars(\r\n        address addressReviewed\r\n    ) public view returns (uint[] memory) {\r\n        uint length = companyMap[addressReviewed].allCustomerAddress.length;\r\n        require(\r\n            length != 0,\r\n            \"This company has not received any reviews, cannot calculate average stars\"\r\n        );\r\n\r\n        uint[] memory stars = new uint[](length);\r\n        for (uint i = 0; i < length; i++) {\r\n            stars[i] = companyMap[addressReviewed]\r\n                .reviewMap[companyMap[addressReviewed].allCustomerAddress[i]]\r\n                .stars;\r\n        }\r\n\r\n        return stars;\r\n    }\r\n}\r\n",
  "sourcePath": "C:\\Users\\Nicola\\Desktop\\Git-Repositories\\Trustify-webapp\\Trustify-backend\\Trustify\\contracts\\Trustify.sol",
  "compiler": {
    "name": "solc",
    "version": "0.8.19+commit.7dd6d404.Emscripten.clang"
  },
  "schemaVersion": "3.4.8",
  "updatedAt": "2023-05-04T19:01:08.266Z",
  "devdoc": {
    "kind": "dev",
    "methods": {},
    "version": 1
  },
  "userdoc": {
    "kind": "user",
    "methods": {},
    "version": 1
  }
}