{
  "contractName": "Trustify",
  "abi": [
    {
      "inputs": [
        {
          "internalType": "address",
          "name": "coinAddress",
          "type": "address"
        }
      ],
      "stateMutability": "nonpayable",
      "type": "constructor"
    },
    {
      "anonymous": false,
      "inputs": [
        {
          "indexed": true,
          "internalType": "address",
          "name": "previousOwner",
          "type": "address"
        },
        {
          "indexed": true,
          "internalType": "address",
          "name": "newOwner",
          "type": "address"
        }
      ],
      "name": "OwnershipTransferred",
      "type": "event"
    },
    {
      "inputs": [],
      "name": "owner",
      "outputs": [
        {
          "internalType": "address",
          "name": "",
          "type": "address"
        }
      ],
      "stateMutability": "view",
      "type": "function"
    },
    {
      "inputs": [],
      "name": "renounceOwnership",
      "outputs": [],
      "stateMutability": "nonpayable",
      "type": "function"
    },
    {
      "inputs": [
        {
          "internalType": "address",
          "name": "newOwner",
          "type": "address"
        }
      ],
      "name": "transferOwnership",
      "outputs": [],
      "stateMutability": "nonpayable",
      "type": "function"
    },
    {
      "inputs": [
        {
          "internalType": "address",
          "name": "myAddress",
          "type": "address"
        },
        {
          "internalType": "address",
          "name": "companyAddress",
          "type": "address"
        }
      ],
      "name": "havePayed",
      "outputs": [
        {
          "internalType": "bool",
          "name": "",
          "type": "bool"
        }
      ],
      "stateMutability": "view",
      "type": "function"
    },
    {
      "inputs": [
        {
          "internalType": "address",
          "name": "addressToDeposit",
          "type": "address"
        },
        {
          "internalType": "uint256",
          "name": "amount",
          "type": "uint256"
        }
      ],
      "name": "depositTokens",
      "outputs": [],
      "stateMutability": "nonpayable",
      "type": "function"
    },
    {
      "inputs": [
        {
          "internalType": "address",
          "name": "addressToReview",
          "type": "address"
        },
        {
          "internalType": "string",
          "name": "text",
          "type": "string"
        },
        {
          "internalType": "uint8",
          "name": "stars",
          "type": "uint8"
        }
      ],
      "name": "writeAReview",
      "outputs": [],
      "stateMutability": "nonpayable",
      "type": "function"
    },
    {
      "inputs": [
        {
          "internalType": "address",
          "name": "reviewAddress",
          "type": "address"
        }
      ],
      "name": "deleteReview",
      "outputs": [],
      "stateMutability": "nonpayable",
      "type": "function"
    },
    {
      "inputs": [
        {
          "internalType": "uint256",
          "name": "start",
          "type": "uint256"
        },
        {
          "internalType": "uint256",
          "name": "end",
          "type": "uint256"
        },
        {
          "internalType": "address",
          "name": "companyAddress",
          "type": "address"
        }
      ],
      "name": "getCompanyReview",
      "outputs": [
        {
          "internalType": "string[]",
          "name": "",
          "type": "string[]"
        },
        {
          "internalType": "uint8[]",
          "name": "",
          "type": "uint8[]"
        },
        {
          "internalType": "string[]",
          "name": "",
          "type": "string[]"
        }
      ],
      "stateMutability": "view",
      "type": "function"
    },
    {
      "inputs": [
        {
          "internalType": "address",
          "name": "addressReviewed",
          "type": "address"
        }
      ],
      "name": "getSpecificReview",
      "outputs": [
        {
          "internalType": "string",
          "name": "",
          "type": "string"
        },
        {
          "internalType": "uint8",
          "name": "",
          "type": "uint8"
        },
        {
          "internalType": "string",
          "name": "",
          "type": "string"
        }
      ],
      "stateMutability": "view",
      "type": "function"
    },
    {
      "inputs": [
        {
          "internalType": "uint256",
          "name": "start",
          "type": "uint256"
        },
        {
          "internalType": "uint256",
          "name": "end",
          "type": "uint256"
        }
      ],
      "name": "getMyReview",
      "outputs": [
        {
          "internalType": "string[]",
          "name": "",
          "type": "string[]"
        },
        {
          "internalType": "uint8[]",
          "name": "",
          "type": "uint8[]"
        },
        {
          "internalType": "string[]",
          "name": "",
          "type": "string[]"
        },
        {
          "internalType": "address[]",
          "name": "",
          "type": "address[]"
        }
      ],
      "stateMutability": "view",
      "type": "function"
    },
    {
      "inputs": [
        {
          "internalType": "address",
          "name": "addressReviewed",
          "type": "address"
        }
      ],
      "name": "getAverageStars",
      "outputs": [
        {
          "internalType": "uint256[]",
          "name": "",
          "type": "uint256[]"
        }
      ],
      "stateMutability": "view",
      "type": "function"
    },
    {
      "inputs": [
        {
          "internalType": "address",
          "name": "addressReviewer",
          "type": "address"
        },
        {
          "internalType": "address",
          "name": "addressReviewed",
          "type": "address"
        },
        {
          "internalType": "string",
          "name": "text",
          "type": "string"
        },
        {
          "internalType": "uint8",
          "name": "stars",
          "type": "uint8"
        },
        {
          "internalType": "string",
          "name": "state",
          "type": "string"
        }
      ],
      "name": "forceAddReview",
      "outputs": [],
      "stateMutability": "nonpayable",
      "type": "function"
    }
  ],
  "bytecode": "0x60806040523480156200001157600080fd5b5060405162005251380380620052518339818101604052810190620000379190620001d5565b620000576200004b6200009f60201b60201c565b620000a760201b60201c565b80600160006101000a81548173ffffffffffffffffffffffffffffffffffffffff021916908373ffffffffffffffffffffffffffffffffffffffff1602179055505062000207565b600033905090565b60008060009054906101000a900473ffffffffffffffffffffffffffffffffffffffff169050816000806101000a81548173ffffffffffffffffffffffffffffffffffffffff021916908373ffffffffffffffffffffffffffffffffffffffff1602179055508173ffffffffffffffffffffffffffffffffffffffff168173ffffffffffffffffffffffffffffffffffffffff167f8be0079c531659141344cd1fd0a4f28419497f9722a3daafe3b4186f6b6457e060405160405180910390a35050565b600080fd5b600073ffffffffffffffffffffffffffffffffffffffff82169050919050565b60006200019d8262000170565b9050919050565b620001af8162000190565b8114620001bb57600080fd5b50565b600081519050620001cf81620001a4565b92915050565b600060208284031215620001ee57620001ed6200016b565b5b6000620001fe84828501620001be565b91505092915050565b61503a80620002176000396000f3fe608060405234801561001057600080fd5b50600436106100b45760003560e01c8063803b437911610071578063803b4379146101775780638da5cb5b146101a957806395b5d3d6146101c7578063a5718aaf146101fa578063e60d82a21461022c578063f2fde38b14610248576100b4565b80631e01b668146100b957806348e31c3d146100e9578063652012d51461010557806366168bd714610121578063662a0d4a1461013d578063715018a61461016d575b600080fd5b6100d360048036038101906100ce9190613603565b610264565b6040516100e0919061365e565b60405180910390f35b61010360048036038101906100fe91906137f8565b6102fe565b005b61011f600480360381019061011a9190613867565b610c41565b005b61013b60048036038101906101369190613950565b611543565b005b61015760048036038101906101529190613990565b6118d4565b6040516101649190613a7b565b60405180910390f35b610175611b09565b005b610191600480360381019061018c9190613990565b611b1d565b6040516101a093929190613b2b565b60405180910390f35b6101b1611dbb565b6040516101be9190613b7f565b60405180910390f35b6101e160048036038101906101dc9190613b9a565b611de4565b6040516101f19493929190613e62565b60405180910390f35b610214600480360381019061020f9190613ec3565b61250a565b60405161022393929190613f16565b60405180910390f35b61024660048036038101906102419190613990565b612b44565b005b610262600480360381019061025d9190613990565b612d0c565b005b6000600260008373ffffffffffffffffffffffffffffffffffffffff1673ffffffffffffffffffffffffffffffffffffffff16815260200190815260200160002060010160008473ffffffffffffffffffffffffffffffffffffffff1673ffffffffffffffffffffffffffffffffffffffff16815260200190815260200160002060010160019054906101000a900460ff16905092915050565b823373ffffffffffffffffffffffffffffffffffffffff168173ffffffffffffffffffffffffffffffffffffffff160361036d576040517f08c379a000000000000000000000000000000000000000000000000000000000815260040161036490613fd4565b60405180910390fd5b83600260008273ffffffffffffffffffffffffffffffffffffffff1673ffffffffffffffffffffffffffffffffffffffff16815260200190815260200160002060010160003373ffffffffffffffffffffffffffffffffffffffff1673ffffffffffffffffffffffffffffffffffffffff16815260200190815260200160002060010160019054906101000a900460ff1661043d576040517f08c379a000000000000000000000000000000000000000000000000000000000815260040161043490614066565b60405180910390fd5b60008360ff16118015610454575060058360ff1611155b610493576040517f08c379a000000000000000000000000000000000000000000000000000000000815260040161048a906140f8565b60405180910390fd5b6000600260008773ffffffffffffffffffffffffffffffffffffffff1673ffffffffffffffffffffffffffffffffffffffff16815260200190815260200160002060010160003373ffffffffffffffffffffffffffffffffffffffff1673ffffffffffffffffffffffffffffffffffffffff16815260200190815260200160002060405180608001604052908160008201805461052f90614147565b80601f016020809104026020016040519081016040528092919081815260200182805461055b90614147565b80156105a85780601f1061057d576101008083540402835291602001916105a8565b820191906000526020600020905b81548152906001019060200180831161058b57829003601f168201915b505050505081526020016001820160009054906101000a900460ff1660ff1660ff1681526020016001820160019054906101000a900460ff161515151581526020016001820160029054906101000a900460ff16600281111561060e5761060d614178565b5b60028111156106205761061f614178565b5b8152505090506000816020015160ff1614801561064257506000816000015151145b156109e557600060405180608001604052808781526020018660ff168152602001600115158152602001600060028111156106805761067f614178565b5b815250905080600260008973ffffffffffffffffffffffffffffffffffffffff1673ffffffffffffffffffffffffffffffffffffffff16815260200190815260200160002060010160003373ffffffffffffffffffffffffffffffffffffffff1673ffffffffffffffffffffffffffffffffffffffff168152602001908152602001600020600082015181600001908161071a9190614353565b5060208201518160010160006101000a81548160ff021916908360ff16021790555060408201518160010160016101000a81548160ff02191690831515021790555060608201518160010160026101000a81548160ff0219169083600281111561078757610786614178565b5b0217905550905050600260008873ffffffffffffffffffffffffffffffffffffffff1673ffffffffffffffffffffffffffffffffffffffff168152602001908152602001600020600001339080600181540180825580915050600190039060005260206000200160009091909190916101000a81548173ffffffffffffffffffffffffffffffffffffffff021916908373ffffffffffffffffffffffffffffffffffffffff16021790555080600360003373ffffffffffffffffffffffffffffffffffffffff1673ffffffffffffffffffffffffffffffffffffffff16815260200190815260200160002060010160008973ffffffffffffffffffffffffffffffffffffffff1673ffffffffffffffffffffffffffffffffffffffff16815260200190815260200160002060008201518160000190816108c79190614353565b5060208201518160010160006101000a81548160ff021916908360ff16021790555060408201518160010160016101000a81548160ff02191690831515021790555060608201518160010160026101000a81548160ff0219169083600281111561093457610933614178565b5b0217905550905050600360003373ffffffffffffffffffffffffffffffffffffffff1673ffffffffffffffffffffffffffffffffffffffff168152602001908152602001600020600001879080600181540180825580915050600190039060005260206000200160009091909190916101000a81548173ffffffffffffffffffffffffffffffffffffffff021916908373ffffffffffffffffffffffffffffffffffffffff16021790555050610c39565b600060405180608001604052808781526020018660ff16815260200160011515815260200160016002811115610a1e57610a1d614178565b5b815250905080600260008973ffffffffffffffffffffffffffffffffffffffff1673ffffffffffffffffffffffffffffffffffffffff16815260200190815260200160002060010160003373ffffffffffffffffffffffffffffffffffffffff1673ffffffffffffffffffffffffffffffffffffffff1681526020019081526020016000206000820151816000019081610ab89190614353565b5060208201518160010160006101000a81548160ff021916908360ff16021790555060408201518160010160016101000a81548160ff02191690831515021790555060608201518160010160026101000a81548160ff02191690836002811115610b2557610b24614178565b5b021790555090505080600360003373ffffffffffffffffffffffffffffffffffffffff1673ffffffffffffffffffffffffffffffffffffffff16815260200190815260200160002060010160008973ffffffffffffffffffffffffffffffffffffffff1673ffffffffffffffffffffffffffffffffffffffff1681526020019081526020016000206000820151816000019081610bc29190614353565b5060208201518160010160006101000a81548160ff021916908360ff16021790555060408201518160010160016101000a81548160ff02191690831515021790555060608201518160010160026101000a81548160ff02191690836002811115610c2f57610c2e614178565b5b0217905550905050505b505050505050565b610c49612d8f565b600081604051602001610c5c9190614461565b60405160208183030381529060405280519060200120604051602001610c81906144c4565b6040516020818303038152906040528051906020012003610ca55760009050610d96565b81604051602001610cb69190614461565b60405160208183030381529060405280519060200120604051602001610cdb90614525565b6040516020818303038152906040528051906020012003610cff5760019050610d95565b81604051602001610d109190614461565b60405160208183030381529060405280519060200120604051602001610d3590614586565b6040516020818303038152906040528051906020012003610d595760029050610d94565b6040517f08c379a0000000000000000000000000000000000000000000000000000000008152600401610d8b906145e7565b60405180910390fd5b5b5b6000600260008773ffffffffffffffffffffffffffffffffffffffff1673ffffffffffffffffffffffffffffffffffffffff16815260200190815260200160002060010160008873ffffffffffffffffffffffffffffffffffffffff1673ffffffffffffffffffffffffffffffffffffffff168152602001908152602001600020604051806080016040529081600082018054610e3290614147565b80601f0160208091040260200160405190810160405280929190818152602001828054610e5e90614147565b8015610eab5780601f10610e8057610100808354040283529160200191610eab565b820191906000526020600020905b815481529060010190602001808311610e8e57829003601f168201915b505050505081526020016001820160009054906101000a900460ff1660ff1660ff1681526020016001820160019054906101000a900460ff161515151581526020016001820160029054906101000a900460ff166002811115610f1157610f10614178565b5b6002811115610f2357610f22614178565b5b8152505090506000816020015160ff16148015610f4557506000816000015151145b156112e757600060405180608001604052808781526020018660ff168152602001600115158152602001846002811115610f8257610f81614178565b5b815250905080600260008973ffffffffffffffffffffffffffffffffffffffff1673ffffffffffffffffffffffffffffffffffffffff16815260200190815260200160002060010160008a73ffffffffffffffffffffffffffffffffffffffff1673ffffffffffffffffffffffffffffffffffffffff168152602001908152602001600020600082015181600001908161101c9190614353565b5060208201518160010160006101000a81548160ff021916908360ff16021790555060408201518160010160016101000a81548160ff02191690831515021790555060608201518160010160026101000a81548160ff0219169083600281111561108957611088614178565b5b0217905550905050600260008873ffffffffffffffffffffffffffffffffffffffff1673ffffffffffffffffffffffffffffffffffffffff168152602001908152602001600020600001889080600181540180825580915050600190039060005260206000200160009091909190916101000a81548173ffffffffffffffffffffffffffffffffffffffff021916908373ffffffffffffffffffffffffffffffffffffffff16021790555080600360008a73ffffffffffffffffffffffffffffffffffffffff1673ffffffffffffffffffffffffffffffffffffffff16815260200190815260200160002060010160008973ffffffffffffffffffffffffffffffffffffffff1673ffffffffffffffffffffffffffffffffffffffff16815260200190815260200160002060008201518160000190816111c99190614353565b5060208201518160010160006101000a81548160ff021916908360ff16021790555060408201518160010160016101000a81548160ff02191690831515021790555060608201518160010160026101000a81548160ff0219169083600281111561123657611235614178565b5b0217905550905050600360008973ffffffffffffffffffffffffffffffffffffffff1673ffffffffffffffffffffffffffffffffffffffff168152602001908152602001600020600001879080600181540180825580915050600190039060005260206000200160009091909190916101000a81548173ffffffffffffffffffffffffffffffffffffffff021916908373ffffffffffffffffffffffffffffffffffffffff1602179055505061153a565b600060405180608001604052808781526020018660ff16815260200160011515815260200184600281111561131f5761131e614178565b5b815250905080600260008973ffffffffffffffffffffffffffffffffffffffff1673ffffffffffffffffffffffffffffffffffffffff16815260200190815260200160002060010160008a73ffffffffffffffffffffffffffffffffffffffff1673ffffffffffffffffffffffffffffffffffffffff16815260200190815260200160002060008201518160000190816113b99190614353565b5060208201518160010160006101000a81548160ff021916908360ff16021790555060408201518160010160016101000a81548160ff02191690831515021790555060608201518160010160026101000a81548160ff0219169083600281111561142657611425614178565b5b021790555090505080600360008a73ffffffffffffffffffffffffffffffffffffffff1673ffffffffffffffffffffffffffffffffffffffff16815260200190815260200160002060010160008973ffffffffffffffffffffffffffffffffffffffff1673ffffffffffffffffffffffffffffffffffffffff16815260200190815260200160002060008201518160000190816114c39190614353565b5060208201518160010160006101000a81548160ff021916908360ff16021790555060408201518160010160016101000a81548160ff02191690831515021790555060608201518160010160026101000a81548160ff021916908360028111156115305761152f614178565b5b0217905550905050505b50505050505050565b813373ffffffffffffffffffffffffffffffffffffffff168173ffffffffffffffffffffffffffffffffffffffff16036115b2576040517f08c379a00000000000000000000000000000000000000000000000000000000081526004016115a990613fd4565b60405180910390fd5b81600160009054906101000a900473ffffffffffffffffffffffffffffffffffffffff1673ffffffffffffffffffffffffffffffffffffffff1663dd62ed3e33306040518363ffffffff1660e01b8152600401611610929190614607565b602060405180830381865afa15801561162d573d6000803e3d6000fd5b505050506040513d601f19601f820116820180604052508101906116519190614645565b1015611692576040517f08c379a0000000000000000000000000000000000000000000000000000000008152600401611689906146be565b60405180910390fd5b6000600260008573ffffffffffffffffffffffffffffffffffffffff1673ffffffffffffffffffffffffffffffffffffffff16815260200190815260200160002060010160003373ffffffffffffffffffffffffffffffffffffffff1673ffffffffffffffffffffffffffffffffffffffff16815260200190815260200160002060010160009054906101000a900460ff1660ff1603611880576040518060800160405280604051806020016040528060008152508152602001600060ff1681526020016001151581526020016000600281111561177357611772614178565b5b815250600260008573ffffffffffffffffffffffffffffffffffffffff1673ffffffffffffffffffffffffffffffffffffffff16815260200190815260200160002060010160003373ffffffffffffffffffffffffffffffffffffffff1673ffffffffffffffffffffffffffffffffffffffff168152602001908152602001600020600082015181600001908161180a9190614353565b5060208201518160010160006101000a81548160ff021916908360ff16021790555060408201518160010160016101000a81548160ff02191690831515021790555060608201518160010160026101000a81548160ff0219169083600281111561187757611876614178565b5b02179055509050505b6118cf338484600160009054906101000a900473ffffffffffffffffffffffffffffffffffffffff1673ffffffffffffffffffffffffffffffffffffffff16612e0d909392919063ffffffff16565b505050565b60606000600260008473ffffffffffffffffffffffffffffffffffffffff1673ffffffffffffffffffffffffffffffffffffffff16815260200190815260200160002060000180549050905060008103611963576040517f08c379a000000000000000000000000000000000000000000000000000000000815260040161195a90614776565b60405180910390fd5b60008167ffffffffffffffff81111561197f5761197e613694565b5b6040519080825280602002602001820160405280156119ad5781602001602082028036833780820191505090505b50905060005b82811015611afe57600260008673ffffffffffffffffffffffffffffffffffffffff1673ffffffffffffffffffffffffffffffffffffffff1681526020019081526020016000206001016000600260008873ffffffffffffffffffffffffffffffffffffffff1673ffffffffffffffffffffffffffffffffffffffff1681526020019081526020016000206000018381548110611a5357611a52614796565b5b9060005260206000200160009054906101000a900473ffffffffffffffffffffffffffffffffffffffff1673ffffffffffffffffffffffffffffffffffffffff1673ffffffffffffffffffffffffffffffffffffffff16815260200190815260200160002060010160009054906101000a900460ff1660ff16828281518110611adf57611ade614796565b5b6020026020010181815250508080611af6906147f4565b9150506119b3565b508092505050919050565b611b11612d8f565b611b1b6000612e96565b565b6060600060606000600260008673ffffffffffffffffffffffffffffffffffffffff1673ffffffffffffffffffffffffffffffffffffffff16815260200190815260200160002060010160003373ffffffffffffffffffffffffffffffffffffffff1673ffffffffffffffffffffffffffffffffffffffff16815260200190815260200160002060010160009054906101000a900460ff16905060008160ff1603611bfd576040517f08c379a0000000000000000000000000000000000000000000000000000000008152600401611bf4906148ae565b60405180910390fd5b6000600260008773ffffffffffffffffffffffffffffffffffffffff1673ffffffffffffffffffffffffffffffffffffffff16815260200190815260200160002060010160003373ffffffffffffffffffffffffffffffffffffffff1673ffffffffffffffffffffffffffffffffffffffff1681526020019081526020016000206000018054611c8c90614147565b80601f0160208091040260200160405190810160405280929190818152602001828054611cb890614147565b8015611d055780601f10611cda57610100808354040283529160200191611d05565b820191906000526020600020905b815481529060010190602001808311611ce857829003601f168201915b505050505090506000611da6600260008973ffffffffffffffffffffffffffffffffffffffff1673ffffffffffffffffffffffffffffffffffffffff16815260200190815260200160002060010160003373ffffffffffffffffffffffffffffffffffffffff1673ffffffffffffffffffffffffffffffffffffffff16815260200190815260200160002060010160029054906101000a900460ff16612f5a565b90508183829550955095505050509193909250565b60008060009054906101000a900473ffffffffffffffffffffffffffffffffffffffff16905090565b6060806060806000600360003373ffffffffffffffffffffffffffffffffffffffff1673ffffffffffffffffffffffffffffffffffffffff16815260200190815260200160002060000180549050905060008111611e77576040517f08c379a0000000000000000000000000000000000000000000000000000000008152600401611e6e90614940565b60405180910390fd5b8080611e8290614960565b91505080871115611ec8576040517f08c379a0000000000000000000000000000000000000000000000000000000008152600401611ebf906149fb565b60405180910390fd5b85871115611f0b576040517f08c379a0000000000000000000000000000000000000000000000000000000008152600401611f0290614a8d565b60405180910390fd5b601960ff168787611f1c9190614aad565b1115611f2b601960ff166130d4565b604051602001611f3b9190614b2d565b60405160208183030381529060405290611f8b576040517f08c379a0000000000000000000000000000000000000000000000000000000008152600401611f829190614b62565b60405180910390fd5b5080861115611f98578095505b600060018888611fa89190614aad565b611fb29190614b84565b905060008167ffffffffffffffff811115611fd057611fcf613694565b5b60405190808252806020026020018201604052801561200357816020015b6060815260200190600190039081611fee5790505b50905060008267ffffffffffffffff81111561202257612021613694565b5b6040519080825280602002602001820160405280156120505781602001602082028036833780820191505090505b50905060008367ffffffffffffffff81111561206f5761206e613694565b5b6040519080825280602002602001820160405280156120a257816020015b606081526020019060019003908161208d5790505b50905060008467ffffffffffffffff8111156120c1576120c0613694565b5b6040519080825280602002602001820160405280156120ef5781602001602082028036833780820191505090505b50905060008060018e896121039190614aad565b61210d9190614b84565b90505b60018d8961211e9190614aad565b6121289190614b84565b81106124ed576000600360003373ffffffffffffffffffffffffffffffffffffffff1673ffffffffffffffffffffffffffffffffffffffff1681526020019081526020016000209050806001016000826000016001856121889190614aad565b8154811061219957612198614796565b5b9060005260206000200160009054906101000a900473ffffffffffffffffffffffffffffffffffffffff1673ffffffffffffffffffffffffffffffffffffffff1673ffffffffffffffffffffffffffffffffffffffff168152602001908152602001600020600001805461220c90614147565b80601f016020809104026020016040519081016040528092919081815260200182805461223890614147565b80156122855780601f1061225a57610100808354040283529160200191612285565b820191906000526020600020905b81548152906001019060200180831161226857829003601f168201915b505050505087848151811061229d5761229c614796565b5b6020026020010181905250806001016000826000016001856122bf9190614aad565b815481106122d0576122cf614796565b5b9060005260206000200160009054906101000a900473ffffffffffffffffffffffffffffffffffffffff1673ffffffffffffffffffffffffffffffffffffffff1673ffffffffffffffffffffffffffffffffffffffff16815260200190815260200160002060010160009054906101000a900460ff1686848151811061235957612358614796565b5b602002602001019060ff16908160ff1681525050612413816001016000836000016001866123879190614aad565b8154811061239857612397614796565b5b9060005260206000200160009054906101000a900473ffffffffffffffffffffffffffffffffffffffff1673ffffffffffffffffffffffffffffffffffffffff1673ffffffffffffffffffffffffffffffffffffffff16815260200190815260200160002060010160029054906101000a900460ff16612f5a565b85848151811061242657612425614796565b5b6020026020010181905250806000016001836124429190614aad565b8154811061245357612452614796565b5b9060005260206000200160009054906101000a900473ffffffffffffffffffffffffffffffffffffffff1684848151811061249157612490614796565b5b602002602001019073ffffffffffffffffffffffffffffffffffffffff16908173ffffffffffffffffffffffffffffffffffffffff168152505082806124d6906147f4565b9350505080806124e590614960565b915050612110565b50848484849a509a509a509a505050505050505092959194509250565b60608060606000600260008673ffffffffffffffffffffffffffffffffffffffff1673ffffffffffffffffffffffffffffffffffffffff1681526020019081526020016000206000018054905090506000811161259c576040517f08c379a000000000000000000000000000000000000000000000000000000000815260040161259390614c2a565b60405180910390fd5b80806125a790614960565b915050808711156125ed576040517f08c379a00000000000000000000000000000000000000000000000000000000081526004016125e4906149fb565b60405180910390fd5b85871115612630576040517f08c379a000000000000000000000000000000000000000000000000000000000815260040161262790614a8d565b60405180910390fd5b601960ff1687876126419190614aad565b1115612650601960ff166130d4565b6040516020016126609190614b2d565b604051602081830303815290604052906126b0576040517f08c379a00000000000000000000000000000000000000000000000000000000081526004016126a79190614b62565b60405180910390fd5b50808611156126bd578095505b6000600188886126cd9190614aad565b6126d79190614b84565b905060008167ffffffffffffffff8111156126f5576126f4613694565b5b60405190808252806020026020018201604052801561272857816020015b60608152602001906001900390816127135790505b50905060008267ffffffffffffffff81111561274757612746613694565b5b6040519080825280602002602001820160405280156127755781602001602082028036833780820191505090505b50905060008367ffffffffffffffff81111561279457612793613694565b5b6040519080825280602002602001820160405280156127c757816020015b60608152602001906001900390816127b25790505b50905060008060018d886127db9190614aad565b6127e59190614b84565b90505b60018c886127f69190614aad565b6128009190614b84565b8110612b2b576000600260008d73ffffffffffffffffffffffffffffffffffffffff1673ffffffffffffffffffffffffffffffffffffffff1681526020019081526020016000209050806001016000826000016001856128609190614aad565b8154811061287157612870614796565b5b9060005260206000200160009054906101000a900473ffffffffffffffffffffffffffffffffffffffff1673ffffffffffffffffffffffffffffffffffffffff1673ffffffffffffffffffffffffffffffffffffffff16815260200190815260200160002060000180546128e490614147565b80601f016020809104026020016040519081016040528092919081815260200182805461291090614147565b801561295d5780601f106129325761010080835404028352916020019161295d565b820191906000526020600020905b81548152906001019060200180831161294057829003601f168201915b505050505086848151811061297557612974614796565b5b6020026020010181905250806001016000826000016001856129979190614aad565b815481106129a8576129a7614796565b5b9060005260206000200160009054906101000a900473ffffffffffffffffffffffffffffffffffffffff1673ffffffffffffffffffffffffffffffffffffffff1673ffffffffffffffffffffffffffffffffffffffff16815260200190815260200160002060010160009054906101000a900460ff16858481518110612a3157612a30614796565b5b602002602001019060ff16908160ff1681525050612aeb81600101600083600001600186612a5f9190614aad565b81548110612a7057612a6f614796565b5b9060005260206000200160009054906101000a900473ffffffffffffffffffffffffffffffffffffffff1673ffffffffffffffffffffffffffffffffffffffff1673ffffffffffffffffffffffffffffffffffffffff16815260200190815260200160002060010160029054906101000a900460ff16612f5a565b848481518110612afe57612afd614796565b5b60200260200101819052508280612b14906147f4565b935050508080612b2390614960565b9150506127e8565b5083838398509850985050505050505093509350939050565b803373ffffffffffffffffffffffffffffffffffffffff168173ffffffffffffffffffffffffffffffffffffffff1603612bb3576040517f08c379a0000000000000000000000000000000000000000000000000000000008152600401612baa90613fd4565b60405180910390fd5b60028060008473ffffffffffffffffffffffffffffffffffffffff1673ffffffffffffffffffffffffffffffffffffffff16815260200190815260200160002060010160003373ffffffffffffffffffffffffffffffffffffffff1673ffffffffffffffffffffffffffffffffffffffff16815260200190815260200160002060010160026101000a81548160ff02191690836002811115612c5857612c57614178565b5b02179055506002600360003373ffffffffffffffffffffffffffffffffffffffff1673ffffffffffffffffffffffffffffffffffffffff16815260200190815260200160002060010160008473ffffffffffffffffffffffffffffffffffffffff1673ffffffffffffffffffffffffffffffffffffffff16815260200190815260200160002060010160026101000a81548160ff02191690836002811115612d0357612d02614178565b5b02179055505050565b612d14612d8f565b600073ffffffffffffffffffffffffffffffffffffffff168173ffffffffffffffffffffffffffffffffffffffff1603612d83576040517f08c379a0000000000000000000000000000000000000000000000000000000008152600401612d7a90614cbc565b60405180910390fd5b612d8c81612e96565b50565b612d976131a2565b73ffffffffffffffffffffffffffffffffffffffff16612db5611dbb565b73ffffffffffffffffffffffffffffffffffffffff1614612e0b576040517f08c379a0000000000000000000000000000000000000000000000000000000008152600401612e0290614d28565b60405180910390fd5b565b612e90846323b872dd60e01b858585604051602401612e2e93929190614d57565b604051602081830303815290604052907bffffffffffffffffffffffffffffffffffffffffffffffffffffffff19166020820180517bffffffffffffffffffffffffffffffffffffffffffffffffffffffff83818316178352505050506131aa565b50505050565b60008060009054906101000a900473ffffffffffffffffffffffffffffffffffffffff169050816000806101000a81548173ffffffffffffffffffffffffffffffffffffffff021916908373ffffffffffffffffffffffffffffffffffffffff1602179055508173ffffffffffffffffffffffffffffffffffffffff168173ffffffffffffffffffffffffffffffffffffffff167f8be0079c531659141344cd1fd0a4f28419497f9722a3daafe3b4186f6b6457e060405160405180910390a35050565b606060006002811115612f7057612f6f614178565b5b826002811115612f8357612f82614178565b5b03612fc5576040518060400160405280600681526020017f414354495645000000000000000000000000000000000000000000000000000081525090506130cf565b60016002811115612fd957612fd8614178565b5b826002811115612fec57612feb614178565b5b0361302e576040518060400160405280600881526020017f4d4f44494649454400000000000000000000000000000000000000000000000081525090506130cf565b60028081111561304157613040614178565b5b82600281111561305457613053614178565b5b03613096576040518060400160405280600781526020017f44454c455445440000000000000000000000000000000000000000000000000081525090506130cf565b6040518060400160405280600781526020017f554e4b4e4f574e0000000000000000000000000000000000000000000000000081525090505b919050565b6060600060016130e384613271565b01905060008167ffffffffffffffff81111561310257613101613694565b5b6040519080825280601f01601f1916602001820160405280156131345781602001600182028036833780820191505090505b509050600082602001820190505b600115613197578080600190039150507f3031323334353637383961626364656600000000000000000000000000000000600a86061a8153600a858161318b5761318a614d8e565b5b04945060008503613142575b819350505050919050565b600033905090565b600061320c826040518060400160405280602081526020017f5361666545524332303a206c6f772d6c6576656c2063616c6c206661696c65648152508573ffffffffffffffffffffffffffffffffffffffff166133c49092919063ffffffff16565b905060008151111561326c578080602001905181019061322c9190614de9565b61326b576040517f08c379a000000000000000000000000000000000000000000000000000000000815260040161326290614e88565b60405180910390fd5b5b505050565b600080600090507a184f03e93ff9f4daa797ed6e38ed64bf6a1f01000000000000000083106132cf577a184f03e93ff9f4daa797ed6e38ed64bf6a1f01000000000000000083816132c5576132c4614d8e565b5b0492506040810190505b6d04ee2d6d415b85acef8100000000831061330c576d04ee2d6d415b85acef8100000000838161330257613301614d8e565b5b0492506020810190505b662386f26fc10000831061333b57662386f26fc10000838161333157613330614d8e565b5b0492506010810190505b6305f5e1008310613364576305f5e100838161335a57613359614d8e565b5b0492506008810190505b612710831061338957612710838161337f5761337e614d8e565b5b0492506004810190505b606483106133ac57606483816133a2576133a1614d8e565b5b0492506002810190505b600a83106133bb576001810190505b80915050919050565b60606133d384846000856133dc565b90509392505050565b606082471015613421576040517f08c379a000000000000000000000000000000000000000000000000000000000815260040161341890614f1a565b60405180910390fd5b6000808673ffffffffffffffffffffffffffffffffffffffff16858760405161344a9190614f81565b60006040518083038185875af1925050503d8060008114613487576040519150601f19603f3d011682016040523d82523d6000602084013e61348c565b606091505b509150915061349d878383876134a9565b92505050949350505050565b6060831561350b576000835103613503576134c38561351e565b613502576040517f08c379a00000000000000000000000000000000000000000000000000000000081526004016134f990614fe4565b60405180910390fd5b5b829050613516565b6135158383613541565b5b949350505050565b6000808273ffffffffffffffffffffffffffffffffffffffff163b119050919050565b6000825111156135545781518083602001fd5b806040517f08c379a00000000000000000000000000000000000000000000000000000000081526004016135889190614b62565b60405180910390fd5b6000604051905090565b600080fd5b600080fd5b600073ffffffffffffffffffffffffffffffffffffffff82169050919050565b60006135d0826135a5565b9050919050565b6135e0816135c5565b81146135eb57600080fd5b50565b6000813590506135fd816135d7565b92915050565b6000806040838503121561361a5761361961359b565b5b6000613628858286016135ee565b9250506020613639858286016135ee565b9150509250929050565b60008115159050919050565b61365881613643565b82525050565b6000602082019050613673600083018461364f565b92915050565b600080fd5b600080fd5b6000601f19601f8301169050919050565b7f4e487b7100000000000000000000000000000000000000000000000000000000600052604160045260246000fd5b6136cc82613683565b810181811067ffffffffffffffff821117156136eb576136ea613694565b5b80604052505050565b60006136fe613591565b905061370a82826136c3565b919050565b600067ffffffffffffffff82111561372a57613729613694565b5b61373382613683565b9050602081019050919050565b82818337600083830152505050565b600061376261375d8461370f565b6136f4565b90508281526020810184848401111561377e5761377d61367e565b5b613789848285613740565b509392505050565b600082601f8301126137a6576137a5613679565b5b81356137b684826020860161374f565b91505092915050565b600060ff82169050919050565b6137d5816137bf565b81146137e057600080fd5b50565b6000813590506137f2816137cc565b92915050565b6000806000606084860312156138115761381061359b565b5b600061381f868287016135ee565b935050602084013567ffffffffffffffff8111156138405761383f6135a0565b5b61384c86828701613791565b925050604061385d868287016137e3565b9150509250925092565b600080600080600060a086880312156138835761388261359b565b5b6000613891888289016135ee565b95505060206138a2888289016135ee565b945050604086013567ffffffffffffffff8111156138c3576138c26135a0565b5b6138cf88828901613791565b93505060606138e0888289016137e3565b925050608086013567ffffffffffffffff811115613901576139006135a0565b5b61390d88828901613791565b9150509295509295909350565b6000819050919050565b61392d8161391a565b811461393857600080fd5b50565b60008135905061394a81613924565b92915050565b600080604083850312156139675761396661359b565b5b6000613975858286016135ee565b92505060206139868582860161393b565b9150509250929050565b6000602082840312156139a6576139a561359b565b5b60006139b4848285016135ee565b91505092915050565b600081519050919050565b600082825260208201905092915050565b6000819050602082019050919050565b6139f28161391a565b82525050565b6000613a0483836139e9565b60208301905092915050565b6000602082019050919050565b6000613a28826139bd565b613a3281856139c8565b9350613a3d836139d9565b8060005b83811015613a6e578151613a5588826139f8565b9750613a6083613a10565b925050600181019050613a41565b5085935050505092915050565b60006020820190508181036000830152613a958184613a1d565b905092915050565b600081519050919050565b600082825260208201905092915050565b60005b83811015613ad7578082015181840152602081019050613abc565b60008484015250505050565b6000613aee82613a9d565b613af88185613aa8565b9350613b08818560208601613ab9565b613b1181613683565b840191505092915050565b613b25816137bf565b82525050565b60006060820190508181036000830152613b458186613ae3565b9050613b546020830185613b1c565b8181036040830152613b668184613ae3565b9050949350505050565b613b79816135c5565b82525050565b6000602082019050613b946000830184613b70565b92915050565b60008060408385031215613bb157613bb061359b565b5b6000613bbf8582860161393b565b9250506020613bd08582860161393b565b9150509250929050565b600081519050919050565b600082825260208201905092915050565b6000819050602082019050919050565b600082825260208201905092915050565b6000613c2282613a9d565b613c2c8185613c06565b9350613c3c818560208601613ab9565b613c4581613683565b840191505092915050565b6000613c5c8383613c17565b905092915050565b6000602082019050919050565b6000613c7c82613bda565b613c868185613be5565b935083602082028501613c9885613bf6565b8060005b85811015613cd45784840389528151613cb58582613c50565b9450613cc083613c64565b925060208a01995050600181019050613c9c565b50829750879550505050505092915050565b600081519050919050565b600082825260208201905092915050565b6000819050602082019050919050565b613d1b816137bf565b82525050565b6000613d2d8383613d12565b60208301905092915050565b6000602082019050919050565b6000613d5182613ce6565b613d5b8185613cf1565b9350613d6683613d02565b8060005b83811015613d97578151613d7e8882613d21565b9750613d8983613d39565b925050600181019050613d6a565b5085935050505092915050565b600081519050919050565b600082825260208201905092915050565b6000819050602082019050919050565b613dd9816135c5565b82525050565b6000613deb8383613dd0565b60208301905092915050565b6000602082019050919050565b6000613e0f82613da4565b613e198185613daf565b9350613e2483613dc0565b8060005b83811015613e55578151613e3c8882613ddf565b9750613e4783613df7565b925050600181019050613e28565b5085935050505092915050565b60006080820190508181036000830152613e7c8187613c71565b90508181036020830152613e908186613d46565b90508181036040830152613ea48185613c71565b90508181036060830152613eb88184613e04565b905095945050505050565b600080600060608486031215613edc57613edb61359b565b5b6000613eea8682870161393b565b9350506020613efb8682870161393b565b9250506040613f0c868287016135ee565b9150509250925092565b60006060820190508181036000830152613f308186613c71565b90508181036020830152613f448185613d46565b90508181036040830152613f588184613c71565b9050949350505050565b7f596f752063616e277420646f207468697320616374696f6e20746f20796f757260008201527f73656c662050616c210000000000000000000000000000000000000000000000602082015250565b6000613fbe602983613aa8565b9150613fc982613f62565b604082019050919050565b60006020820190508181036000830152613fed81613fb1565b9050919050565b7f596f7520646f6e7420686176652061207472616e736c616374696f6e2066726f60008201527f6d20796f7572206164647265737320746f207468697320616464726573730000602082015250565b6000614050603e83613aa8565b915061405b82613ff4565b604082019050919050565b6000602082019050818103600083015261407f81614043565b9050919050565b7f4572726f722c207374617273206d75737420626520612076616c75652062657460008201527f7765656e203020616e6420350000000000000000000000000000000000000000602082015250565b60006140e2602c83613aa8565b91506140ed82614086565b604082019050919050565b60006020820190508181036000830152614111816140d5565b9050919050565b7f4e487b7100000000000000000000000000000000000000000000000000000000600052602260045260246000fd5b6000600282049050600182168061415f57607f821691505b60208210810361417257614171614118565b5b50919050565b7f4e487b7100000000000000000000000000000000000000000000000000000000600052602160045260246000fd5b60008190508160005260206000209050919050565b60006020601f8301049050919050565b600082821b905092915050565b6000600883026142097fffffffffffffffffffffffffffffffffffffffffffffffffffffffffffffffff826141cc565b61421386836141cc565b95508019841693508086168417925050509392505050565b6000819050919050565b600061425061424b6142468461391a565b61422b565b61391a565b9050919050565b6000819050919050565b61426a83614235565b61427e61427682614257565b8484546141d9565b825550505050565b600090565b614293614286565b61429e818484614261565b505050565b5b818110156142c2576142b760008261428b565b6001810190506142a4565b5050565b601f821115614307576142d8816141a7565b6142e1846141bc565b810160208510156142f0578190505b6143046142fc856141bc565b8301826142a3565b50505b505050565b600082821c905092915050565b600061432a6000198460080261430c565b1980831691505092915050565b60006143438383614319565b9150826002028217905092915050565b61435c82613a9d565b67ffffffffffffffff81111561437557614374613694565b5b61437f8254614147565b61438a8282856142c6565b600060209050601f8311600181146143bd57600084156143ab578287015190505b6143b58582614337565b86555061441d565b601f1984166143cb866141a7565b60005b828110156143f3578489015182556001820191506020850194506020810190506143ce565b86831015614410578489015161440c601f891682614319565b8355505b6001600288020188555050505b505050505050565b600081905092915050565b600061443b82613a9d565b6144458185614425565b9350614455818560208601613ab9565b80840191505092915050565b600061446d8284614430565b915081905092915050565b7f4143544956450000000000000000000000000000000000000000000000000000600082015250565b60006144ae600683614425565b91506144b982614478565b600682019050919050565b60006144cf826144a1565b9150819050919050565b7f4d4f444946494544000000000000000000000000000000000000000000000000600082015250565b600061450f600883614425565b915061451a826144d9565b600882019050919050565b600061453082614502565b9150819050919050565b7f44454c4554454400000000000000000000000000000000000000000000000000600082015250565b6000614570600783614425565b915061457b8261453a565b600782019050919050565b600061459182614563565b9150819050919050565b7f496e76616c696420737461746500000000000000000000000000000000000000600082015250565b60006145d1600d83613aa8565b91506145dc8261459b565b602082019050919050565b60006020820190508181036000830152614600816145c4565b9050919050565b600060408201905061461c6000830185613b70565b6146296020830184613b70565b9392505050565b60008151905061463f81613924565b92915050565b60006020828403121561465b5761465a61359b565b5b600061466984828501614630565b91505092915050565b7f4572726f72207769746820746f6b656e20616c6c6f77616e6365000000000000600082015250565b60006146a8601a83613aa8565b91506146b382614672565b602082019050919050565b600060208201905081810360008301526146d78161469b565b9050919050565b7f5468697320636f6d70616e7920686173206e6f7420726563656976656420616e60008201527f7920726576696577732c2063616e6e6f742063616c63756c617465206176657260208201527f6167652073746172730000000000000000000000000000000000000000000000604082015250565b6000614760604983613aa8565b915061476b826146de565b606082019050919050565b6000602082019050818103600083015261478f81614753565b9050919050565b7f4e487b7100000000000000000000000000000000000000000000000000000000600052603260045260246000fd5b7f4e487b7100000000000000000000000000000000000000000000000000000000600052601160045260246000fd5b60006147ff8261391a565b91507fffffffffffffffffffffffffffffffffffffffffffffffffffffffffffffffff8203614831576148306147c5565b5b600182019050919050565b7f596f752068617665206e6f742072656c656173656420616e792072657669657760008201527f7320746f20746869732061646472657373000000000000000000000000000000602082015250565b6000614898603183613aa8565b91506148a38261483c565b604082019050919050565b600060208201905081810360008301526148c78161488b565b9050919050565b7f596f752068617665206e6f742072656c656173656420616e792072657669657760008201527f7300000000000000000000000000000000000000000000000000000000000000602082015250565b600061492a602183613aa8565b9150614935826148ce565b604082019050919050565b600060208201905081810360008301526149598161491d565b9050919050565b600061496b8261391a565b91506000820361497e5761497d6147c5565b5b600182039050919050565b7f5374617274206d757374206265206c657373207468616e20746865206c656e6760008201527f7468206f66207468652061727261790000000000000000000000000000000000602082015250565b60006149e5602f83613aa8565b91506149f082614989565b604082019050919050565b60006020820190508181036000830152614a14816149d8565b9050919050565b7f5374617274206e756d626572206d757374206265206c657373207468616e206560008201527f6e64000000000000000000000000000000000000000000000000000000000000602082015250565b6000614a77602283613aa8565b9150614a8282614a1b565b604082019050919050565b60006020820190508181036000830152614aa681614a6a565b9050919050565b6000614ab88261391a565b9150614ac38361391a565b9250828203905081811115614adb57614ada6147c5565b5b92915050565b7f596f752063616e20676574206d61782000000000000000000000000000000000815250565b7f2072657669657773207065722063616c6c000000000000000000000000000000815250565b6000614b3882614ae1565b601082019150614b488284614430565b9150614b5382614b07565b60118201915081905092915050565b60006020820190508181036000830152614b7c8184613ae3565b905092915050565b6000614b8f8261391a565b9150614b9a8361391a565b9250828201905080821115614bb257614bb16147c5565b5b92915050565b7f5468697320636f6d70616e792068617665206e6f74207265636569766564206160008201527f6e79207265766965777300000000000000000000000000000000000000000000602082015250565b6000614c14602a83613aa8565b9150614c1f82614bb8565b604082019050919050565b60006020820190508181036000830152614c4381614c07565b9050919050565b7f4f776e61626c653a206e6577206f776e657220697320746865207a65726f206160008201527f6464726573730000000000000000000000000000000000000000000000000000602082015250565b6000614ca6602683613aa8565b9150614cb182614c4a565b604082019050919050565b60006020820190508181036000830152614cd581614c99565b9050919050565b7f4f776e61626c653a2063616c6c6572206973206e6f7420746865206f776e6572600082015250565b6000614d12602083613aa8565b9150614d1d82614cdc565b602082019050919050565b60006020820190508181036000830152614d4181614d05565b9050919050565b614d518161391a565b82525050565b6000606082019050614d6c6000830186613b70565b614d796020830185613b70565b614d866040830184614d48565b949350505050565b7f4e487b7100000000000000000000000000000000000000000000000000000000600052601260045260246000fd5b614dc681613643565b8114614dd157600080fd5b50565b600081519050614de381614dbd565b92915050565b600060208284031215614dff57614dfe61359b565b5b6000614e0d84828501614dd4565b91505092915050565b7f5361666545524332303a204552433230206f7065726174696f6e20646964206e60008201527f6f74207375636365656400000000000000000000000000000000000000000000602082015250565b6000614e72602a83613aa8565b9150614e7d82614e16565b604082019050919050565b60006020820190508181036000830152614ea181614e65565b9050919050565b7f416464726573733a20696e73756666696369656e742062616c616e636520666f60008201527f722063616c6c0000000000000000000000000000000000000000000000000000602082015250565b6000614f04602683613aa8565b9150614f0f82614ea8565b604082019050919050565b60006020820190508181036000830152614f3381614ef7565b9050919050565b600081519050919050565b600081905092915050565b6000614f5b82614f3a565b614f658185614f45565b9350614f75818560208601613ab9565b80840191505092915050565b6000614f8d8284614f50565b915081905092915050565b7f416464726573733a2063616c6c20746f206e6f6e2d636f6e7472616374000000600082015250565b6000614fce601d83613aa8565b9150614fd982614f98565b602082019050919050565b60006020820190508181036000830152614ffd81614fc1565b905091905056fea26469706673582212200c5e150af51c0aa8e0de00cfcf732750c22f35cb98fbf68eb54fa2f3b172d2a064736f6c63430008130033",
  "immutableReferences": {},
  "source": "// SPDX-License-Identifier: UNLICENSED\r\npragma solidity ^0.8.17;\r\n\r\nimport \"@openzeppelin/contracts/token/ERC20/IERC20.sol\";\r\nimport \"@openzeppelin/contracts/token/ERC20/utils/SafeERC20.sol\";\r\nimport \"@openzeppelin/contracts/utils/Strings.sol\";\r\nimport \"@openzeppelin/contracts/access/Ownable.sol\";\r\n\r\ncontract Trustify is Ownable {\r\n    using SafeERC20 for IERC20;\r\n\r\n    enum ReviewState {\r\n        ACTIVE,\r\n        MODIFIED,\r\n        DELETED\r\n    }\r\n\r\n    struct Review {\r\n        string text;\r\n        uint8 stars;\r\n        bool havePayed;\r\n        ReviewState state;\r\n    }\r\n\r\n    struct Company {\r\n        address[] allCustomerAddress; //tiene tutti gli address degli utenti che hanno fatto una review a questa azienda (serve per la funzione che restituisce tutte le review di un'azienda)\r\n        mapping(address => Review) reviewMap; //map con address di ogni utente e la review che ha fatto a questa azienda\r\n    }\r\n\r\n    struct Customer {\r\n        address[] allCompanyAddress; //tiene tutti gli address delle aziende che hanno ricevuto una review da questo utente (serve per la funzione che restituisce tutte le review di un utente)\r\n        mapping(address => Review) reviewMap; //map con address di ogni azienda/e-shop e la review che ha fatto l'utente\r\n    }\r\n\r\n    uint8 private constant MAX_REVIEW_PER_CALL = 25;\r\n    IERC20 private token;\r\n\r\n    mapping(address => Company) private companyMap; //map con address di ogni azienda/e-shop\r\n    mapping(address => Customer) private customerMap; //map con address di ogni utente\r\n\r\n    constructor(address coinAddress) {\r\n        token = IERC20(coinAddress);\r\n    }\r\n\r\n    //------------------ TRANSACTION STUFF -------------------------------------------------------------------------------\r\n\r\n    function havePayed(\r\n        address myAddress,\r\n        address companyAddress\r\n    ) public view returns (bool) {\r\n        return companyMap[companyAddress].reviewMap[myAddress].havePayed;\r\n    }\r\n\r\n    modifier checkTransaction(address companyWalletAddress) {\r\n        require(\r\n            companyMap[companyWalletAddress].reviewMap[msg.sender].havePayed,\r\n            \"You dont have a translaction from your address to this address\"\r\n        );\r\n        _;\r\n    }\r\n\r\n    modifier checkActionToYourself(address yourAddress) {\r\n        require(\r\n            yourAddress != msg.sender,\r\n            \"You can't do this action to yourself Pal!\"\r\n        );\r\n        _;\r\n    }\r\n\r\n    function depositTokens(\r\n        address addressToDeposit,\r\n        uint amount\r\n    ) public checkActionToYourself(addressToDeposit) {\r\n        require(\r\n            token.allowance(msg.sender, address(this)) >= amount,\r\n            \"Error with token allowance\"\r\n        );\r\n\r\n        if (companyMap[addressToDeposit].reviewMap[msg.sender].stars == 0) {\r\n            companyMap[addressToDeposit].reviewMap[msg.sender] = Review(\r\n                \"\",\r\n                0,\r\n                true,\r\n                ReviewState.ACTIVE\r\n            );\r\n        }\r\n        token.safeTransferFrom(msg.sender, addressToDeposit, amount);\r\n    }\r\n\r\n    //------------------ REVIEW MODIFIER STUFF ------------------------------------------------------------------------------------\r\n\r\n    function writeAReview(\r\n        address addressToReview,\r\n        string memory text,\r\n        uint8 stars\r\n    )\r\n        public\r\n        checkActionToYourself(addressToReview)\r\n        checkTransaction(addressToReview)\r\n    {\r\n        require(\r\n            stars > 0 && stars <= 5,\r\n            \"Error, stars must be a value between 0 and 5\"\r\n        );\r\n\r\n        Review memory tmpReview = companyMap[addressToReview].reviewMap[\r\n            msg.sender\r\n        ];\r\n\r\n        if (tmpReview.stars == 0 && bytes(tmpReview.text).length == 0) {\r\n            Review memory _review = Review(\r\n                text,\r\n                stars,\r\n                true,\r\n                ReviewState.ACTIVE\r\n            );\r\n            companyMap[addressToReview].reviewMap[msg.sender] = _review;\r\n            companyMap[addressToReview].allCustomerAddress.push(msg.sender);\r\n            customerMap[msg.sender].reviewMap[addressToReview] = _review;\r\n            customerMap[msg.sender].allCompanyAddress.push(addressToReview);\r\n        } else {\r\n            Review memory _review = Review(\r\n                text,\r\n                stars,\r\n                true,\r\n                ReviewState.MODIFIED\r\n            );\r\n            companyMap[addressToReview].reviewMap[msg.sender] = _review;\r\n            customerMap[msg.sender].reviewMap[addressToReview] = _review;\r\n        }\r\n    }\r\n\r\n    function deleteReview(\r\n        address reviewAddress\r\n    ) public checkActionToYourself(reviewAddress) {\r\n        companyMap[reviewAddress].reviewMap[msg.sender].state = ReviewState\r\n            .DELETED;\r\n        customerMap[msg.sender].reviewMap[reviewAddress].state = ReviewState\r\n            .DELETED;\r\n    }\r\n\r\n    function stateToString(\r\n        ReviewState state\r\n    ) private pure returns (string memory) {\r\n        if (state == ReviewState.ACTIVE) return \"ACTIVE\";\r\n        if (state == ReviewState.MODIFIED) return \"MODIFIED\";\r\n        if (state == ReviewState.DELETED) return \"DELETED\";\r\n        return \"UNKNOWN\";\r\n    }\r\n\r\n    //------------------ REVIEW GETTER STUFF ------------------------------------------------------------------------------------\r\n\r\n    function getCompanyReview(\r\n        uint start,\r\n        uint end,\r\n        address companyAddress\r\n    ) public view returns (string[] memory, uint8[] memory, string[] memory) {\r\n        uint totalLength = companyMap[companyAddress].allCustomerAddress.length;\r\n        require(totalLength > 0, \"This company have not received any reviews\");\r\n        totalLength--;\r\n        require(\r\n            start <= totalLength,\r\n            \"Start must be less than the length of the array\"\r\n        );\r\n        require(start <= end, \"Start number must be less than end\");\r\n        require(\r\n            end - start <= MAX_REVIEW_PER_CALL,\r\n            string.concat(\r\n                \"You can get max \",\r\n                Strings.toString(MAX_REVIEW_PER_CALL),\r\n                \" reviews per call\"\r\n            )\r\n        );\r\n\r\n        if (end > totalLength) {\r\n            end = totalLength;\r\n        }\r\n\r\n        uint length = end - start + 1;\r\n        string[] memory reviews = new string[](length);\r\n        uint8[] memory stars = new uint8[](length);\r\n        string[] memory state = new string[](length);\r\n\r\n        uint index = 0;\r\n        for (\r\n            uint i = totalLength - start + 1;\r\n            i >= totalLength - end + 1;\r\n            i--\r\n        ) {\r\n            Company storage company = companyMap[companyAddress];\r\n            reviews[index] = company\r\n                .reviewMap[company.allCustomerAddress[i - 1]]\r\n                .text;\r\n            stars[index] = company\r\n                .reviewMap[company.allCustomerAddress[i - 1]]\r\n                .stars;\r\n            state[index] = stateToString(\r\n                company.reviewMap[company.allCustomerAddress[i - 1]].state\r\n            );\r\n            index++;\r\n        }\r\n\r\n        return (reviews, stars, state);\r\n    }\r\n\r\n    function getSpecificReview(\r\n        address addressReviewed\r\n    ) public view returns (string memory, uint8, string memory) {\r\n        uint8 stars = companyMap[addressReviewed].reviewMap[msg.sender].stars;\r\n        require(\r\n            stars != 0,\r\n            \"You have not released any reviews to this address\"\r\n        );\r\n        string memory text = companyMap[addressReviewed]\r\n            .reviewMap[msg.sender]\r\n            .text;\r\n        string memory state = stateToString(\r\n            companyMap[addressReviewed].reviewMap[msg.sender].state\r\n        );\r\n        return (text, stars, state);\r\n    }\r\n\r\n    //This return N review of the user with [start, end] included, start start from 0\r\n    function getMyReview(\r\n        uint start,\r\n        uint end\r\n    )\r\n        public\r\n        view\r\n        returns (\r\n            string[] memory,\r\n            uint8[] memory,\r\n            string[] memory,\r\n            address[] memory\r\n        )\r\n    {\r\n        uint totalLength = customerMap[msg.sender].allCompanyAddress.length;\r\n        require(totalLength > 0, \"You have not released any reviews\");\r\n        totalLength--;\r\n        require(\r\n            start <= totalLength,\r\n            \"Start must be less than the length of the array\"\r\n        );\r\n\r\n        require(start <= end, \"Start number must be less than end\");\r\n        require(\r\n            end - start <= MAX_REVIEW_PER_CALL,\r\n            string.concat(\r\n                \"You can get max \",\r\n                Strings.toString(MAX_REVIEW_PER_CALL),\r\n                \" reviews per call\"\r\n            )\r\n        );\r\n\r\n        if (end > totalLength) {\r\n            end = totalLength;\r\n        }\r\n\r\n        uint length = end - start + 1;\r\n        string[] memory reviews = new string[](length);\r\n        uint8[] memory stars = new uint8[](length);\r\n        string[] memory state = new string[](length);\r\n        address[] memory addresses = new address[](length);\r\n\r\n        uint index = 0;\r\n        for (\r\n            uint i = totalLength - start + 1;\r\n            i >= totalLength - end + 1;\r\n            i--\r\n        ) {\r\n            Customer storage customer = customerMap[msg.sender];\r\n            reviews[index] = customer\r\n                .reviewMap[customer.allCompanyAddress[i - 1]]\r\n                .text;\r\n            stars[index] = customer\r\n                .reviewMap[customer.allCompanyAddress[i - 1]]\r\n                .stars;\r\n            state[index] = stateToString(\r\n                customer.reviewMap[customer.allCompanyAddress[i - 1]].state\r\n            );\r\n            addresses[index] = customer.allCompanyAddress[i - 1];\r\n            index++;\r\n        }\r\n        return (reviews, stars, state, addresses);\r\n    }\r\n\r\n    function getAverageStars(\r\n        address addressReviewed\r\n    ) public view returns (uint[] memory) {\r\n        uint length = companyMap[addressReviewed].allCustomerAddress.length;\r\n        require(\r\n            length != 0,\r\n            \"This company has not received any reviews, cannot calculate average stars\"\r\n        );\r\n\r\n        uint[] memory stars = new uint[](length);\r\n        for (uint i = 0; i < length; i++) {\r\n            stars[i] = companyMap[addressReviewed]\r\n                .reviewMap[companyMap[addressReviewed].allCustomerAddress[i]]\r\n                .stars;\r\n        }\r\n\r\n        return stars;\r\n    }\r\n\r\n    function forceAddReview(\r\n        address addressReviewer,\r\n        address addressReviewed,\r\n        string memory text,\r\n        uint8 stars,\r\n        string memory state\r\n    ) public onlyOwner {\r\n        ReviewState _state = ReviewState.ACTIVE;\r\n        if (\r\n            keccak256(abi.encodePacked(\"ACTIVE\")) ==\r\n            keccak256(abi.encodePacked(state))\r\n        ) {\r\n            _state = ReviewState.ACTIVE;\r\n        } else if (\r\n            keccak256(abi.encodePacked(\"MODIFIED\")) ==\r\n            keccak256(abi.encodePacked(state))\r\n        ) {\r\n            _state = ReviewState.MODIFIED;\r\n        } else if (\r\n            keccak256(abi.encodePacked(\"DELETED\")) ==\r\n            keccak256(abi.encodePacked(state))\r\n        ) {\r\n            _state = ReviewState.DELETED;\r\n        } else {\r\n            revert(\"Invalid state\");\r\n        }\r\n\r\n        Review memory tmpReview = companyMap[addressReviewed].reviewMap[\r\n            addressReviewer\r\n        ];\r\n\r\n        if (tmpReview.stars == 0 && bytes(tmpReview.text).length == 0) {\r\n            Review memory _review = Review(text, stars, true, _state);\r\n            companyMap[addressReviewed].reviewMap[addressReviewer] = _review;\r\n            companyMap[addressReviewed].allCustomerAddress.push(\r\n                addressReviewer\r\n            );\r\n            customerMap[addressReviewer].reviewMap[addressReviewed] = _review;\r\n            customerMap[addressReviewer].allCompanyAddress.push(\r\n                addressReviewed\r\n            );\r\n        } else {\r\n            Review memory _review = Review(text, stars, true, _state);\r\n            companyMap[addressReviewed].reviewMap[addressReviewer] = _review;\r\n            customerMap[addressReviewer].reviewMap[addressReviewed] = _review;\r\n        }\r\n    }\r\n}\r\n",
  "sourcePath": "C:\\Users\\Nicola\\Desktop\\Git-Repositories\\Trustify-webapp\\Trustify-backend\\Trustify\\contracts\\Trustify.sol",
  "compiler": {
    "name": "solc",
    "version": "0.8.19+commit.7dd6d404.Emscripten.clang"
  },
  "schemaVersion": "3.4.8",
  "updatedAt": "2023-05-23T19:30:44.325Z",
  "devdoc": {
    "kind": "dev",
    "methods": {
      "owner()": {
        "details": "Returns the address of the current owner."
      },
      "renounceOwnership()": {
        "details": "Leaves the contract without owner. It will not be possible to call `onlyOwner` functions anymore. Can only be called by the current owner. NOTE: Renouncing ownership will leave the contract without an owner, thereby removing any functionality that is only available to the owner."
      },
      "transferOwnership(address)": {
        "details": "Transfers ownership of the contract to a new account (`newOwner`). Can only be called by the current owner."
      }
    },
    "version": 1
  },
  "userdoc": {
    "kind": "user",
    "methods": {},
    "version": 1
  }
}