{
  "contractName": "Trustify",
  "abi": [
    {
      "inputs": [
        {
          "internalType": "address",
          "name": "coinAddress",
          "type": "address"
        }
      ],
      "stateMutability": "nonpayable",
      "type": "constructor"
    },
    {
      "inputs": [
        {
          "internalType": "address",
          "name": "addressToDeposit",
          "type": "address"
        },
        {
          "internalType": "uint256",
          "name": "_amount",
          "type": "uint256"
        }
      ],
      "name": "DepositTokens",
      "outputs": [],
      "stateMutability": "nonpayable",
      "type": "function"
    },
    {
      "inputs": [
        {
          "internalType": "address",
          "name": "addressToReview",
          "type": "address"
        },
        {
          "internalType": "string",
          "name": "text",
          "type": "string"
        },
        {
          "internalType": "uint8",
          "name": "stars",
          "type": "uint8"
        }
      ],
      "name": "WriteAReview",
      "outputs": [],
      "stateMutability": "nonpayable",
      "type": "function"
    },
    {
      "inputs": [
        {
          "internalType": "address",
          "name": "reviewAddress",
          "type": "address"
        }
      ],
      "name": "DeleteReview",
      "outputs": [],
      "stateMutability": "nonpayable",
      "type": "function"
    },
    {
      "inputs": [
        {
          "internalType": "uint256",
          "name": "start",
          "type": "uint256"
        },
        {
          "internalType": "uint256",
          "name": "end",
          "type": "uint256"
        },
        {
          "internalType": "address",
          "name": "companyAddress",
          "type": "address"
        }
      ],
      "name": "GetNCompanyReview",
      "outputs": [
        {
          "internalType": "string[]",
          "name": "",
          "type": "string[]"
        },
        {
          "internalType": "uint8[]",
          "name": "",
          "type": "uint8[]"
        },
        {
          "internalType": "string[]",
          "name": "",
          "type": "string[]"
        }
      ],
      "stateMutability": "view",
      "type": "function"
    },
    {
      "inputs": [
        {
          "internalType": "address",
          "name": "addressReviewed",
          "type": "address"
        }
      ],
      "name": "GetSpecificReview",
      "outputs": [
        {
          "internalType": "string",
          "name": "",
          "type": "string"
        },
        {
          "internalType": "uint8",
          "name": "",
          "type": "uint8"
        },
        {
          "internalType": "string",
          "name": "",
          "type": "string"
        }
      ],
      "stateMutability": "view",
      "type": "function"
    },
    {
      "inputs": [
        {
          "internalType": "uint256",
          "name": "start",
          "type": "uint256"
        },
        {
          "internalType": "uint256",
          "name": "end",
          "type": "uint256"
        }
      ],
      "name": "GetNMyReview",
      "outputs": [
        {
          "internalType": "string[]",
          "name": "",
          "type": "string[]"
        },
        {
          "internalType": "uint8[]",
          "name": "",
          "type": "uint8[]"
        },
        {
          "internalType": "address[]",
          "name": "",
          "type": "address[]"
        },
        {
          "internalType": "string[]",
          "name": "",
          "type": "string[]"
        }
      ],
      "stateMutability": "view",
      "type": "function"
    },
    {
      "inputs": [
        {
          "internalType": "address",
          "name": "addressReviewed",
          "type": "address"
        }
      ],
      "name": "GetAverageStars",
      "outputs": [
        {
          "internalType": "uint256[]",
          "name": "",
          "type": "uint256[]"
        }
      ],
      "stateMutability": "view",
      "type": "function"
    }
  ],
  "bytecode": "0x60806040523480156200001157600080fd5b5060405162003bbd38038062003bbd8339818101604052810190620000379190620000e8565b806000806101000a81548173ffffffffffffffffffffffffffffffffffffffff021916908373ffffffffffffffffffffffffffffffffffffffff160217905550506200011a565b600080fd5b600073ffffffffffffffffffffffffffffffffffffffff82169050919050565b6000620000b08262000083565b9050919050565b620000c281620000a3565b8114620000ce57600080fd5b50565b600081519050620000e281620000b7565b92915050565b6000602082840312156200010157620001006200007e565b5b60006200011184828501620000d1565b91505092915050565b613a93806200012a6000396000f3fe608060405234801561001057600080fd5b506004361061007d5760003560e01c8063932dd7b21161005b578063932dd7b214610103578063bba27d9114610135578063e3a6e26d14610151578063fd687f4f1461016d5761007d565b80631fc44b19146100825780632251c7151461009e5780634f1d5bce146100d1575b600080fd5b61009c60048036038101906100979190612524565b61019d565b005b6100b860048036038101906100b39190612587565b6102f5565b6040516100c894939291906128a2565b60405180910390f35b6100eb60048036038101906100e69190612903565b6109e9565b6040516100fa93929190612956565b60405180910390f35b61011d60048036038101906101189190612524565b610ff1565b60405161012c939291906129fb565b60405180910390f35b61014f600480360381019061014a9190612ba1565b61128f565b005b61016b60048036038101906101669190612c10565b611b62565b005b61018760048036038101906101829190612524565b611de6565b6040516101949190612d0e565b60405180910390f35b6002600160008373ffffffffffffffffffffffffffffffffffffffff1673ffffffffffffffffffffffffffffffffffffffff16815260200190815260200160002060010160003373ffffffffffffffffffffffffffffffffffffffff1673ffffffffffffffffffffffffffffffffffffffff16815260200190815260200160002060010160026101000a81548160ff0219169083600281111561024357610242612d30565b5b021790555060028060003373ffffffffffffffffffffffffffffffffffffffff1673ffffffffffffffffffffffffffffffffffffffff16815260200190815260200160002060010160008373ffffffffffffffffffffffffffffffffffffffff1673ffffffffffffffffffffffffffffffffffffffff16815260200190815260200160002060010160026101000a81548160ff021916908360028111156102ed576102ec612d30565b5b021790555050565b6060806060806000600260003373ffffffffffffffffffffffffffffffffffffffff1673ffffffffffffffffffffffffffffffffffffffff16815260200190815260200160002060000180549050905060008111610388576040517f08c379a000000000000000000000000000000000000000000000000000000000815260040161037f90612dd1565b60405180910390fd5b808061039390612e20565b915050808711156103d9576040517f08c379a00000000000000000000000000000000000000000000000000000000081526004016103d090612ebb565b60405180910390fd5b8587111561041c576040517f08c379a000000000000000000000000000000000000000000000000000000000815260040161041390612f4d565b60405180910390fd5b6019878761042a9190612f6d565b111561046b576040517f08c379a000000000000000000000000000000000000000000000000000000000815260040161046290613013565b60405180910390fd5b80861115610477578095505b6000600188886104879190612f6d565b6104919190613033565b905060008167ffffffffffffffff8111156104af576104ae612a4a565b5b6040519080825280602002602001820160405280156104e257816020015b60608152602001906001900390816104cd5790505b50905060008267ffffffffffffffff81111561050157610500612a4a565b5b60405190808252806020026020018201604052801561052f5781602001602082028036833780820191505090505b50905060008367ffffffffffffffff81111561054e5761054d612a4a565b5b60405190808252806020026020018201604052801561057c5781602001602082028036833780820191505090505b50905060008467ffffffffffffffff81111561059b5761059a612a4a565b5b6040519080825280602002602001820160405280156105ce57816020015b60608152602001906001900390816105b95790505b50905060008060018e896105e29190612f6d565b6105ec9190613033565b90505b60018d896105fd9190612f6d565b6106079190613033565b81106109cc576000600260003373ffffffffffffffffffffffffffffffffffffffff1673ffffffffffffffffffffffffffffffffffffffff1681526020019081526020016000209050806001016000826000016001856106679190612f6d565b8154811061067857610677613067565b5b9060005260206000200160009054906101000a900473ffffffffffffffffffffffffffffffffffffffff1673ffffffffffffffffffffffffffffffffffffffff1673ffffffffffffffffffffffffffffffffffffffff16815260200190815260200160002060000180546106eb906130c5565b80601f0160208091040260200160405190810160405280929190818152602001828054610717906130c5565b80156107645780601f1061073957610100808354040283529160200191610764565b820191906000526020600020905b81548152906001019060200180831161074757829003601f168201915b505050505087848151811061077c5761077b613067565b5b60200260200101819052508060010160008260000160018561079e9190612f6d565b815481106107af576107ae613067565b5b9060005260206000200160009054906101000a900473ffffffffffffffffffffffffffffffffffffffff1673ffffffffffffffffffffffffffffffffffffffff1673ffffffffffffffffffffffffffffffffffffffff16815260200190815260200160002060010160009054906101000a900460ff1686848151811061083857610837613067565b5b602002602001019060ff16908160ff16815250508060000160018361085d9190612f6d565b8154811061086e5761086d613067565b5b9060005260206000200160009054906101000a900473ffffffffffffffffffffffffffffffffffffffff168584815181106108ac576108ab613067565b5b602002602001019073ffffffffffffffffffffffffffffffffffffffff16908173ffffffffffffffffffffffffffffffffffffffff168152505061098c816001016000836000016001866109009190612f6d565b8154811061091157610910613067565b5b9060005260206000200160009054906101000a900473ffffffffffffffffffffffffffffffffffffffff1673ffffffffffffffffffffffffffffffffffffffff1673ffffffffffffffffffffffffffffffffffffffff16815260200190815260200160002060010160029054906101000a900460ff1661201b565b84848151811061099f5761099e613067565b5b602002602001018190525082806109b5906130f6565b9350505080806109c490612e20565b9150506105ef565b50848484849a509a509a509a505050505050505092959194509250565b60608060606000600160008673ffffffffffffffffffffffffffffffffffffffff1673ffffffffffffffffffffffffffffffffffffffff16815260200190815260200160002060000180549050905060008111610a7b576040517f08c379a0000000000000000000000000000000000000000000000000000000008152600401610a72906131b0565b60405180910390fd5b8080610a8690612e20565b91505080871115610acc576040517f08c379a0000000000000000000000000000000000000000000000000000000008152600401610ac390612ebb565b60405180910390fd5b85871115610b0f576040517f08c379a0000000000000000000000000000000000000000000000000000000008152600401610b0690612f4d565b60405180910390fd5b60198787610b1d9190612f6d565b1115610b5e576040517f08c379a0000000000000000000000000000000000000000000000000000000008152600401610b5590613013565b60405180910390fd5b80861115610b6a578095505b600060018888610b7a9190612f6d565b610b849190613033565b905060008167ffffffffffffffff811115610ba257610ba1612a4a565b5b604051908082528060200260200182016040528015610bd557816020015b6060815260200190600190039081610bc05790505b50905060008267ffffffffffffffff811115610bf457610bf3612a4a565b5b604051908082528060200260200182016040528015610c225781602001602082028036833780820191505090505b50905060008367ffffffffffffffff811115610c4157610c40612a4a565b5b604051908082528060200260200182016040528015610c7457816020015b6060815260200190600190039081610c5f5790505b50905060008060018d88610c889190612f6d565b610c929190613033565b90505b60018c88610ca39190612f6d565b610cad9190613033565b8110610fd8576000600160008d73ffffffffffffffffffffffffffffffffffffffff1673ffffffffffffffffffffffffffffffffffffffff168152602001908152602001600020905080600101600082600001600185610d0d9190612f6d565b81548110610d1e57610d1d613067565b5b9060005260206000200160009054906101000a900473ffffffffffffffffffffffffffffffffffffffff1673ffffffffffffffffffffffffffffffffffffffff1673ffffffffffffffffffffffffffffffffffffffff1681526020019081526020016000206000018054610d91906130c5565b80601f0160208091040260200160405190810160405280929190818152602001828054610dbd906130c5565b8015610e0a5780601f10610ddf57610100808354040283529160200191610e0a565b820191906000526020600020905b815481529060010190602001808311610ded57829003601f168201915b5050505050868481518110610e2257610e21613067565b5b602002602001018190525080600101600082600001600185610e449190612f6d565b81548110610e5557610e54613067565b5b9060005260206000200160009054906101000a900473ffffffffffffffffffffffffffffffffffffffff1673ffffffffffffffffffffffffffffffffffffffff1673ffffffffffffffffffffffffffffffffffffffff16815260200190815260200160002060010160009054906101000a900460ff16858481518110610ede57610edd613067565b5b602002602001019060ff16908160ff1681525050610f9881600101600083600001600186610f0c9190612f6d565b81548110610f1d57610f1c613067565b5b9060005260206000200160009054906101000a900473ffffffffffffffffffffffffffffffffffffffff1673ffffffffffffffffffffffffffffffffffffffff1673ffffffffffffffffffffffffffffffffffffffff16815260200190815260200160002060010160029054906101000a900460ff1661201b565b848481518110610fab57610faa613067565b5b60200260200101819052508280610fc1906130f6565b935050508080610fd090612e20565b915050610c95565b5083838398509850985050505050505093509350939050565b6060600060606000600160008673ffffffffffffffffffffffffffffffffffffffff1673ffffffffffffffffffffffffffffffffffffffff16815260200190815260200160002060010160003373ffffffffffffffffffffffffffffffffffffffff1673ffffffffffffffffffffffffffffffffffffffff16815260200190815260200160002060010160009054906101000a900460ff16905060008160ff16036110d1576040517f08c379a00000000000000000000000000000000000000000000000000000000081526004016110c890613242565b60405180910390fd5b6000600160008773ffffffffffffffffffffffffffffffffffffffff1673ffffffffffffffffffffffffffffffffffffffff16815260200190815260200160002060010160003373ffffffffffffffffffffffffffffffffffffffff1673ffffffffffffffffffffffffffffffffffffffff1681526020019081526020016000206000018054611160906130c5565b80601f016020809104026020016040519081016040528092919081815260200182805461118c906130c5565b80156111d95780601f106111ae576101008083540402835291602001916111d9565b820191906000526020600020905b8154815290600101906020018083116111bc57829003601f168201915b50505050509050600061127a600160008973ffffffffffffffffffffffffffffffffffffffff1673ffffffffffffffffffffffffffffffffffffffff16815260200190815260200160002060010160003373ffffffffffffffffffffffffffffffffffffffff1673ffffffffffffffffffffffffffffffffffffffff16815260200190815260200160002060010160029054906101000a900460ff1661201b565b90508183829550955095505050509193909250565b82600160008273ffffffffffffffffffffffffffffffffffffffff1673ffffffffffffffffffffffffffffffffffffffff16815260200190815260200160002060010160003373ffffffffffffffffffffffffffffffffffffffff1673ffffffffffffffffffffffffffffffffffffffff16815260200190815260200160002060010160019054906101000a900460ff1661135f576040517f08c379a0000000000000000000000000000000000000000000000000000000008152600401611356906132d4565b60405180910390fd5b60008260ff16118015611376575060058260ff1611155b6113b5576040517f08c379a00000000000000000000000000000000000000000000000000000000081526004016113ac90613366565b60405180910390fd5b6000600160008673ffffffffffffffffffffffffffffffffffffffff1673ffffffffffffffffffffffffffffffffffffffff16815260200190815260200160002060010160003373ffffffffffffffffffffffffffffffffffffffff1673ffffffffffffffffffffffffffffffffffffffff168152602001908152602001600020604051806080016040529081600082018054611451906130c5565b80601f016020809104026020016040519081016040528092919081815260200182805461147d906130c5565b80156114ca5780601f1061149f576101008083540402835291602001916114ca565b820191906000526020600020905b8154815290600101906020018083116114ad57829003601f168201915b505050505081526020016001820160009054906101000a900460ff1660ff1660ff1681526020016001820160019054906101000a900460ff161515151581526020016001820160029054906101000a900460ff1660028111156115305761152f612d30565b5b600281111561154257611541612d30565b5b8152505090506000816020015160ff1614801561156457506000816000015151145b1561190757600060405180608001604052808681526020018560ff168152602001600115158152602001600060028111156115a2576115a1612d30565b5b815250905080600160008873ffffffffffffffffffffffffffffffffffffffff1673ffffffffffffffffffffffffffffffffffffffff16815260200190815260200160002060010160003373ffffffffffffffffffffffffffffffffffffffff1673ffffffffffffffffffffffffffffffffffffffff168152602001908152602001600020600082015181600001908161163c9190613532565b5060208201518160010160006101000a81548160ff021916908360ff16021790555060408201518160010160016101000a81548160ff02191690831515021790555060608201518160010160026101000a81548160ff021916908360028111156116a9576116a8612d30565b5b0217905550905050600160008773ffffffffffffffffffffffffffffffffffffffff1673ffffffffffffffffffffffffffffffffffffffff168152602001908152602001600020600001339080600181540180825580915050600190039060005260206000200160009091909190916101000a81548173ffffffffffffffffffffffffffffffffffffffff021916908373ffffffffffffffffffffffffffffffffffffffff16021790555080600260003373ffffffffffffffffffffffffffffffffffffffff1673ffffffffffffffffffffffffffffffffffffffff16815260200190815260200160002060010160008873ffffffffffffffffffffffffffffffffffffffff1673ffffffffffffffffffffffffffffffffffffffff16815260200190815260200160002060008201518160000190816117e99190613532565b5060208201518160010160006101000a81548160ff021916908360ff16021790555060408201518160010160016101000a81548160ff02191690831515021790555060608201518160010160026101000a81548160ff0219169083600281111561185657611855612d30565b5b0217905550905050600260003373ffffffffffffffffffffffffffffffffffffffff1673ffffffffffffffffffffffffffffffffffffffff168152602001908152602001600020600001869080600181540180825580915050600190039060005260206000200160009091909190916101000a81548173ffffffffffffffffffffffffffffffffffffffff021916908373ffffffffffffffffffffffffffffffffffffffff16021790555050611b5b565b600060405180608001604052808681526020018560ff168152602001600115158152602001600160028111156119405761193f612d30565b5b815250905080600160008873ffffffffffffffffffffffffffffffffffffffff1673ffffffffffffffffffffffffffffffffffffffff16815260200190815260200160002060010160003373ffffffffffffffffffffffffffffffffffffffff1673ffffffffffffffffffffffffffffffffffffffff16815260200190815260200160002060008201518160000190816119da9190613532565b5060208201518160010160006101000a81548160ff021916908360ff16021790555060408201518160010160016101000a81548160ff02191690831515021790555060608201518160010160026101000a81548160ff02191690836002811115611a4757611a46612d30565b5b021790555090505080600260003373ffffffffffffffffffffffffffffffffffffffff1673ffffffffffffffffffffffffffffffffffffffff16815260200190815260200160002060010160008873ffffffffffffffffffffffffffffffffffffffff1673ffffffffffffffffffffffffffffffffffffffff1681526020019081526020016000206000820151816000019081611ae49190613532565b5060208201518160010160006101000a81548160ff021916908360ff16021790555060408201518160010160016101000a81548160ff02191690831515021790555060608201518160010160026101000a81548160ff02191690836002811115611b5157611b50612d30565b5b0217905550905050505b5050505050565b808060008054906101000a900473ffffffffffffffffffffffffffffffffffffffff1673ffffffffffffffffffffffffffffffffffffffff1663dd62ed3e33306040518363ffffffff1660e01b8152600401611bbf929190613613565b602060405180830381865afa158015611bdc573d6000803e3d6000fd5b505050506040513d601f19601f82011682018060405250810190611c009190613651565b1015611c41576040517f08c379a0000000000000000000000000000000000000000000000000000000008152600401611c38906136ca565b60405180910390fd5b6040518060800160405280604051806020016040528060008152508152602001600060ff16815260200160011515815260200160006002811115611c8857611c87612d30565b5b815250600160008573ffffffffffffffffffffffffffffffffffffffff1673ffffffffffffffffffffffffffffffffffffffff16815260200190815260200160002060010160003373ffffffffffffffffffffffffffffffffffffffff1673ffffffffffffffffffffffffffffffffffffffff1681526020019081526020016000206000820151816000019081611d1f9190613532565b5060208201518160010160006101000a81548160ff021916908360ff16021790555060408201518160010160016101000a81548160ff02191690831515021790555060608201518160010160026101000a81548160ff02191690836002811115611d8c57611d8b612d30565b5b0217905550905050611de133848460008054906101000a900473ffffffffffffffffffffffffffffffffffffffff1673ffffffffffffffffffffffffffffffffffffffff16612195909392919063ffffffff16565b505050565b60606000600160008473ffffffffffffffffffffffffffffffffffffffff1673ffffffffffffffffffffffffffffffffffffffff16815260200190815260200160002060000180549050905060008103611e75576040517f08c379a0000000000000000000000000000000000000000000000000000000008152600401611e6c90613782565b60405180910390fd5b60008167ffffffffffffffff811115611e9157611e90612a4a565b5b604051908082528060200260200182016040528015611ebf5781602001602082028036833780820191505090505b50905060005b8281101561201057600160008673ffffffffffffffffffffffffffffffffffffffff1673ffffffffffffffffffffffffffffffffffffffff1681526020019081526020016000206001016000600160008873ffffffffffffffffffffffffffffffffffffffff1673ffffffffffffffffffffffffffffffffffffffff1681526020019081526020016000206000018381548110611f6557611f64613067565b5b9060005260206000200160009054906101000a900473ffffffffffffffffffffffffffffffffffffffff1673ffffffffffffffffffffffffffffffffffffffff1673ffffffffffffffffffffffffffffffffffffffff16815260200190815260200160002060010160009054906101000a900460ff1660ff16828281518110611ff157611ff0613067565b5b6020026020010181815250508080612008906130f6565b915050611ec5565b508092505050919050565b60606000600281111561203157612030612d30565b5b82600281111561204457612043612d30565b5b03612086576040518060400160405280600681526020017f41435449564500000000000000000000000000000000000000000000000000008152509050612190565b6001600281111561209a57612099612d30565b5b8260028111156120ad576120ac612d30565b5b036120ef576040518060400160405280600881526020017f4d4f4449464945440000000000000000000000000000000000000000000000008152509050612190565b60028081111561210257612101612d30565b5b82600281111561211557612114612d30565b5b03612157576040518060400160405280600781526020017f44454c45544544000000000000000000000000000000000000000000000000008152509050612190565b6040518060400160405280600781526020017f554e4b4e4f574e0000000000000000000000000000000000000000000000000081525090505b919050565b612218846323b872dd60e01b8585856040516024016121b6939291906137b1565b604051602081830303815290604052907bffffffffffffffffffffffffffffffffffffffffffffffffffffffff19166020820180517bffffffffffffffffffffffffffffffffffffffffffffffffffffffff838183161783525050505061221e565b50505050565b6000612280826040518060400160405280602081526020017f5361666545524332303a206c6f772d6c6576656c2063616c6c206661696c65648152508573ffffffffffffffffffffffffffffffffffffffff166122e59092919063ffffffff16565b90506000815111156122e057808060200190518101906122a09190613820565b6122df576040517f08c379a00000000000000000000000000000000000000000000000000000000081526004016122d6906138bf565b60405180910390fd5b5b505050565b60606122f484846000856122fd565b90509392505050565b606082471015612342576040517f08c379a000000000000000000000000000000000000000000000000000000000815260040161233990613951565b60405180910390fd5b6000808673ffffffffffffffffffffffffffffffffffffffff16858760405161236b91906139b8565b60006040518083038185875af1925050503d80600081146123a8576040519150601f19603f3d011682016040523d82523d6000602084013e6123ad565b606091505b50915091506123be878383876123ca565b92505050949350505050565b6060831561242c576000835103612424576123e48561243f565b612423576040517f08c379a000000000000000000000000000000000000000000000000000000000815260040161241a90613a1b565b60405180910390fd5b5b829050612437565b6124368383612462565b5b949350505050565b6000808273ffffffffffffffffffffffffffffffffffffffff163b119050919050565b6000825111156124755781518083602001fd5b806040517f08c379a00000000000000000000000000000000000000000000000000000000081526004016124a99190613a3b565b60405180910390fd5b6000604051905090565b600080fd5b600080fd5b600073ffffffffffffffffffffffffffffffffffffffff82169050919050565b60006124f1826124c6565b9050919050565b612501816124e6565b811461250c57600080fd5b50565b60008135905061251e816124f8565b92915050565b60006020828403121561253a576125396124bc565b5b60006125488482850161250f565b91505092915050565b6000819050919050565b61256481612551565b811461256f57600080fd5b50565b6000813590506125818161255b565b92915050565b6000806040838503121561259e5761259d6124bc565b5b60006125ac85828601612572565b92505060206125bd85828601612572565b9150509250929050565b600081519050919050565b600082825260208201905092915050565b6000819050602082019050919050565b600081519050919050565b600082825260208201905092915050565b60005b8381101561262d578082015181840152602081019050612612565b60008484015250505050565b6000601f19601f8301169050919050565b6000612655826125f3565b61265f81856125fe565b935061266f81856020860161260f565b61267881612639565b840191505092915050565b600061268f838361264a565b905092915050565b6000602082019050919050565b60006126af826125c7565b6126b981856125d2565b9350836020820285016126cb856125e3565b8060005b8581101561270757848403895281516126e88582612683565b94506126f383612697565b925060208a019950506001810190506126cf565b50829750879550505050505092915050565b600081519050919050565b600082825260208201905092915050565b6000819050602082019050919050565b600060ff82169050919050565b61275b81612745565b82525050565b600061276d8383612752565b60208301905092915050565b6000602082019050919050565b600061279182612719565b61279b8185612724565b93506127a683612735565b8060005b838110156127d75781516127be8882612761565b97506127c983612779565b9250506001810190506127aa565b5085935050505092915050565b600081519050919050565b600082825260208201905092915050565b6000819050602082019050919050565b612819816124e6565b82525050565b600061282b8383612810565b60208301905092915050565b6000602082019050919050565b600061284f826127e4565b61285981856127ef565b935061286483612800565b8060005b8381101561289557815161287c888261281f565b975061288783612837565b925050600181019050612868565b5085935050505092915050565b600060808201905081810360008301526128bc81876126a4565b905081810360208301526128d08186612786565b905081810360408301526128e48185612844565b905081810360608301526128f881846126a4565b905095945050505050565b60008060006060848603121561291c5761291b6124bc565b5b600061292a86828701612572565b935050602061293b86828701612572565b925050604061294c8682870161250f565b9150509250925092565b6000606082019050818103600083015261297081866126a4565b905081810360208301526129848185612786565b9050818103604083015261299881846126a4565b9050949350505050565b600082825260208201905092915050565b60006129be826125f3565b6129c881856129a2565b93506129d881856020860161260f565b6129e181612639565b840191505092915050565b6129f581612745565b82525050565b60006060820190508181036000830152612a1581866129b3565b9050612a2460208301856129ec565b8181036040830152612a3681846129b3565b9050949350505050565b600080fd5b600080fd5b7f4e487b7100000000000000000000000000000000000000000000000000000000600052604160045260246000fd5b612a8282612639565b810181811067ffffffffffffffff82111715612aa157612aa0612a4a565b5b80604052505050565b6000612ab46124b2565b9050612ac08282612a79565b919050565b600067ffffffffffffffff821115612ae057612adf612a4a565b5b612ae982612639565b9050602081019050919050565b82818337600083830152505050565b6000612b18612b1384612ac5565b612aaa565b905082815260208101848484011115612b3457612b33612a45565b5b612b3f848285612af6565b509392505050565b600082601f830112612b5c57612b5b612a40565b5b8135612b6c848260208601612b05565b91505092915050565b612b7e81612745565b8114612b8957600080fd5b50565b600081359050612b9b81612b75565b92915050565b600080600060608486031215612bba57612bb96124bc565b5b6000612bc88682870161250f565b935050602084013567ffffffffffffffff811115612be957612be86124c1565b5b612bf586828701612b47565b9250506040612c0686828701612b8c565b9150509250925092565b60008060408385031215612c2757612c266124bc565b5b6000612c358582860161250f565b9250506020612c4685828601612572565b9150509250929050565b600081519050919050565b600082825260208201905092915050565b6000819050602082019050919050565b612c8581612551565b82525050565b6000612c978383612c7c565b60208301905092915050565b6000602082019050919050565b6000612cbb82612c50565b612cc58185612c5b565b9350612cd083612c6c565b8060005b83811015612d01578151612ce88882612c8b565b9750612cf383612ca3565b925050600181019050612cd4565b5085935050505092915050565b60006020820190508181036000830152612d288184612cb0565b905092915050565b7f4e487b7100000000000000000000000000000000000000000000000000000000600052602160045260246000fd5b7f596f752068617665206e6f742072656c656173656420616e792072657669657760008201527f7300000000000000000000000000000000000000000000000000000000000000602082015250565b6000612dbb6021836129a2565b9150612dc682612d5f565b604082019050919050565b60006020820190508181036000830152612dea81612dae565b9050919050565b7f4e487b7100000000000000000000000000000000000000000000000000000000600052601160045260246000fd5b6000612e2b82612551565b915060008203612e3e57612e3d612df1565b5b600182039050919050565b7f5374617274206d757374206265206c657373207468616e20746865206c656e6760008201527f7468206f66207468652061727261790000000000000000000000000000000000602082015250565b6000612ea5602f836129a2565b9150612eb082612e49565b604082019050919050565b60006020820190508181036000830152612ed481612e98565b9050919050565b7f5374617274206e756d626572206d757374206265206c657373207468616e206560008201527f6e64000000000000000000000000000000000000000000000000000000000000602082015250565b6000612f376022836129a2565b9150612f4282612edb565b604082019050919050565b60006020820190508181036000830152612f6681612f2a565b9050919050565b6000612f7882612551565b9150612f8383612551565b9250828203905081811115612f9b57612f9a612df1565b5b92915050565b7f596f752063616e20676574206d6178203235207265766965777320706572206360008201527f616c6c0000000000000000000000000000000000000000000000000000000000602082015250565b6000612ffd6023836129a2565b915061300882612fa1565b604082019050919050565b6000602082019050818103600083015261302c81612ff0565b9050919050565b600061303e82612551565b915061304983612551565b925082820190508082111561306157613060612df1565b5b92915050565b7f4e487b7100000000000000000000000000000000000000000000000000000000600052603260045260246000fd5b7f4e487b7100000000000000000000000000000000000000000000000000000000600052602260045260246000fd5b600060028204905060018216806130dd57607f821691505b6020821081036130f0576130ef613096565b5b50919050565b600061310182612551565b91507fffffffffffffffffffffffffffffffffffffffffffffffffffffffffffffffff820361313357613132612df1565b5b600182019050919050565b7f5468697320636f6d70616e792068617665206e6f74207265636569766564206160008201527f6e79207265766965777300000000000000000000000000000000000000000000602082015250565b600061319a602a836129a2565b91506131a58261313e565b604082019050919050565b600060208201905081810360008301526131c98161318d565b9050919050565b7f596f752068617665206e6f742072656c656173656420616e792072657669657760008201527f7320746f20746869732061646472657373000000000000000000000000000000602082015250565b600061322c6031836129a2565b9150613237826131d0565b604082019050919050565b6000602082019050818103600083015261325b8161321f565b9050919050565b7f596f7520646f6e7420686176652061207472616e736c616374696f6e2066726f60008201527f6d20796f7572206164647265737320746f207468697320616464726573730000602082015250565b60006132be603e836129a2565b91506132c982613262565b604082019050919050565b600060208201905081810360008301526132ed816132b1565b9050919050565b7f4572726f722c207374617273206d75737420626520612076616c75652062657460008201527f7765656e203020616e6420350000000000000000000000000000000000000000602082015250565b6000613350602c836129a2565b915061335b826132f4565b604082019050919050565b6000602082019050818103600083015261337f81613343565b9050919050565b60008190508160005260206000209050919050565b60006020601f8301049050919050565b600082821b905092915050565b6000600883026133e87fffffffffffffffffffffffffffffffffffffffffffffffffffffffffffffffff826133ab565b6133f286836133ab565b95508019841693508086168417925050509392505050565b6000819050919050565b600061342f61342a61342584612551565b61340a565b612551565b9050919050565b6000819050919050565b61344983613414565b61345d61345582613436565b8484546133b8565b825550505050565b600090565b613472613465565b61347d818484613440565b505050565b5b818110156134a15761349660008261346a565b600181019050613483565b5050565b601f8211156134e6576134b781613386565b6134c08461339b565b810160208510156134cf578190505b6134e36134db8561339b565b830182613482565b50505b505050565b600082821c905092915050565b6000613509600019846008026134eb565b1980831691505092915050565b600061352283836134f8565b9150826002028217905092915050565b61353b826125f3565b67ffffffffffffffff81111561355457613553612a4a565b5b61355e82546130c5565b6135698282856134a5565b600060209050601f83116001811461359c576000841561358a578287015190505b6135948582613516565b8655506135fc565b601f1984166135aa86613386565b60005b828110156135d2578489015182556001820191506020850194506020810190506135ad565b868310156135ef57848901516135eb601f8916826134f8565b8355505b6001600288020188555050505b505050505050565b61360d816124e6565b82525050565b60006040820190506136286000830185613604565b6136356020830184613604565b9392505050565b60008151905061364b8161255b565b92915050565b600060208284031215613667576136666124bc565b5b60006136758482850161363c565b91505092915050565b7f4572726f72207769746820746f6b656e20616c6c6f77616e6365000000000000600082015250565b60006136b4601a836129a2565b91506136bf8261367e565b602082019050919050565b600060208201905081810360008301526136e3816136a7565b9050919050565b7f5468697320636f6d70616e7920686173206e6f7420726563656976656420616e60008201527f7920726576696577732c2063616e6e6f742063616c63756c617465206176657260208201527f6167652073746172730000000000000000000000000000000000000000000000604082015250565b600061376c6049836129a2565b9150613777826136ea565b606082019050919050565b6000602082019050818103600083015261379b8161375f565b9050919050565b6137ab81612551565b82525050565b60006060820190506137c66000830186613604565b6137d36020830185613604565b6137e060408301846137a2565b949350505050565b60008115159050919050565b6137fd816137e8565b811461380857600080fd5b50565b60008151905061381a816137f4565b92915050565b600060208284031215613836576138356124bc565b5b60006138448482850161380b565b91505092915050565b7f5361666545524332303a204552433230206f7065726174696f6e20646964206e60008201527f6f74207375636365656400000000000000000000000000000000000000000000602082015250565b60006138a9602a836129a2565b91506138b48261384d565b604082019050919050565b600060208201905081810360008301526138d88161389c565b9050919050565b7f416464726573733a20696e73756666696369656e742062616c616e636520666f60008201527f722063616c6c0000000000000000000000000000000000000000000000000000602082015250565b600061393b6026836129a2565b9150613946826138df565b604082019050919050565b6000602082019050818103600083015261396a8161392e565b9050919050565b600081519050919050565b600081905092915050565b600061399282613971565b61399c818561397c565b93506139ac81856020860161260f565b80840191505092915050565b60006139c48284613987565b915081905092915050565b7f416464726573733a2063616c6c20746f206e6f6e2d636f6e7472616374000000600082015250565b6000613a05601d836129a2565b9150613a10826139cf565b602082019050919050565b60006020820190508181036000830152613a34816139f8565b9050919050565b60006020820190508181036000830152613a5581846129b3565b90509291505056fea2646970667358221220ab4bbe3fe1942219999611d247ec57517a8f5ebf30b8621b82ded01d6836ba2464736f6c63430008130033",
  "immutableReferences": {},
  "source": "// SPDX-License-Identifier: UNLICENSED\r\npragma solidity ^0.8.17;\r\n\r\nimport \"@openzeppelin/contracts/token/ERC20/IERC20.sol\";\r\nimport \"@openzeppelin/contracts/token/ERC20/utils/SafeERC20.sol\";\r\nimport \"@openzeppelin/contracts/utils/Strings.sol\";\r\n\r\n/*\r\nPiccole note: se l'address non esiste in blockchain non si pu fare il mapping e il contratto resistuisce un errore.\r\nle map sono automaticamente inizializzate a valori di default, quindi non si pu fare il check se esiste un mapping o no, ma bisogna fare come  stato fatto sotto.\r\n*/\r\n\r\ncontract Trustify {\r\n    using SafeERC20 for IERC20;\r\n\r\n    IERC20 private token;\r\n\r\n    enum ReviewState {ACTIVE, MODIFIED, DELETED}\r\n\r\n    struct Review {\r\n        string text;\r\n        uint8 stars;\r\n        bool havePayed;\r\n        ReviewState state;\r\n    }\r\n\r\n    // MAPPING STUFF\r\n    struct Company {\r\n        address[] allCustomerAddress; //tiene tutti gli address degli utenti che hanno fatto una review a questa azienda (serve per la funzione che restituisce tutte le review di un'azienda)\r\n        mapping(address => Review) reviewMap; //map con address di ogni utente e la review che ha fatto a questa azienda\r\n    }\r\n\r\n    struct Customer {\r\n        address[] allCompanyAddress; //tiene tutti gli address delle aziende che hanno ricevuto una review da questo utente (serve per la funzione che restituisce tutte le review di un utente)\r\n        mapping(address => Review) reviewMap; //map con address di ogni azienda/e-shop e la review che ha fatto l'utente\r\n    }\r\n\r\n    mapping(address => Company) companyMap; //map con address di ogni azienda/e-shop\r\n    mapping(address => Customer) customerMap; //map con address di ogni utente\r\n\r\n    constructor(address coinAddress) {\r\n        token = IERC20(coinAddress);\r\n    }\r\n\r\n    //TRANSACTION STUFF\r\n    modifier CheckTransaction(address companyWalletAddress) {\r\n        require(\r\n            companyMap[companyWalletAddress].reviewMap[msg.sender].havePayed,\r\n            \"You dont have a translaction from your address to this address\"\r\n        );\r\n        _;\r\n    }\r\n\r\n    modifier CheckAllowance(uint amount) {\r\n        require(\r\n            token.allowance(msg.sender, address(this)) >= amount,\r\n            \"Error with token allowance\"\r\n        );\r\n        _;\r\n    }\r\n\r\n    function DepositTokens(\r\n        address addressToDeposit,\r\n        uint _amount\r\n    ) public CheckAllowance(_amount) {\r\n        companyMap[addressToDeposit].reviewMap[msg.sender] = Review(\r\n            \"\",\r\n            0,\r\n            true,\r\n            ReviewState.ACTIVE\r\n        );\r\n        token.safeTransferFrom(msg.sender, addressToDeposit, _amount);\r\n    }\r\n\r\n    //REVIEW STUFF\r\n    /*\r\n        La funzione che scrive la review si accorge se l'utente ha gi scritto una review per quella \r\n        azienda (guarda se le stelle sono a 0, valore impossibile da mettere al di fuori dal contratto),\r\n        in tal caso sovrascrive la vecchia review con la nuova, altrimenti crea una nuova review.\r\n    */\r\n    function WriteAReview(\r\n        address addressToReview,\r\n        string memory text,\r\n        uint8 stars\r\n    ) public CheckTransaction(addressToReview) {\r\n        require(\r\n            stars > 0 && stars <= 5,\r\n            \"Error, stars must be a value between 0 and 5\"\r\n        );\r\n\r\n        Review memory tmpReview = companyMap[addressToReview].reviewMap[\r\n            msg.sender\r\n        ];\r\n\r\n        if (tmpReview.stars == 0 && bytes(tmpReview.text).length == 0) {\r\n            Review memory _review = Review(text, stars, true, ReviewState.ACTIVE);\r\n            companyMap[addressToReview].reviewMap[msg.sender] = _review;\r\n            companyMap[addressToReview].allCustomerAddress.push(msg.sender);\r\n            customerMap[msg.sender].reviewMap[addressToReview] = _review;\r\n            customerMap[msg.sender].allCompanyAddress.push(addressToReview);\r\n        } else {\r\n            Review memory _review = Review(text, stars, true, ReviewState.MODIFIED);\r\n            companyMap[addressToReview].reviewMap[msg.sender] = _review;\r\n            customerMap[msg.sender].reviewMap[addressToReview] = _review;\r\n        }\r\n    }\r\n\r\n    function DeleteReview(address reviewAddress) public {\r\n        companyMap[reviewAddress].reviewMap[msg.sender].state = ReviewState.DELETED;\r\n        customerMap[msg.sender].reviewMap[reviewAddress].state = ReviewState.DELETED;\r\n    }\r\n\r\n    function StateToString(ReviewState state) private pure returns (string memory) {\r\n        if (state == ReviewState.ACTIVE) return \"ACTIVE\";\r\n        if (state == ReviewState.MODIFIED) return \"MODIFIED\";\r\n        if (state == ReviewState.DELETED) return \"DELETED\";\r\n        return \"UNKNOWN\";\r\n    }\r\n\r\n    function GetNCompanyReview(\r\n        uint start,\r\n        uint end,\r\n        address companyAddress\r\n    ) public view returns (string[] memory, uint8[] memory, string[] memory) {\r\n        uint totalLength = companyMap[companyAddress].allCustomerAddress.length;\r\n        require(totalLength > 0, \"This company have not received any reviews\");\r\n        totalLength--;\r\n        require(\r\n            start <= totalLength,\r\n            \"Start must be less than the length of the array\"\r\n        );\r\n        require(start <= end, \"Start number must be less than end\");\r\n        require(end - start <= 25, \"You can get max 25 reviews per call\");\r\n\r\n        if (end > totalLength) {\r\n            end = totalLength;\r\n        }\r\n\r\n        uint length = end - start + 1;\r\n        string[] memory reviews = new string[](length);\r\n        uint8[] memory stars = new uint8[](length);\r\n        string[] memory state = new string[](length);\r\n\r\n        uint index = 0;\r\n        for (\r\n            uint i = totalLength - start + 1;\r\n            i >= totalLength - end + 1;\r\n            i--\r\n        ) {\r\n            Company storage company = companyMap[companyAddress];\r\n            reviews[index] = company\r\n                .reviewMap[company.allCustomerAddress[i - 1]]\r\n                .text;\r\n            stars[index] = company\r\n                .reviewMap[company.allCustomerAddress[i - 1]]\r\n                .stars;\r\n            state[index] = StateToString(company.reviewMap[company.allCustomerAddress[i - 1]]\r\n                .state);\r\n            index++;\r\n        }\r\n\r\n        return (reviews, stars, state);\r\n    }\r\n\r\n    function GetSpecificReview(\r\n        address addressReviewed\r\n    ) public view returns (string memory, uint8, string memory) {\r\n        uint8 stars = companyMap[addressReviewed].reviewMap[msg.sender].stars;\r\n        require(\r\n            stars != 0,\r\n            \"You have not released any reviews to this address\"\r\n        );\r\n        string memory text = companyMap[addressReviewed]\r\n            .reviewMap[msg.sender]\r\n            .text;\r\n        string memory state = StateToString(companyMap[addressReviewed].reviewMap[msg.sender]\r\n                .state);\r\n        return (text, stars, state);\r\n    }\r\n\r\n    //This return N review of the user with [start, end] included, start start from 0\r\n    function GetNMyReview(\r\n        uint start,\r\n        uint end\r\n    ) public view returns (string[] memory, uint8[] memory, address[] memory, string[] memory) {\r\n        uint totalLength = customerMap[msg.sender].allCompanyAddress.length;\r\n        require(totalLength > 0, \"You have not released any reviews\");\r\n        totalLength--;\r\n        require(\r\n            start <= totalLength,\r\n            \"Start must be less than the length of the array\"\r\n        );\r\n\r\n        require(start <= end, \"Start number must be less than end\");\r\n        require(end - start <= 25, \"You can get max 25 reviews per call\");\r\n\r\n        if (end > totalLength) {\r\n            end = totalLength;\r\n        }\r\n\r\n        uint length = end - start + 1;\r\n        string[] memory reviews = new string[](length);\r\n        uint8[] memory stars = new uint8[](length);\r\n        address[] memory addresses = new address[](length);\r\n        string[] memory state = new string[](length);\r\n\r\n        uint index = 0;\r\n        for (\r\n            uint i = totalLength - start + 1;\r\n            i >= totalLength - end + 1;\r\n            i--\r\n        ) {\r\n            Customer storage customer = customerMap[msg.sender];\r\n            reviews[index] = customer\r\n                .reviewMap[customer.allCompanyAddress[i - 1]]\r\n                .text;\r\n            stars[index] = customer\r\n                .reviewMap[customer.allCompanyAddress[i - 1]]\r\n                .stars;\r\n            addresses[index] = customer.allCompanyAddress[i - 1];\r\n            state[index] = StateToString(customer.reviewMap[customer.allCompanyAddress[i - 1]]\r\n                .state);\r\n            index++;\r\n        }\r\n        return (reviews, stars, addresses, state);\r\n    }\r\n\r\n    function GetAverageStars(\r\n        address addressReviewed\r\n    ) public view returns (uint[] memory) {\r\n        uint length = companyMap[addressReviewed].allCustomerAddress.length;\r\n        require(\r\n            length != 0,\r\n            \"This company has not received any reviews, cannot calculate average stars\"\r\n        );\r\n\r\n        uint[] memory stars = new uint[](length);\r\n        for (uint i = 0; i < length; i++) {\r\n            stars[i] = companyMap[addressReviewed]\r\n                .reviewMap[companyMap[addressReviewed].allCustomerAddress[i]]\r\n                .stars;\r\n        }\r\n\r\n        return stars;\r\n    }\r\n}\r\n",
  "sourcePath": "C:\\Users\\Nicola\\Desktop\\github repo\\Trustify-webapp\\Trustify-backend\\Trustify\\contracts\\Trustify.sol",
  "compiler": {
    "name": "solc",
    "version": "0.8.19+commit.7dd6d404.Emscripten.clang"
  },
  "schemaVersion": "3.4.8",
  "updatedAt": "2023-04-14T14:26:54.295Z",
  "devdoc": {
    "kind": "dev",
    "methods": {},
    "version": 1
  },
  "userdoc": {
    "kind": "user",
    "methods": {},
    "version": 1
  }
}