{
  "contractName": "Trustify",
  "abi": [
    {
      "inputs": [
        {
          "internalType": "address",
          "name": "tLogicAddress",
          "type": "address"
        }
      ],
      "stateMutability": "nonpayable",
      "type": "constructor"
    },
    {
      "inputs": [
        {
          "internalType": "address",
          "name": "myAddress",
          "type": "address"
        },
        {
          "internalType": "address",
          "name": "companyAddress",
          "type": "address"
        }
      ],
      "name": "havePayed",
      "outputs": [
        {
          "internalType": "bool",
          "name": "",
          "type": "bool"
        }
      ],
      "stateMutability": "view",
      "type": "function"
    },
    {
      "inputs": [
        {
          "internalType": "address",
          "name": "addressToDeposit",
          "type": "address"
        },
        {
          "internalType": "uint256",
          "name": "amount",
          "type": "uint256"
        }
      ],
      "name": "depositTokens",
      "outputs": [],
      "stateMutability": "nonpayable",
      "type": "function"
    },
    {
      "inputs": [
        {
          "internalType": "address",
          "name": "addressToReview",
          "type": "address"
        },
        {
          "internalType": "string",
          "name": "text",
          "type": "string"
        },
        {
          "internalType": "uint8",
          "name": "stars",
          "type": "uint8"
        }
      ],
      "name": "writeAReview",
      "outputs": [],
      "stateMutability": "nonpayable",
      "type": "function"
    },
    {
      "inputs": [
        {
          "internalType": "address",
          "name": "reviewAddress",
          "type": "address"
        }
      ],
      "name": "deleteReview",
      "outputs": [],
      "stateMutability": "nonpayable",
      "type": "function"
    },
    {
      "inputs": [
        {
          "internalType": "uint256",
          "name": "start",
          "type": "uint256"
        },
        {
          "internalType": "uint256",
          "name": "end",
          "type": "uint256"
        },
        {
          "internalType": "address",
          "name": "companyAddress",
          "type": "address"
        }
      ],
      "name": "getCompanyReview",
      "outputs": [
        {
          "internalType": "string[]",
          "name": "",
          "type": "string[]"
        },
        {
          "internalType": "uint8[]",
          "name": "",
          "type": "uint8[]"
        },
        {
          "internalType": "string[]",
          "name": "",
          "type": "string[]"
        }
      ],
      "stateMutability": "view",
      "type": "function"
    },
    {
      "inputs": [
        {
          "internalType": "address",
          "name": "addressReviewed",
          "type": "address"
        }
      ],
      "name": "getSpecificReview",
      "outputs": [
        {
          "internalType": "string",
          "name": "",
          "type": "string"
        },
        {
          "internalType": "uint8",
          "name": "",
          "type": "uint8"
        },
        {
          "internalType": "string",
          "name": "",
          "type": "string"
        }
      ],
      "stateMutability": "view",
      "type": "function"
    },
    {
      "inputs": [
        {
          "internalType": "uint256",
          "name": "start",
          "type": "uint256"
        },
        {
          "internalType": "uint256",
          "name": "end",
          "type": "uint256"
        }
      ],
      "name": "getMyReview",
      "outputs": [
        {
          "internalType": "string[]",
          "name": "",
          "type": "string[]"
        },
        {
          "internalType": "uint8[]",
          "name": "",
          "type": "uint8[]"
        },
        {
          "internalType": "string[]",
          "name": "",
          "type": "string[]"
        },
        {
          "internalType": "address[]",
          "name": "",
          "type": "address[]"
        }
      ],
      "stateMutability": "view",
      "type": "function"
    }
  ],
  "bytecode": "0x60806040523480156200001157600080fd5b5060405162001636380380620016368339818101604052810190620000379190620000e8565b806000806101000a81548173ffffffffffffffffffffffffffffffffffffffff021916908373ffffffffffffffffffffffffffffffffffffffff160217905550506200011a565b600080fd5b600073ffffffffffffffffffffffffffffffffffffffff82169050919050565b6000620000b08262000083565b9050919050565b620000c281620000a3565b8114620000ce57600080fd5b50565b600081519050620000e281620000b7565b92915050565b6000602082840312156200010157620001006200007e565b5b60006200011184828501620000d1565b91505092915050565b61150c806200012a6000396000f3fe608060405234801561001057600080fd5b506004361061007d5760003560e01c8063803b43791161005b578063803b4379146100ea57806395b5d3d61461011c578063a5718aaf1461014f578063e60d82a2146101815761007d565b80631e01b6681461008257806348e31c3d146100b257806366168bd7146100ce575b600080fd5b61009c60048036038101906100979190610694565b61019d565b6040516100a991906106ef565b60405180910390f35b6100cc60048036038101906100c79190610889565b610244565b005b6100e860048036038101906100e3919061092e565b6102da565b005b61010460048036038101906100ff919061096e565b61036d565b60405161011393929190610a29565b60405180910390f35b61013660048036038101906101319190610a6e565b610421565b6040516101469493929190610d36565b60405180910390f35b61016960048036038101906101649190610d97565b6104db565b60405161017893929190610dea565b60405180910390f35b61019b6004803603810190610196919061096e565b610592565b005b60008060009054906101000a900473ffffffffffffffffffffffffffffffffffffffff1673ffffffffffffffffffffffffffffffffffffffff16631e01b66884846040518363ffffffff1660e01b81526004016101fb929190610e45565b602060405180830381865afa158015610218573d6000803e3d6000fd5b505050506040513d601f19601f8201168201806040525081019061023c9190610e9a565b905092915050565b60008054906101000a900473ffffffffffffffffffffffffffffffffffffffff1673ffffffffffffffffffffffffffffffffffffffff1663445ce1bb338585856040518563ffffffff1660e01b81526004016102a39493929190610ec7565b600060405180830381600087803b1580156102bd57600080fd5b505af11580156102d1573d6000803e3d6000fd5b50505050505050565b60008054906101000a900473ffffffffffffffffffffffffffffffffffffffff1673ffffffffffffffffffffffffffffffffffffffff166339dc5ef23384846040518463ffffffff1660e01b815260040161033793929190610f22565b600060405180830381600087803b15801561035157600080fd5b505af1158015610365573d6000803e3d6000fd5b505050505050565b60606000606060008054906101000a900473ffffffffffffffffffffffffffffffffffffffff1673ffffffffffffffffffffffffffffffffffffffff1663440f0afc33866040518363ffffffff1660e01b81526004016103ce929190610e45565b600060405180830381865afa1580156103eb573d6000803e3d6000fd5b505050506040513d6000823e3d601f19601f820116820180604052508101906104149190610fde565b9250925092509193909250565b60608060608060008054906101000a900473ffffffffffffffffffffffffffffffffffffffff1673ffffffffffffffffffffffffffffffffffffffff1663fd6267473388886040518463ffffffff1660e01b815260040161048493929190611069565b600060405180830381865afa1580156104a1573d6000803e3d6000fd5b505050506040513d6000823e3d601f19601f820116820180604052508101906104ca9190611321565b935093509350935092959194509250565b606080606060008054906101000a900473ffffffffffffffffffffffffffffffffffffffff1673ffffffffffffffffffffffffffffffffffffffff1663a5718aaf8787876040518463ffffffff1660e01b815260040161053d939291906113f8565b600060405180830381865afa15801561055a573d6000803e3d6000fd5b505050506040513d6000823e3d601f19601f82011682018060405250810190610583919061142f565b92509250925093509350939050565b60008054906101000a900473ffffffffffffffffffffffffffffffffffffffff1673ffffffffffffffffffffffffffffffffffffffff16634c6301fd33836040518363ffffffff1660e01b81526004016105ed929190610e45565b600060405180830381600087803b15801561060757600080fd5b505af115801561061b573d6000803e3d6000fd5b5050505050565b6000604051905090565b600080fd5b600080fd5b600073ffffffffffffffffffffffffffffffffffffffff82169050919050565b600061066182610636565b9050919050565b61067181610656565b811461067c57600080fd5b50565b60008135905061068e81610668565b92915050565b600080604083850312156106ab576106aa61062c565b5b60006106b98582860161067f565b92505060206106ca8582860161067f565b9150509250929050565b60008115159050919050565b6106e9816106d4565b82525050565b600060208201905061070460008301846106e0565b92915050565b600080fd5b600080fd5b6000601f19601f8301169050919050565b7f4e487b7100000000000000000000000000000000000000000000000000000000600052604160045260246000fd5b61075d82610714565b810181811067ffffffffffffffff8211171561077c5761077b610725565b5b80604052505050565b600061078f610622565b905061079b8282610754565b919050565b600067ffffffffffffffff8211156107bb576107ba610725565b5b6107c482610714565b9050602081019050919050565b82818337600083830152505050565b60006107f36107ee846107a0565b610785565b90508281526020810184848401111561080f5761080e61070f565b5b61081a8482856107d1565b509392505050565b600082601f8301126108375761083661070a565b5b81356108478482602086016107e0565b91505092915050565b600060ff82169050919050565b61086681610850565b811461087157600080fd5b50565b6000813590506108838161085d565b92915050565b6000806000606084860312156108a2576108a161062c565b5b60006108b08682870161067f565b935050602084013567ffffffffffffffff8111156108d1576108d0610631565b5b6108dd86828701610822565b92505060406108ee86828701610874565b9150509250925092565b6000819050919050565b61090b816108f8565b811461091657600080fd5b50565b60008135905061092881610902565b92915050565b600080604083850312156109455761094461062c565b5b60006109538582860161067f565b925050602061096485828601610919565b9150509250929050565b6000602082840312156109845761098361062c565b5b60006109928482850161067f565b91505092915050565b600081519050919050565b600082825260208201905092915050565b60005b838110156109d55780820151818401526020810190506109ba565b60008484015250505050565b60006109ec8261099b565b6109f681856109a6565b9350610a068185602086016109b7565b610a0f81610714565b840191505092915050565b610a2381610850565b82525050565b60006060820190508181036000830152610a4381866109e1565b9050610a526020830185610a1a565b8181036040830152610a6481846109e1565b9050949350505050565b60008060408385031215610a8557610a8461062c565b5b6000610a9385828601610919565b9250506020610aa485828601610919565b9150509250929050565b600081519050919050565b600082825260208201905092915050565b6000819050602082019050919050565b600082825260208201905092915050565b6000610af68261099b565b610b008185610ada565b9350610b108185602086016109b7565b610b1981610714565b840191505092915050565b6000610b308383610aeb565b905092915050565b6000602082019050919050565b6000610b5082610aae565b610b5a8185610ab9565b935083602082028501610b6c85610aca565b8060005b85811015610ba85784840389528151610b898582610b24565b9450610b9483610b38565b925060208a01995050600181019050610b70565b50829750879550505050505092915050565b600081519050919050565b600082825260208201905092915050565b6000819050602082019050919050565b610bef81610850565b82525050565b6000610c018383610be6565b60208301905092915050565b6000602082019050919050565b6000610c2582610bba565b610c2f8185610bc5565b9350610c3a83610bd6565b8060005b83811015610c6b578151610c528882610bf5565b9750610c5d83610c0d565b925050600181019050610c3e565b5085935050505092915050565b600081519050919050565b600082825260208201905092915050565b6000819050602082019050919050565b610cad81610656565b82525050565b6000610cbf8383610ca4565b60208301905092915050565b6000602082019050919050565b6000610ce382610c78565b610ced8185610c83565b9350610cf883610c94565b8060005b83811015610d29578151610d108882610cb3565b9750610d1b83610ccb565b925050600181019050610cfc565b5085935050505092915050565b60006080820190508181036000830152610d508187610b45565b90508181036020830152610d648186610c1a565b90508181036040830152610d788185610b45565b90508181036060830152610d8c8184610cd8565b905095945050505050565b600080600060608486031215610db057610daf61062c565b5b6000610dbe86828701610919565b9350506020610dcf86828701610919565b9250506040610de08682870161067f565b9150509250925092565b60006060820190508181036000830152610e048186610b45565b90508181036020830152610e188185610c1a565b90508181036040830152610e2c8184610b45565b9050949350505050565b610e3f81610656565b82525050565b6000604082019050610e5a6000830185610e36565b610e676020830184610e36565b9392505050565b610e77816106d4565b8114610e8257600080fd5b50565b600081519050610e9481610e6e565b92915050565b600060208284031215610eb057610eaf61062c565b5b6000610ebe84828501610e85565b91505092915050565b6000608082019050610edc6000830187610e36565b610ee96020830186610e36565b8181036040830152610efb81856109e1565b9050610f0a6060830184610a1a565b95945050505050565b610f1c816108f8565b82525050565b6000606082019050610f376000830186610e36565b610f446020830185610e36565b610f516040830184610f13565b949350505050565b6000610f6c610f67846107a0565b610785565b905082815260208101848484011115610f8857610f8761070f565b5b610f938482856109b7565b509392505050565b600082601f830112610fb057610faf61070a565b5b8151610fc0848260208601610f59565b91505092915050565b600081519050610fd88161085d565b92915050565b600080600060608486031215610ff757610ff661062c565b5b600084015167ffffffffffffffff81111561101557611014610631565b5b61102186828701610f9b565b935050602061103286828701610fc9565b925050604084015167ffffffffffffffff81111561105357611052610631565b5b61105f86828701610f9b565b9150509250925092565b600060608201905061107e6000830186610e36565b61108b6020830185610f13565b6110986040830184610f13565b949350505050565b600067ffffffffffffffff8211156110bb576110ba610725565b5b602082029050602081019050919050565b600080fd5b60006110e46110df846110a0565b610785565b90508083825260208201905060208402830185811115611107576111066110cc565b5b835b8181101561114e57805167ffffffffffffffff81111561112c5761112b61070a565b5b8086016111398982610f9b565b85526020850194505050602081019050611109565b5050509392505050565b600082601f83011261116d5761116c61070a565b5b815161117d8482602086016110d1565b91505092915050565b600067ffffffffffffffff8211156111a1576111a0610725565b5b602082029050602081019050919050565b60006111c56111c084611186565b610785565b905080838252602082019050602084028301858111156111e8576111e76110cc565b5b835b8181101561121157806111fd8882610fc9565b8452602084019350506020810190506111ea565b5050509392505050565b600082601f8301126112305761122f61070a565b5b81516112408482602086016111b2565b91505092915050565b600067ffffffffffffffff82111561126457611263610725565b5b602082029050602081019050919050565b60008151905061128481610668565b92915050565b600061129d61129884611249565b610785565b905080838252602082019050602084028301858111156112c0576112bf6110cc565b5b835b818110156112e957806112d58882611275565b8452602084019350506020810190506112c2565b5050509392505050565b600082601f8301126113085761130761070a565b5b815161131884826020860161128a565b91505092915050565b6000806000806080858703121561133b5761133a61062c565b5b600085015167ffffffffffffffff81111561135957611358610631565b5b61136587828801611158565b945050602085015167ffffffffffffffff81111561138657611385610631565b5b6113928782880161121b565b935050604085015167ffffffffffffffff8111156113b3576113b2610631565b5b6113bf87828801611158565b925050606085015167ffffffffffffffff8111156113e0576113df610631565b5b6113ec878288016112f3565b91505092959194509250565b600060608201905061140d6000830186610f13565b61141a6020830185610f13565b6114276040830184610e36565b949350505050565b6000806000606084860312156114485761144761062c565b5b600084015167ffffffffffffffff81111561146657611465610631565b5b61147286828701611158565b935050602084015167ffffffffffffffff81111561149357611492610631565b5b61149f8682870161121b565b925050604084015167ffffffffffffffff8111156114c0576114bf610631565b5b6114cc86828701611158565b915050925092509256fea2646970667358221220edf5fcfd2d9b56e985b3e6d30f2c29350d0753ab9940756ec9e4bfc55e8516fe64736f6c63430008130033",
  "immutableReferences": {},
  "source": "// SPDX-License-Identifier: UNLICENSED\r\npragma solidity ^0.8.17;\r\n\r\nimport \"./TrustifyLogic.sol\";\r\n\r\ncontract Trustify {\r\n    TrustifyLogic private trustifyLogic;\r\n\r\n    constructor(address tLogicAddress) {\r\n        trustifyLogic = TrustifyLogic(tLogicAddress);\r\n    }\r\n\r\n    //------------------ TRANSACTION STUFF -------------------------------------------------------------------------------\r\n\r\n    function havePayed(\r\n        address myAddress,\r\n        address companyAddress\r\n    ) public view returns (bool) {\r\n        return trustifyLogic.havePayed(myAddress, companyAddress);\r\n    }\r\n\r\n    function depositTokens(address addressToDeposit, uint amount) public {\r\n        trustifyLogic.depositTokens(msg.sender, addressToDeposit, amount);\r\n    }\r\n\r\n    //------------------ REVIEW MODIFIER STUFF ------------------------------------------------------------------------------------\r\n\r\n    function writeAReview(\r\n        address addressToReview,\r\n        string memory text,\r\n        uint8 stars\r\n    ) public {\r\n        trustifyLogic.writeAReview(msg.sender, addressToReview, text, stars);\r\n    }\r\n\r\n    function deleteReview(address reviewAddress) public {\r\n        trustifyLogic.deleteReview(msg.sender, reviewAddress);\r\n    }\r\n\r\n    //------------------ REVIEW GETTER STUFF ------------------------------------------------------------------------------------\r\n\r\n    function getCompanyReview(\r\n        uint start,\r\n        uint end,\r\n        address companyAddress\r\n    ) public view returns (string[] memory, uint8[] memory, string[] memory) {\r\n        return trustifyLogic.getCompanyReview(start, end, companyAddress);\r\n    }\r\n\r\n    function getSpecificReview(\r\n        address addressReviewed\r\n    ) public view returns (string memory, uint8, string memory) {\r\n        return trustifyLogic.getSpecificReview(msg.sender, addressReviewed);\r\n    }\r\n\r\n    function getMyReview(\r\n        uint start,\r\n        uint end\r\n    )\r\n        public\r\n        view\r\n        returns (\r\n            string[] memory,\r\n            uint8[] memory,\r\n            string[] memory,\r\n            address[] memory\r\n        )\r\n    {\r\n        return trustifyLogic.getMyReview(msg.sender, start, end);\r\n    }\r\n}\r\n",
  "sourcePath": "C:\\Users\\Nicola\\Desktop\\Git-Repositories\\Trustify-webapp\\Trustify-backend\\Trustify\\contracts\\Trustify.sol",
  "compiler": {
    "name": "solc",
    "version": "0.8.19+commit.7dd6d404.Emscripten.clang"
  },
  "schemaVersion": "3.4.8",
  "updatedAt": "2023-06-06T19:01:07.350Z",
  "devdoc": {
    "kind": "dev",
    "methods": {},
    "version": 1
  },
  "userdoc": {
    "kind": "user",
    "methods": {},
    "version": 1
  }
}