{
  "contractName": "Trustify",
  "abi": [
    {
      "inputs": [
        {
          "internalType": "address",
          "name": "coinAddress",
          "type": "address"
        }
      ],
      "stateMutability": "nonpayable",
      "type": "constructor"
    },
    {
      "inputs": [],
      "name": "CheckAllowance",
      "outputs": [
        {
          "internalType": "uint256",
          "name": "",
          "type": "uint256"
        }
      ],
      "stateMutability": "view",
      "type": "function"
    },
    {
      "inputs": [
        {
          "internalType": "address",
          "name": "addressToDeposit",
          "type": "address"
        },
        {
          "internalType": "uint256",
          "name": "amount",
          "type": "uint256"
        }
      ],
      "name": "DepositTokens",
      "outputs": [],
      "stateMutability": "nonpayable",
      "type": "function"
    },
    {
      "inputs": [
        {
          "internalType": "address",
          "name": "addressToReview",
          "type": "address"
        },
        {
          "internalType": "string",
          "name": "text",
          "type": "string"
        },
        {
          "internalType": "uint8",
          "name": "stars",
          "type": "uint8"
        }
      ],
      "name": "WriteAReview",
      "outputs": [],
      "stateMutability": "nonpayable",
      "type": "function"
    },
    {
      "inputs": [
        {
          "internalType": "address",
          "name": "reviewAddress",
          "type": "address"
        }
      ],
      "name": "DeleteReview",
      "outputs": [],
      "stateMutability": "nonpayable",
      "type": "function"
    },
    {
      "inputs": [
        {
          "internalType": "uint256",
          "name": "start",
          "type": "uint256"
        },
        {
          "internalType": "uint256",
          "name": "end",
          "type": "uint256"
        },
        {
          "internalType": "address",
          "name": "companyAddress",
          "type": "address"
        }
      ],
      "name": "GetCompanyReview",
      "outputs": [
        {
          "internalType": "string[]",
          "name": "",
          "type": "string[]"
        },
        {
          "internalType": "uint8[]",
          "name": "",
          "type": "uint8[]"
        },
        {
          "internalType": "string[]",
          "name": "",
          "type": "string[]"
        }
      ],
      "stateMutability": "view",
      "type": "function"
    },
    {
      "inputs": [
        {
          "internalType": "address",
          "name": "addressReviewed",
          "type": "address"
        }
      ],
      "name": "GetSpecificReview",
      "outputs": [
        {
          "internalType": "string",
          "name": "",
          "type": "string"
        },
        {
          "internalType": "uint8",
          "name": "",
          "type": "uint8"
        },
        {
          "internalType": "string",
          "name": "",
          "type": "string"
        }
      ],
      "stateMutability": "view",
      "type": "function"
    },
    {
      "inputs": [
        {
          "internalType": "uint256",
          "name": "start",
          "type": "uint256"
        },
        {
          "internalType": "uint256",
          "name": "end",
          "type": "uint256"
        }
      ],
      "name": "GetMyReview",
      "outputs": [
        {
          "internalType": "string[]",
          "name": "",
          "type": "string[]"
        },
        {
          "internalType": "uint8[]",
          "name": "",
          "type": "uint8[]"
        },
        {
          "internalType": "string[]",
          "name": "",
          "type": "string[]"
        },
        {
          "internalType": "address[]",
          "name": "",
          "type": "address[]"
        }
      ],
      "stateMutability": "view",
      "type": "function"
    },
    {
      "inputs": [
        {
          "internalType": "address",
          "name": "addressReviewed",
          "type": "address"
        }
      ],
      "name": "GetAverageStars",
      "outputs": [
        {
          "internalType": "uint256[]",
          "name": "",
          "type": "uint256[]"
        }
      ],
      "stateMutability": "view",
      "type": "function"
    }
  ],
  "bytecode": "0x60806040523480156200001157600080fd5b50604051620041ff380380620041ff8339818101604052810190620000379190620000e8565b806000806101000a81548173ffffffffffffffffffffffffffffffffffffffff021916908373ffffffffffffffffffffffffffffffffffffffff160217905550506200011a565b600080fd5b600073ffffffffffffffffffffffffffffffffffffffff82169050919050565b6000620000b08262000083565b9050919050565b620000c281620000a3565b8114620000ce57600080fd5b50565b600081519050620000e281620000b7565b92915050565b6000602082840312156200010157620001006200007e565b5b60006200011184828501620000d1565b91505092915050565b6140d5806200012a6000396000f3fe608060405234801561001057600080fd5b50600436106100885760003560e01c8063bba27d911161005b578063bba27d9114610140578063da4a48f91461015c578063e3a6e26d1461017a578063fd687f4f1461019657610088565b80631fc44b191461008d5780632539defd146100a957806375d953e9146100dc578063932dd7b21461010e575b600080fd5b6100a760048036038101906100a29190612a5f565b6101c6565b005b6100c360048036038101906100be9190612ac2565b61038e565b6040516100d39493929190612ddd565b60405180910390f35b6100f660048036038101906100f19190612e3e565b610ab4565b60405161010593929190612e91565b60405180910390f35b61012860048036038101906101239190612a5f565b6110ee565b60405161013793929190612f36565b60405180910390f35b61015a600480360381019061015591906130dc565b61138c565b005b610164611ccf565b604051610171919061315a565b60405180910390f35b610194600480360381019061018f9190613175565b611d73565b005b6101b060048036038101906101ab9190612a5f565b612100565b6040516101bd9190613273565b60405180910390f35b803373ffffffffffffffffffffffffffffffffffffffff168173ffffffffffffffffffffffffffffffffffffffff1603610235576040517f08c379a000000000000000000000000000000000000000000000000000000000815260040161022c90613307565b60405180910390fd5b6002600160008473ffffffffffffffffffffffffffffffffffffffff1673ffffffffffffffffffffffffffffffffffffffff16815260200190815260200160002060010160003373ffffffffffffffffffffffffffffffffffffffff1673ffffffffffffffffffffffffffffffffffffffff16815260200190815260200160002060010160026101000a81548160ff021916908360028111156102db576102da613327565b5b021790555060028060003373ffffffffffffffffffffffffffffffffffffffff1673ffffffffffffffffffffffffffffffffffffffff16815260200190815260200160002060010160008473ffffffffffffffffffffffffffffffffffffffff1673ffffffffffffffffffffffffffffffffffffffff16815260200190815260200160002060010160026101000a81548160ff0219169083600281111561038557610384613327565b5b02179055505050565b6060806060806000600260003373ffffffffffffffffffffffffffffffffffffffff1673ffffffffffffffffffffffffffffffffffffffff16815260200190815260200160002060000180549050905060008111610421576040517f08c379a0000000000000000000000000000000000000000000000000000000008152600401610418906133c8565b60405180910390fd5b808061042c90613417565b91505080871115610472576040517f08c379a0000000000000000000000000000000000000000000000000000000008152600401610469906134b2565b60405180910390fd5b858711156104b5576040517f08c379a00000000000000000000000000000000000000000000000000000000081526004016104ac90613544565b60405180910390fd5b601960ff1687876104c69190613564565b11156104d5601960ff16612335565b6040516020016104e59190613620565b60405160208183030381529060405290610535576040517f08c379a000000000000000000000000000000000000000000000000000000000815260040161052c9190613655565b60405180910390fd5b5080861115610542578095505b6000600188886105529190613564565b61055c9190613677565b905060008167ffffffffffffffff81111561057a57610579612f85565b5b6040519080825280602002602001820160405280156105ad57816020015b60608152602001906001900390816105985790505b50905060008267ffffffffffffffff8111156105cc576105cb612f85565b5b6040519080825280602002602001820160405280156105fa5781602001602082028036833780820191505090505b50905060008367ffffffffffffffff81111561061957610618612f85565b5b60405190808252806020026020018201604052801561064c57816020015b60608152602001906001900390816106375790505b50905060008467ffffffffffffffff81111561066b5761066a612f85565b5b6040519080825280602002602001820160405280156106995781602001602082028036833780820191505090505b50905060008060018e896106ad9190613564565b6106b79190613677565b90505b60018d896106c89190613564565b6106d29190613677565b8110610a97576000600260003373ffffffffffffffffffffffffffffffffffffffff1673ffffffffffffffffffffffffffffffffffffffff1681526020019081526020016000209050806001016000826000016001856107329190613564565b81548110610743576107426136ab565b5b9060005260206000200160009054906101000a900473ffffffffffffffffffffffffffffffffffffffff1673ffffffffffffffffffffffffffffffffffffffff1673ffffffffffffffffffffffffffffffffffffffff16815260200190815260200160002060000180546107b690613709565b80601f01602080910402602001604051908101604052809291908181526020018280546107e290613709565b801561082f5780601f106108045761010080835404028352916020019161082f565b820191906000526020600020905b81548152906001019060200180831161081257829003601f168201915b5050505050878481518110610847576108466136ab565b5b6020026020010181905250806001016000826000016001856108699190613564565b8154811061087a576108796136ab565b5b9060005260206000200160009054906101000a900473ffffffffffffffffffffffffffffffffffffffff1673ffffffffffffffffffffffffffffffffffffffff1673ffffffffffffffffffffffffffffffffffffffff16815260200190815260200160002060010160009054906101000a900460ff16868481518110610903576109026136ab565b5b602002602001019060ff16908160ff16815250506109bd816001016000836000016001866109319190613564565b81548110610942576109416136ab565b5b9060005260206000200160009054906101000a900473ffffffffffffffffffffffffffffffffffffffff1673ffffffffffffffffffffffffffffffffffffffff1673ffffffffffffffffffffffffffffffffffffffff16815260200190815260200160002060010160029054906101000a900460ff16612403565b8584815181106109d0576109cf6136ab565b5b6020026020010181905250806000016001836109ec9190613564565b815481106109fd576109fc6136ab565b5b9060005260206000200160009054906101000a900473ffffffffffffffffffffffffffffffffffffffff16848481518110610a3b57610a3a6136ab565b5b602002602001019073ffffffffffffffffffffffffffffffffffffffff16908173ffffffffffffffffffffffffffffffffffffffff16815250508280610a809061373a565b935050508080610a8f90613417565b9150506106ba565b50848484849a509a509a509a505050505050505092959194509250565b60608060606000600160008673ffffffffffffffffffffffffffffffffffffffff1673ffffffffffffffffffffffffffffffffffffffff16815260200190815260200160002060000180549050905060008111610b46576040517f08c379a0000000000000000000000000000000000000000000000000000000008152600401610b3d906137f4565b60405180910390fd5b8080610b5190613417565b91505080871115610b97576040517f08c379a0000000000000000000000000000000000000000000000000000000008152600401610b8e906134b2565b60405180910390fd5b85871115610bda576040517f08c379a0000000000000000000000000000000000000000000000000000000008152600401610bd190613544565b60405180910390fd5b601960ff168787610beb9190613564565b1115610bfa601960ff16612335565b604051602001610c0a9190613620565b60405160208183030381529060405290610c5a576040517f08c379a0000000000000000000000000000000000000000000000000000000008152600401610c519190613655565b60405180910390fd5b5080861115610c67578095505b600060018888610c779190613564565b610c819190613677565b905060008167ffffffffffffffff811115610c9f57610c9e612f85565b5b604051908082528060200260200182016040528015610cd257816020015b6060815260200190600190039081610cbd5790505b50905060008267ffffffffffffffff811115610cf157610cf0612f85565b5b604051908082528060200260200182016040528015610d1f5781602001602082028036833780820191505090505b50905060008367ffffffffffffffff811115610d3e57610d3d612f85565b5b604051908082528060200260200182016040528015610d7157816020015b6060815260200190600190039081610d5c5790505b50905060008060018d88610d859190613564565b610d8f9190613677565b90505b60018c88610da09190613564565b610daa9190613677565b81106110d5576000600160008d73ffffffffffffffffffffffffffffffffffffffff1673ffffffffffffffffffffffffffffffffffffffff168152602001908152602001600020905080600101600082600001600185610e0a9190613564565b81548110610e1b57610e1a6136ab565b5b9060005260206000200160009054906101000a900473ffffffffffffffffffffffffffffffffffffffff1673ffffffffffffffffffffffffffffffffffffffff1673ffffffffffffffffffffffffffffffffffffffff1681526020019081526020016000206000018054610e8e90613709565b80601f0160208091040260200160405190810160405280929190818152602001828054610eba90613709565b8015610f075780601f10610edc57610100808354040283529160200191610f07565b820191906000526020600020905b815481529060010190602001808311610eea57829003601f168201915b5050505050868481518110610f1f57610f1e6136ab565b5b602002602001018190525080600101600082600001600185610f419190613564565b81548110610f5257610f516136ab565b5b9060005260206000200160009054906101000a900473ffffffffffffffffffffffffffffffffffffffff1673ffffffffffffffffffffffffffffffffffffffff1673ffffffffffffffffffffffffffffffffffffffff16815260200190815260200160002060010160009054906101000a900460ff16858481518110610fdb57610fda6136ab565b5b602002602001019060ff16908160ff1681525050611095816001016000836000016001866110099190613564565b8154811061101a576110196136ab565b5b9060005260206000200160009054906101000a900473ffffffffffffffffffffffffffffffffffffffff1673ffffffffffffffffffffffffffffffffffffffff1673ffffffffffffffffffffffffffffffffffffffff16815260200190815260200160002060010160029054906101000a900460ff16612403565b8484815181106110a8576110a76136ab565b5b602002602001018190525082806110be9061373a565b9350505080806110cd90613417565b915050610d92565b5083838398509850985050505050505093509350939050565b6060600060606000600160008673ffffffffffffffffffffffffffffffffffffffff1673ffffffffffffffffffffffffffffffffffffffff16815260200190815260200160002060010160003373ffffffffffffffffffffffffffffffffffffffff1673ffffffffffffffffffffffffffffffffffffffff16815260200190815260200160002060010160009054906101000a900460ff16905060008160ff16036111ce576040517f08c379a00000000000000000000000000000000000000000000000000000000081526004016111c590613886565b60405180910390fd5b6000600160008773ffffffffffffffffffffffffffffffffffffffff1673ffffffffffffffffffffffffffffffffffffffff16815260200190815260200160002060010160003373ffffffffffffffffffffffffffffffffffffffff1673ffffffffffffffffffffffffffffffffffffffff168152602001908152602001600020600001805461125d90613709565b80601f016020809104026020016040519081016040528092919081815260200182805461128990613709565b80156112d65780601f106112ab576101008083540402835291602001916112d6565b820191906000526020600020905b8154815290600101906020018083116112b957829003601f168201915b505050505090506000611377600160008973ffffffffffffffffffffffffffffffffffffffff1673ffffffffffffffffffffffffffffffffffffffff16815260200190815260200160002060010160003373ffffffffffffffffffffffffffffffffffffffff1673ffffffffffffffffffffffffffffffffffffffff16815260200190815260200160002060010160029054906101000a900460ff16612403565b90508183829550955095505050509193909250565b823373ffffffffffffffffffffffffffffffffffffffff168173ffffffffffffffffffffffffffffffffffffffff16036113fb576040517f08c379a00000000000000000000000000000000000000000000000000000000081526004016113f290613307565b60405180910390fd5b83600160008273ffffffffffffffffffffffffffffffffffffffff1673ffffffffffffffffffffffffffffffffffffffff16815260200190815260200160002060010160003373ffffffffffffffffffffffffffffffffffffffff1673ffffffffffffffffffffffffffffffffffffffff16815260200190815260200160002060010160019054906101000a900460ff166114cb576040517f08c379a00000000000000000000000000000000000000000000000000000000081526004016114c290613918565b60405180910390fd5b60008360ff161180156114e2575060058360ff1611155b611521576040517f08c379a0000000000000000000000000000000000000000000000000000000008152600401611518906139aa565b60405180910390fd5b6000600160008773ffffffffffffffffffffffffffffffffffffffff1673ffffffffffffffffffffffffffffffffffffffff16815260200190815260200160002060010160003373ffffffffffffffffffffffffffffffffffffffff1673ffffffffffffffffffffffffffffffffffffffff1681526020019081526020016000206040518060800160405290816000820180546115bd90613709565b80601f01602080910402602001604051908101604052809291908181526020018280546115e990613709565b80156116365780601f1061160b57610100808354040283529160200191611636565b820191906000526020600020905b81548152906001019060200180831161161957829003601f168201915b505050505081526020016001820160009054906101000a900460ff1660ff1660ff1681526020016001820160019054906101000a900460ff161515151581526020016001820160029054906101000a900460ff16600281111561169c5761169b613327565b5b60028111156116ae576116ad613327565b5b8152505090506000816020015160ff161480156116d057506000816000015151145b15611a7357600060405180608001604052808781526020018660ff1681526020016001151581526020016000600281111561170e5761170d613327565b5b815250905080600160008973ffffffffffffffffffffffffffffffffffffffff1673ffffffffffffffffffffffffffffffffffffffff16815260200190815260200160002060010160003373ffffffffffffffffffffffffffffffffffffffff1673ffffffffffffffffffffffffffffffffffffffff16815260200190815260200160002060008201518160000190816117a89190613b76565b5060208201518160010160006101000a81548160ff021916908360ff16021790555060408201518160010160016101000a81548160ff02191690831515021790555060608201518160010160026101000a81548160ff0219169083600281111561181557611814613327565b5b0217905550905050600160008873ffffffffffffffffffffffffffffffffffffffff1673ffffffffffffffffffffffffffffffffffffffff168152602001908152602001600020600001339080600181540180825580915050600190039060005260206000200160009091909190916101000a81548173ffffffffffffffffffffffffffffffffffffffff021916908373ffffffffffffffffffffffffffffffffffffffff16021790555080600260003373ffffffffffffffffffffffffffffffffffffffff1673ffffffffffffffffffffffffffffffffffffffff16815260200190815260200160002060010160008973ffffffffffffffffffffffffffffffffffffffff1673ffffffffffffffffffffffffffffffffffffffff16815260200190815260200160002060008201518160000190816119559190613b76565b5060208201518160010160006101000a81548160ff021916908360ff16021790555060408201518160010160016101000a81548160ff02191690831515021790555060608201518160010160026101000a81548160ff021916908360028111156119c2576119c1613327565b5b0217905550905050600260003373ffffffffffffffffffffffffffffffffffffffff1673ffffffffffffffffffffffffffffffffffffffff168152602001908152602001600020600001879080600181540180825580915050600190039060005260206000200160009091909190916101000a81548173ffffffffffffffffffffffffffffffffffffffff021916908373ffffffffffffffffffffffffffffffffffffffff16021790555050611cc7565b600060405180608001604052808781526020018660ff16815260200160011515815260200160016002811115611aac57611aab613327565b5b815250905080600160008973ffffffffffffffffffffffffffffffffffffffff1673ffffffffffffffffffffffffffffffffffffffff16815260200190815260200160002060010160003373ffffffffffffffffffffffffffffffffffffffff1673ffffffffffffffffffffffffffffffffffffffff1681526020019081526020016000206000820151816000019081611b469190613b76565b5060208201518160010160006101000a81548160ff021916908360ff16021790555060408201518160010160016101000a81548160ff02191690831515021790555060608201518160010160026101000a81548160ff02191690836002811115611bb357611bb2613327565b5b021790555090505080600260003373ffffffffffffffffffffffffffffffffffffffff1673ffffffffffffffffffffffffffffffffffffffff16815260200190815260200160002060010160008973ffffffffffffffffffffffffffffffffffffffff1673ffffffffffffffffffffffffffffffffffffffff1681526020019081526020016000206000820151816000019081611c509190613b76565b5060208201518160010160006101000a81548160ff021916908360ff16021790555060408201518160010160016101000a81548160ff02191690831515021790555060608201518160010160026101000a81548160ff02191690836002811115611cbd57611cbc613327565b5b0217905550905050505b505050505050565b60008060009054906101000a900473ffffffffffffffffffffffffffffffffffffffff1673ffffffffffffffffffffffffffffffffffffffff1663dd62ed3e33306040518363ffffffff1660e01b8152600401611d2d929190613c57565b602060405180830381865afa158015611d4a573d6000803e3d6000fd5b505050506040513d601f19601f82011682018060405250810190611d6e9190613c95565b905090565b813373ffffffffffffffffffffffffffffffffffffffff168173ffffffffffffffffffffffffffffffffffffffff1603611de2576040517f08c379a0000000000000000000000000000000000000000000000000000000008152600401611dd990613307565b60405180910390fd5b8160008054906101000a900473ffffffffffffffffffffffffffffffffffffffff1673ffffffffffffffffffffffffffffffffffffffff1663dd62ed3e33306040518363ffffffff1660e01b8152600401611e3e929190613c57565b602060405180830381865afa158015611e5b573d6000803e3d6000fd5b505050506040513d601f19601f82011682018060405250810190611e7f9190613c95565b1015611ec0576040517f08c379a0000000000000000000000000000000000000000000000000000000008152600401611eb790613d0e565b60405180910390fd5b6000600160008573ffffffffffffffffffffffffffffffffffffffff1673ffffffffffffffffffffffffffffffffffffffff16815260200190815260200160002060010160003373ffffffffffffffffffffffffffffffffffffffff1673ffffffffffffffffffffffffffffffffffffffff16815260200190815260200160002060010160009054906101000a900460ff1660ff16036120ae576040518060800160405280604051806020016040528060008152508152602001600060ff16815260200160011515815260200160006002811115611fa157611fa0613327565b5b815250600160008573ffffffffffffffffffffffffffffffffffffffff1673ffffffffffffffffffffffffffffffffffffffff16815260200190815260200160002060010160003373ffffffffffffffffffffffffffffffffffffffff1673ffffffffffffffffffffffffffffffffffffffff16815260200190815260200160002060008201518160000190816120389190613b76565b5060208201518160010160006101000a81548160ff021916908360ff16021790555060408201518160010160016101000a81548160ff02191690831515021790555060608201518160010160026101000a81548160ff021916908360028111156120a5576120a4613327565b5b02179055509050505b6120fb33848460008054906101000a900473ffffffffffffffffffffffffffffffffffffffff1673ffffffffffffffffffffffffffffffffffffffff1661257d909392919063ffffffff16565b505050565b60606000600160008473ffffffffffffffffffffffffffffffffffffffff1673ffffffffffffffffffffffffffffffffffffffff1681526020019081526020016000206000018054905090506000810361218f576040517f08c379a000000000000000000000000000000000000000000000000000000000815260040161218690613dc6565b60405180910390fd5b60008167ffffffffffffffff8111156121ab576121aa612f85565b5b6040519080825280602002602001820160405280156121d95781602001602082028036833780820191505090505b50905060005b8281101561232a57600160008673ffffffffffffffffffffffffffffffffffffffff1673ffffffffffffffffffffffffffffffffffffffff1681526020019081526020016000206001016000600160008873ffffffffffffffffffffffffffffffffffffffff1673ffffffffffffffffffffffffffffffffffffffff168152602001908152602001600020600001838154811061227f5761227e6136ab565b5b9060005260206000200160009054906101000a900473ffffffffffffffffffffffffffffffffffffffff1673ffffffffffffffffffffffffffffffffffffffff1673ffffffffffffffffffffffffffffffffffffffff16815260200190815260200160002060010160009054906101000a900460ff1660ff1682828151811061230b5761230a6136ab565b5b60200260200101818152505080806123229061373a565b9150506121df565b508092505050919050565b60606000600161234484612606565b01905060008167ffffffffffffffff81111561236357612362612f85565b5b6040519080825280601f01601f1916602001820160405280156123955781602001600182028036833780820191505090505b509050600082602001820190505b6001156123f8578080600190039150507f3031323334353637383961626364656600000000000000000000000000000000600a86061a8153600a85816123ec576123eb613de6565b5b049450600085036123a3575b819350505050919050565b60606000600281111561241957612418613327565b5b82600281111561242c5761242b613327565b5b0361246e576040518060400160405280600681526020017f41435449564500000000000000000000000000000000000000000000000000008152509050612578565b6001600281111561248257612481613327565b5b82600281111561249557612494613327565b5b036124d7576040518060400160405280600881526020017f4d4f4449464945440000000000000000000000000000000000000000000000008152509050612578565b6002808111156124ea576124e9613327565b5b8260028111156124fd576124fc613327565b5b0361253f576040518060400160405280600781526020017f44454c45544544000000000000000000000000000000000000000000000000008152509050612578565b6040518060400160405280600781526020017f554e4b4e4f574e0000000000000000000000000000000000000000000000000081525090505b919050565b612600846323b872dd60e01b85858560405160240161259e93929190613e15565b604051602081830303815290604052907bffffffffffffffffffffffffffffffffffffffffffffffffffffffff19166020820180517bffffffffffffffffffffffffffffffffffffffffffffffffffffffff8381831617835250505050612759565b50505050565b600080600090507a184f03e93ff9f4daa797ed6e38ed64bf6a1f0100000000000000008310612664577a184f03e93ff9f4daa797ed6e38ed64bf6a1f010000000000000000838161265a57612659613de6565b5b0492506040810190505b6d04ee2d6d415b85acef810000000083106126a1576d04ee2d6d415b85acef8100000000838161269757612696613de6565b5b0492506020810190505b662386f26fc1000083106126d057662386f26fc1000083816126c6576126c5613de6565b5b0492506010810190505b6305f5e10083106126f9576305f5e10083816126ef576126ee613de6565b5b0492506008810190505b612710831061271e57612710838161271457612713613de6565b5b0492506004810190505b60648310612741576064838161273757612736613de6565b5b0492506002810190505b600a8310612750576001810190505b80915050919050565b60006127bb826040518060400160405280602081526020017f5361666545524332303a206c6f772d6c6576656c2063616c6c206661696c65648152508573ffffffffffffffffffffffffffffffffffffffff166128209092919063ffffffff16565b905060008151111561281b57808060200190518101906127db9190613e84565b61281a576040517f08c379a000000000000000000000000000000000000000000000000000000000815260040161281190613f23565b60405180910390fd5b5b505050565b606061282f8484600085612838565b90509392505050565b60608247101561287d576040517f08c379a000000000000000000000000000000000000000000000000000000000815260040161287490613fb5565b60405180910390fd5b6000808673ffffffffffffffffffffffffffffffffffffffff1685876040516128a6919061401c565b60006040518083038185875af1925050503d80600081146128e3576040519150601f19603f3d011682016040523d82523d6000602084013e6128e8565b606091505b50915091506128f987838387612905565b92505050949350505050565b6060831561296757600083510361295f5761291f8561297a565b61295e576040517f08c379a00000000000000000000000000000000000000000000000000000000081526004016129559061407f565b60405180910390fd5b5b829050612972565b612971838361299d565b5b949350505050565b6000808273ffffffffffffffffffffffffffffffffffffffff163b119050919050565b6000825111156129b05781518083602001fd5b806040517f08c379a00000000000000000000000000000000000000000000000000000000081526004016129e49190613655565b60405180910390fd5b6000604051905090565b600080fd5b600080fd5b600073ffffffffffffffffffffffffffffffffffffffff82169050919050565b6000612a2c82612a01565b9050919050565b612a3c81612a21565b8114612a4757600080fd5b50565b600081359050612a5981612a33565b92915050565b600060208284031215612a7557612a746129f7565b5b6000612a8384828501612a4a565b91505092915050565b6000819050919050565b612a9f81612a8c565b8114612aaa57600080fd5b50565b600081359050612abc81612a96565b92915050565b60008060408385031215612ad957612ad86129f7565b5b6000612ae785828601612aad565b9250506020612af885828601612aad565b9150509250929050565b600081519050919050565b600082825260208201905092915050565b6000819050602082019050919050565b600081519050919050565b600082825260208201905092915050565b60005b83811015612b68578082015181840152602081019050612b4d565b60008484015250505050565b6000601f19601f8301169050919050565b6000612b9082612b2e565b612b9a8185612b39565b9350612baa818560208601612b4a565b612bb381612b74565b840191505092915050565b6000612bca8383612b85565b905092915050565b6000602082019050919050565b6000612bea82612b02565b612bf48185612b0d565b935083602082028501612c0685612b1e565b8060005b85811015612c425784840389528151612c238582612bbe565b9450612c2e83612bd2565b925060208a01995050600181019050612c0a565b50829750879550505050505092915050565b600081519050919050565b600082825260208201905092915050565b6000819050602082019050919050565b600060ff82169050919050565b612c9681612c80565b82525050565b6000612ca88383612c8d565b60208301905092915050565b6000602082019050919050565b6000612ccc82612c54565b612cd68185612c5f565b9350612ce183612c70565b8060005b83811015612d12578151612cf98882612c9c565b9750612d0483612cb4565b925050600181019050612ce5565b5085935050505092915050565b600081519050919050565b600082825260208201905092915050565b6000819050602082019050919050565b612d5481612a21565b82525050565b6000612d668383612d4b565b60208301905092915050565b6000602082019050919050565b6000612d8a82612d1f565b612d948185612d2a565b9350612d9f83612d3b565b8060005b83811015612dd0578151612db78882612d5a565b9750612dc283612d72565b925050600181019050612da3565b5085935050505092915050565b60006080820190508181036000830152612df78187612bdf565b90508181036020830152612e0b8186612cc1565b90508181036040830152612e1f8185612bdf565b90508181036060830152612e338184612d7f565b905095945050505050565b600080600060608486031215612e5757612e566129f7565b5b6000612e6586828701612aad565b9350506020612e7686828701612aad565b9250506040612e8786828701612a4a565b9150509250925092565b60006060820190508181036000830152612eab8186612bdf565b90508181036020830152612ebf8185612cc1565b90508181036040830152612ed38184612bdf565b9050949350505050565b600082825260208201905092915050565b6000612ef982612b2e565b612f038185612edd565b9350612f13818560208601612b4a565b612f1c81612b74565b840191505092915050565b612f3081612c80565b82525050565b60006060820190508181036000830152612f508186612eee565b9050612f5f6020830185612f27565b8181036040830152612f718184612eee565b9050949350505050565b600080fd5b600080fd5b7f4e487b7100000000000000000000000000000000000000000000000000000000600052604160045260246000fd5b612fbd82612b74565b810181811067ffffffffffffffff82111715612fdc57612fdb612f85565b5b80604052505050565b6000612fef6129ed565b9050612ffb8282612fb4565b919050565b600067ffffffffffffffff82111561301b5761301a612f85565b5b61302482612b74565b9050602081019050919050565b82818337600083830152505050565b600061305361304e84613000565b612fe5565b90508281526020810184848401111561306f5761306e612f80565b5b61307a848285613031565b509392505050565b600082601f83011261309757613096612f7b565b5b81356130a7848260208601613040565b91505092915050565b6130b981612c80565b81146130c457600080fd5b50565b6000813590506130d6816130b0565b92915050565b6000806000606084860312156130f5576130f46129f7565b5b600061310386828701612a4a565b935050602084013567ffffffffffffffff811115613124576131236129fc565b5b61313086828701613082565b9250506040613141868287016130c7565b9150509250925092565b61315481612a8c565b82525050565b600060208201905061316f600083018461314b565b92915050565b6000806040838503121561318c5761318b6129f7565b5b600061319a85828601612a4a565b92505060206131ab85828601612aad565b9150509250929050565b600081519050919050565b600082825260208201905092915050565b6000819050602082019050919050565b6131ea81612a8c565b82525050565b60006131fc83836131e1565b60208301905092915050565b6000602082019050919050565b6000613220826131b5565b61322a81856131c0565b9350613235836131d1565b8060005b8381101561326657815161324d88826131f0565b975061325883613208565b925050600181019050613239565b5085935050505092915050565b6000602082019050818103600083015261328d8184613215565b905092915050565b7f596f752063616e277420646f207468697320616374696f6e20746f20796f757260008201527f73656c662050616c210000000000000000000000000000000000000000000000602082015250565b60006132f1602983612edd565b91506132fc82613295565b604082019050919050565b60006020820190508181036000830152613320816132e4565b9050919050565b7f4e487b7100000000000000000000000000000000000000000000000000000000600052602160045260246000fd5b7f596f752068617665206e6f742072656c656173656420616e792072657669657760008201527f7300000000000000000000000000000000000000000000000000000000000000602082015250565b60006133b2602183612edd565b91506133bd82613356565b604082019050919050565b600060208201905081810360008301526133e1816133a5565b9050919050565b7f4e487b7100000000000000000000000000000000000000000000000000000000600052601160045260246000fd5b600061342282612a8c565b915060008203613435576134346133e8565b5b600182039050919050565b7f5374617274206d757374206265206c657373207468616e20746865206c656e6760008201527f7468206f66207468652061727261790000000000000000000000000000000000602082015250565b600061349c602f83612edd565b91506134a782613440565b604082019050919050565b600060208201905081810360008301526134cb8161348f565b9050919050565b7f5374617274206e756d626572206d757374206265206c657373207468616e206560008201527f6e64000000000000000000000000000000000000000000000000000000000000602082015250565b600061352e602283612edd565b9150613539826134d2565b604082019050919050565b6000602082019050818103600083015261355d81613521565b9050919050565b600061356f82612a8c565b915061357a83612a8c565b9250828203905081811115613592576135916133e8565b5b92915050565b7f596f752063616e20676574206d61782000000000000000000000000000000000815250565b600081905092915050565b60006135d482612b2e565b6135de81856135be565b93506135ee818560208601612b4a565b80840191505092915050565b7f2072657669657773207065722063616c6c000000000000000000000000000000815250565b600061362b82613598565b60108201915061363b82846135c9565b9150613646826135fa565b60118201915081905092915050565b6000602082019050818103600083015261366f8184612eee565b905092915050565b600061368282612a8c565b915061368d83612a8c565b92508282019050808211156136a5576136a46133e8565b5b92915050565b7f4e487b7100000000000000000000000000000000000000000000000000000000600052603260045260246000fd5b7f4e487b7100000000000000000000000000000000000000000000000000000000600052602260045260246000fd5b6000600282049050600182168061372157607f821691505b602082108103613734576137336136da565b5b50919050565b600061374582612a8c565b91507fffffffffffffffffffffffffffffffffffffffffffffffffffffffffffffffff8203613777576137766133e8565b5b600182019050919050565b7f5468697320636f6d70616e792068617665206e6f74207265636569766564206160008201527f6e79207265766965777300000000000000000000000000000000000000000000602082015250565b60006137de602a83612edd565b91506137e982613782565b604082019050919050565b6000602082019050818103600083015261380d816137d1565b9050919050565b7f596f752068617665206e6f742072656c656173656420616e792072657669657760008201527f7320746f20746869732061646472657373000000000000000000000000000000602082015250565b6000613870603183612edd565b915061387b82613814565b604082019050919050565b6000602082019050818103600083015261389f81613863565b9050919050565b7f596f7520646f6e7420686176652061207472616e736c616374696f6e2066726f60008201527f6d20796f7572206164647265737320746f207468697320616464726573730000602082015250565b6000613902603e83612edd565b915061390d826138a6565b604082019050919050565b60006020820190508181036000830152613931816138f5565b9050919050565b7f4572726f722c207374617273206d75737420626520612076616c75652062657460008201527f7765656e203020616e6420350000000000000000000000000000000000000000602082015250565b6000613994602c83612edd565b915061399f82613938565b604082019050919050565b600060208201905081810360008301526139c381613987565b9050919050565b60008190508160005260206000209050919050565b60006020601f8301049050919050565b600082821b905092915050565b600060088302613a2c7fffffffffffffffffffffffffffffffffffffffffffffffffffffffffffffffff826139ef565b613a3686836139ef565b95508019841693508086168417925050509392505050565b6000819050919050565b6000613a73613a6e613a6984612a8c565b613a4e565b612a8c565b9050919050565b6000819050919050565b613a8d83613a58565b613aa1613a9982613a7a565b8484546139fc565b825550505050565b600090565b613ab6613aa9565b613ac1818484613a84565b505050565b5b81811015613ae557613ada600082613aae565b600181019050613ac7565b5050565b601f821115613b2a57613afb816139ca565b613b04846139df565b81016020851015613b13578190505b613b27613b1f856139df565b830182613ac6565b50505b505050565b600082821c905092915050565b6000613b4d60001984600802613b2f565b1980831691505092915050565b6000613b668383613b3c565b9150826002028217905092915050565b613b7f82612b2e565b67ffffffffffffffff811115613b9857613b97612f85565b5b613ba28254613709565b613bad828285613ae9565b600060209050601f831160018114613be05760008415613bce578287015190505b613bd88582613b5a565b865550613c40565b601f198416613bee866139ca565b60005b82811015613c1657848901518255600182019150602085019450602081019050613bf1565b86831015613c335784890151613c2f601f891682613b3c565b8355505b6001600288020188555050505b505050505050565b613c5181612a21565b82525050565b6000604082019050613c6c6000830185613c48565b613c796020830184613c48565b9392505050565b600081519050613c8f81612a96565b92915050565b600060208284031215613cab57613caa6129f7565b5b6000613cb984828501613c80565b91505092915050565b7f4572726f72207769746820746f6b656e20616c6c6f77616e6365000000000000600082015250565b6000613cf8601a83612edd565b9150613d0382613cc2565b602082019050919050565b60006020820190508181036000830152613d2781613ceb565b9050919050565b7f5468697320636f6d70616e7920686173206e6f7420726563656976656420616e60008201527f7920726576696577732c2063616e6e6f742063616c63756c617465206176657260208201527f6167652073746172730000000000000000000000000000000000000000000000604082015250565b6000613db0604983612edd565b9150613dbb82613d2e565b606082019050919050565b60006020820190508181036000830152613ddf81613da3565b9050919050565b7f4e487b7100000000000000000000000000000000000000000000000000000000600052601260045260246000fd5b6000606082019050613e2a6000830186613c48565b613e376020830185613c48565b613e44604083018461314b565b949350505050565b60008115159050919050565b613e6181613e4c565b8114613e6c57600080fd5b50565b600081519050613e7e81613e58565b92915050565b600060208284031215613e9a57613e996129f7565b5b6000613ea884828501613e6f565b91505092915050565b7f5361666545524332303a204552433230206f7065726174696f6e20646964206e60008201527f6f74207375636365656400000000000000000000000000000000000000000000602082015250565b6000613f0d602a83612edd565b9150613f1882613eb1565b604082019050919050565b60006020820190508181036000830152613f3c81613f00565b9050919050565b7f416464726573733a20696e73756666696369656e742062616c616e636520666f60008201527f722063616c6c0000000000000000000000000000000000000000000000000000602082015250565b6000613f9f602683612edd565b9150613faa82613f43565b604082019050919050565b60006020820190508181036000830152613fce81613f92565b9050919050565b600081519050919050565b600081905092915050565b6000613ff682613fd5565b6140008185613fe0565b9350614010818560208601612b4a565b80840191505092915050565b60006140288284613feb565b915081905092915050565b7f416464726573733a2063616c6c20746f206e6f6e2d636f6e7472616374000000600082015250565b6000614069601d83612edd565b915061407482614033565b602082019050919050565b600060208201905081810360008301526140988161405c565b905091905056fea264697066735822122083a541bac6764672acd2b50086a11921f186ab5080749fd98d7363bb7622656164736f6c63430008130033",
  "immutableReferences": {},
  "source": "// SPDX-License-Identifier: UNLICENSED\r\npragma solidity ^0.8.17;\r\n\r\nimport \"@openzeppelin/contracts/token/ERC20/IERC20.sol\";\r\nimport \"@openzeppelin/contracts/token/ERC20/utils/SafeERC20.sol\";\r\nimport \"@openzeppelin/contracts/utils/Strings.sol\";\r\n\r\n/*\r\nPiccole note: se l'address non esiste in blockchain non si pu fare il mapping e il contratto resistuisce un errore.\r\nle map sono automaticamente inizializzate a valori di default, quindi non si pu fare il check se esiste un mapping o no.\r\n*/\r\n\r\ncontract Trustify {\r\n    using SafeERC20 for IERC20;\r\n\r\n    uint8 private constant MAX_REVIEW_PER_CALL = 25;\r\n\r\n    IERC20 private token;\r\n\r\n    enum ReviewState {\r\n        ACTIVE,\r\n        MODIFIED,\r\n        DELETED\r\n    }\r\n\r\n    struct Review {\r\n        string text;\r\n        uint8 stars;\r\n        bool havePayed;\r\n        ReviewState state;\r\n    }\r\n\r\n    // MAPPING STUFF\r\n    struct Company {\r\n        address[] allCustomerAddress; //tiene tutti gli address degli utenti che hanno fatto una review a questa azienda (serve per la funzione che restituisce tutte le review di un'azienda)\r\n        mapping(address => Review) reviewMap; //map con address di ogni utente e la review che ha fatto a questa azienda\r\n    }\r\n\r\n    struct Customer {\r\n        address[] allCompanyAddress; //tiene tutti gli address delle aziende che hanno ricevuto una review da questo utente (serve per la funzione che restituisce tutte le review di un utente)\r\n        mapping(address => Review) reviewMap; //map con address di ogni azienda/e-shop e la review che ha fatto l'utente\r\n    }\r\n\r\n    mapping(address => Company) companyMap; //map con address di ogni azienda/e-shop\r\n    mapping(address => Customer) customerMap; //map con address di ogni utente\r\n\r\n    constructor(address coinAddress) {\r\n        token = IERC20(coinAddress);\r\n    }\r\n\r\n    //------------------ TRANSACTION STUFF -------------------------------------------------------------------------------\r\n\r\n    modifier CheckTransaction(address companyWalletAddress) {\r\n        require(\r\n            companyMap[companyWalletAddress].reviewMap[msg.sender].havePayed,\r\n            \"You dont have a translaction from your address to this address\"\r\n        );\r\n        _;\r\n    }\r\n\r\n    function CheckAllowance() public view returns (uint) {\r\n        return token.allowance(msg.sender, address(this));\r\n    }\r\n\r\n    modifier CheckActionToYourself(address yourAddress) {\r\n        require(\r\n            yourAddress != msg.sender,\r\n            \"You can't do this action to yourself Pal!\"\r\n        );\r\n        _;\r\n    }\r\n\r\n    function DepositTokens(\r\n        address addressToDeposit,\r\n        uint amount\r\n    ) public CheckActionToYourself(addressToDeposit) {\r\n        require(\r\n            token.allowance(msg.sender, address(this)) >= amount,\r\n            \"Error with token allowance\"\r\n        );\r\n\r\n        if (companyMap[addressToDeposit].reviewMap[msg.sender].stars == 0) {\r\n            companyMap[addressToDeposit].reviewMap[msg.sender] = Review(\r\n                \"\",\r\n                0,\r\n                true,\r\n                ReviewState.ACTIVE\r\n            );\r\n        }\r\n        token.safeTransferFrom(msg.sender, addressToDeposit, amount);\r\n    }\r\n\r\n    //------------------ REVIEW STUFF ------------------------------------------------------------------------------------\r\n\r\n    /*\r\n        La funzione che scrive la review si accorge se l'utente ha gi scritto una review per quella \r\n        azienda (guarda se le stelle sono a 0, valore impossibile da mettere al di fuori dal contratto),\r\n        in tal caso sovrascrive la vecchia review con la nuova, altrimenti crea una nuova review.\r\n    */\r\n    function WriteAReview(\r\n        address addressToReview,\r\n        string memory text,\r\n        uint8 stars\r\n    )\r\n        public\r\n        CheckActionToYourself(addressToReview)\r\n        CheckTransaction(addressToReview)\r\n    {\r\n        require(\r\n            stars > 0 && stars <= 5,\r\n            \"Error, stars must be a value between 0 and 5\"\r\n        );\r\n\r\n        Review memory tmpReview = companyMap[addressToReview].reviewMap[\r\n            msg.sender\r\n        ];\r\n\r\n        if (tmpReview.stars == 0 && bytes(tmpReview.text).length == 0) {\r\n            Review memory _review = Review(\r\n                text,\r\n                stars,\r\n                true,\r\n                ReviewState.ACTIVE\r\n            );\r\n            companyMap[addressToReview].reviewMap[msg.sender] = _review;\r\n            companyMap[addressToReview].allCustomerAddress.push(msg.sender);\r\n            customerMap[msg.sender].reviewMap[addressToReview] = _review;\r\n            customerMap[msg.sender].allCompanyAddress.push(addressToReview);\r\n        } else {\r\n            Review memory _review = Review(\r\n                text,\r\n                stars,\r\n                true,\r\n                ReviewState.MODIFIED\r\n            );\r\n            companyMap[addressToReview].reviewMap[msg.sender] = _review;\r\n            customerMap[msg.sender].reviewMap[addressToReview] = _review;\r\n        }\r\n    }\r\n\r\n    function DeleteReview(\r\n        address reviewAddress\r\n    ) public CheckActionToYourself(reviewAddress) {\r\n        companyMap[reviewAddress].reviewMap[msg.sender].state = ReviewState\r\n            .DELETED;\r\n        customerMap[msg.sender].reviewMap[reviewAddress].state = ReviewState\r\n            .DELETED;\r\n    }\r\n\r\n    function StateToString(\r\n        ReviewState state\r\n    ) private pure returns (string memory) {\r\n        if (state == ReviewState.ACTIVE) return \"ACTIVE\";\r\n        if (state == ReviewState.MODIFIED) return \"MODIFIED\";\r\n        if (state == ReviewState.DELETED) return \"DELETED\";\r\n        return \"UNKNOWN\";\r\n    }\r\n\r\n    //------------------ GETTER REVIEW STUFF ------------------------------------------------------------------------------------\r\n\r\n    function GetCompanyReview(\r\n        uint start,\r\n        uint end,\r\n        address companyAddress\r\n    ) public view returns (string[] memory, uint8[] memory, string[] memory) {\r\n        uint totalLength = companyMap[companyAddress].allCustomerAddress.length;\r\n        require(totalLength > 0, \"This company have not received any reviews\");\r\n        totalLength--;\r\n        require(\r\n            start <= totalLength,\r\n            \"Start must be less than the length of the array\"\r\n        );\r\n        require(start <= end, \"Start number must be less than end\");\r\n        require(\r\n            end - start <= MAX_REVIEW_PER_CALL,\r\n            string.concat(\r\n                \"You can get max \",\r\n                Strings.toString(MAX_REVIEW_PER_CALL),\r\n                \" reviews per call\"\r\n            )\r\n        );\r\n\r\n        if (end > totalLength) {\r\n            end = totalLength;\r\n        }\r\n\r\n        uint length = end - start + 1;\r\n        string[] memory reviews = new string[](length);\r\n        uint8[] memory stars = new uint8[](length);\r\n        string[] memory state = new string[](length);\r\n\r\n        uint index = 0;\r\n        for (\r\n            uint i = totalLength - start + 1;\r\n            i >= totalLength - end + 1;\r\n            i--\r\n        ) {\r\n            Company storage company = companyMap[companyAddress];\r\n            reviews[index] = company\r\n                .reviewMap[company.allCustomerAddress[i - 1]]\r\n                .text;\r\n            stars[index] = company\r\n                .reviewMap[company.allCustomerAddress[i - 1]]\r\n                .stars;\r\n            state[index] = StateToString(\r\n                company.reviewMap[company.allCustomerAddress[i - 1]].state\r\n            );\r\n            index++;\r\n        }\r\n\r\n        return (reviews, stars, state);\r\n    }\r\n\r\n    function GetSpecificReview(\r\n        address addressReviewed\r\n    ) public view returns (string memory, uint8, string memory) {\r\n        uint8 stars = companyMap[addressReviewed].reviewMap[msg.sender].stars;\r\n        require(\r\n            stars != 0,\r\n            \"You have not released any reviews to this address\"\r\n        );\r\n        string memory text = companyMap[addressReviewed]\r\n            .reviewMap[msg.sender]\r\n            .text;\r\n        string memory state = StateToString(\r\n            companyMap[addressReviewed].reviewMap[msg.sender].state\r\n        );\r\n        return (text, stars, state);\r\n    }\r\n\r\n    //This return N review of the user with [start, end] included, start start from 0\r\n    function GetMyReview(\r\n        uint start,\r\n        uint end\r\n    )\r\n        public\r\n        view\r\n        returns (\r\n            string[] memory,\r\n            uint8[] memory,\r\n            string[] memory,\r\n            address[] memory\r\n        )\r\n    {\r\n        uint totalLength = customerMap[msg.sender].allCompanyAddress.length;\r\n        require(totalLength > 0, \"You have not released any reviews\");\r\n        totalLength--;\r\n        require(\r\n            start <= totalLength,\r\n            \"Start must be less than the length of the array\"\r\n        );\r\n\r\n        require(start <= end, \"Start number must be less than end\");\r\n        require(\r\n            end - start <= MAX_REVIEW_PER_CALL,\r\n            string.concat(\r\n                \"You can get max \",\r\n                Strings.toString(MAX_REVIEW_PER_CALL),\r\n                \" reviews per call\"\r\n            )\r\n        );\r\n\r\n        if (end > totalLength) {\r\n            end = totalLength;\r\n        }\r\n\r\n        uint length = end - start + 1;\r\n        string[] memory reviews = new string[](length);\r\n        uint8[] memory stars = new uint8[](length);\r\n        string[] memory state = new string[](length);\r\n        address[] memory addresses = new address[](length);\r\n\r\n        uint index = 0;\r\n        for (\r\n            uint i = totalLength - start + 1;\r\n            i >= totalLength - end + 1;\r\n            i--\r\n        ) {\r\n            Customer storage customer = customerMap[msg.sender];\r\n            reviews[index] = customer\r\n                .reviewMap[customer.allCompanyAddress[i - 1]]\r\n                .text;\r\n            stars[index] = customer\r\n                .reviewMap[customer.allCompanyAddress[i - 1]]\r\n                .stars;\r\n            state[index] = StateToString(\r\n                customer.reviewMap[customer.allCompanyAddress[i - 1]].state\r\n            );\r\n            addresses[index] = customer.allCompanyAddress[i - 1];\r\n            index++;\r\n        }\r\n        return (reviews, stars, state, addresses);\r\n    }\r\n\r\n    function GetAverageStars(\r\n        address addressReviewed\r\n    ) public view returns (uint[] memory) {\r\n        uint length = companyMap[addressReviewed].allCustomerAddress.length;\r\n        require(\r\n            length != 0,\r\n            \"This company has not received any reviews, cannot calculate average stars\"\r\n        );\r\n\r\n        uint[] memory stars = new uint[](length);\r\n        for (uint i = 0; i < length; i++) {\r\n            stars[i] = companyMap[addressReviewed]\r\n                .reviewMap[companyMap[addressReviewed].allCustomerAddress[i]]\r\n                .stars;\r\n        }\r\n\r\n        return stars;\r\n    }\r\n}\r\n",
  "sourcePath": "C:\\Users\\Nicola\\Desktop\\Git-Repositories\\Trustify-webapp\\Trustify-backend\\Trustify\\contracts\\Trustify.sol",
  "compiler": {
    "name": "solc",
    "version": "0.8.19+commit.7dd6d404.Emscripten.clang"
  },
  "schemaVersion": "3.4.8",
  "updatedAt": "2023-04-18T13:57:44.660Z",
  "devdoc": {
    "kind": "dev",
    "methods": {},
    "version": 1
  },
  "userdoc": {
    "kind": "user",
    "methods": {},
    "version": 1
  }
}