{
  "contractName": "Trustify",
  "abi": [
    {
      "inputs": [
        {
          "internalType": "address",
          "name": "coinAddress",
          "type": "address"
        }
      ],
      "stateMutability": "nonpayable",
      "type": "constructor"
    },
    {
      "inputs": [
        {
          "internalType": "address",
          "name": "addressToDeposit",
          "type": "address"
        },
        {
          "internalType": "uint256",
          "name": "_amount",
          "type": "uint256"
        }
      ],
      "name": "DepositTokens",
      "outputs": [],
      "stateMutability": "nonpayable",
      "type": "function"
    },
    {
      "inputs": [
        {
          "internalType": "address",
          "name": "addressToReview",
          "type": "address"
        },
        {
          "internalType": "string",
          "name": "review",
          "type": "string"
        },
        {
          "internalType": "uint8",
          "name": "stars",
          "type": "uint8"
        }
      ],
      "name": "WriteAReview",
      "outputs": [],
      "stateMutability": "nonpayable",
      "type": "function"
    },
    {
      "inputs": [
        {
          "internalType": "uint256",
          "name": "start",
          "type": "uint256"
        },
        {
          "internalType": "uint256",
          "name": "end",
          "type": "uint256"
        },
        {
          "internalType": "address",
          "name": "companyAddress",
          "type": "address"
        }
      ],
      "name": "GetNCompanyReview",
      "outputs": [
        {
          "internalType": "string[]",
          "name": "",
          "type": "string[]"
        },
        {
          "internalType": "uint8[]",
          "name": "",
          "type": "uint8[]"
        }
      ],
      "stateMutability": "view",
      "type": "function",
      "constant": true
    },
    {
      "inputs": [
        {
          "internalType": "address",
          "name": "addressReviewed",
          "type": "address"
        }
      ],
      "name": "GetSpecificReview",
      "outputs": [
        {
          "internalType": "string",
          "name": "",
          "type": "string"
        },
        {
          "internalType": "uint8",
          "name": "",
          "type": "uint8"
        }
      ],
      "stateMutability": "view",
      "type": "function",
      "constant": true
    },
    {
      "inputs": [
        {
          "internalType": "uint256",
          "name": "start",
          "type": "uint256"
        },
        {
          "internalType": "uint256",
          "name": "end",
          "type": "uint256"
        }
      ],
      "name": "GetNMyReview",
      "outputs": [
        {
          "internalType": "string[]",
          "name": "",
          "type": "string[]"
        },
        {
          "internalType": "uint8[]",
          "name": "",
          "type": "uint8[]"
        },
        {
          "internalType": "address[]",
          "name": "",
          "type": "address[]"
        }
      ],
      "stateMutability": "view",
      "type": "function",
      "constant": true
    },
    {
      "inputs": [
        {
          "internalType": "address",
          "name": "addressReviewed",
          "type": "address"
        }
      ],
      "name": "GetAverageStars",
      "outputs": [
        {
          "internalType": "uint256[]",
          "name": "",
          "type": "uint256[]"
        }
      ],
      "stateMutability": "view",
      "type": "function",
      "constant": true
    }
  ],
  "bytecode": "0x60806040523480156200001157600080fd5b5060405162003267380380620032678339818101604052810190620000379190620000e8565b806000806101000a81548173ffffffffffffffffffffffffffffffffffffffff021916908373ffffffffffffffffffffffffffffffffffffffff160217905550506200011a565b600080fd5b600073ffffffffffffffffffffffffffffffffffffffff82169050919050565b6000620000b08262000083565b9050919050565b620000c281620000a3565b8114620000ce57600080fd5b50565b600081519050620000e281620000b7565b92915050565b6000602082840312156200010157620001006200007e565b5b60006200011184828501620000d1565b91505092915050565b61313d806200012a6000396000f3fe608060405234801561001057600080fd5b50600436106100625760003560e01c80632251c715146100675780634f1d5bce14610099578063932dd7b2146100ca578063bba27d91146100fb578063e3a6e26d14610117578063fd687f4f14610133575b600080fd5b610081600480360381019061007c9190611ca6565b610163565b60405161009093929190611ff3565b60405180910390f35b6100b360048036038101906100ae919061206b565b6106a0565b6040516100c19291906120be565b60405180910390f35b6100e460048036038101906100df91906120f5565b610afd565b6040516100f292919061217b565b60405180910390f35b6101156004803603810190610110919061230c565b610c6f565b005b610131600480360381019061012c919061237b565b61138c565b005b61014d600480360381019061014891906120f5565b6115c7565b60405161015a9190612479565b60405180910390f35b60608060606000600260003373ffffffffffffffffffffffffffffffffffffffff1673ffffffffffffffffffffffffffffffffffffffff1681526020019081526020016000206000018054905090506000859050600082116101fa576040517f08c379a00000000000000000000000000000000000000000000000000000000081526004016101f19061250d565b60405180910390fd5b81806102059061255c565b9250508187111561024b576040517f08c379a0000000000000000000000000000000000000000000000000000000008152600401610242906125f7565b60405180910390fd5b8587111561028e576040517f08c379a000000000000000000000000000000000000000000000000000000000815260040161028590612689565b60405180910390fd5b8181111561029a578190505b6000600188836102aa91906126a9565b6102b491906126dd565b905060008167ffffffffffffffff8111156102d2576102d16121b5565b5b60405190808252806020026020018201604052801561030557816020015b60608152602001906001900390816102f05790505b50905060008267ffffffffffffffff811115610324576103236121b5565b5b6040519080825280602002602001820160405280156103525781602001602082028036833780820191505090505b50905060008367ffffffffffffffff811115610371576103706121b5565b5b60405190808252806020026020018201604052801561039f5781602001602082028036833780820191505090505b50905060008b90505b858111610689576000600260003373ffffffffffffffffffffffffffffffffffffffff1673ffffffffffffffffffffffffffffffffffffffff168152602001908152602001600020905060008d8361040091906126a9565b905081600101600083600001858154811061041e5761041d612711565b5b9060005260206000200160009054906101000a900473ffffffffffffffffffffffffffffffffffffffff1673ffffffffffffffffffffffffffffffffffffffff1673ffffffffffffffffffffffffffffffffffffffff16815260200190815260200160002060000180546104919061276f565b80601f01602080910402602001604051908101604052809291908181526020018280546104bd9061276f565b801561050a5780601f106104df5761010080835404028352916020019161050a565b820191906000526020600020905b8154815290600101906020018083116104ed57829003601f168201915b505050505086828151811061052257610521612711565b5b602002602001018190525081600101600083600001858154811061054957610548612711565b5b9060005260206000200160009054906101000a900473ffffffffffffffffffffffffffffffffffffffff1673ffffffffffffffffffffffffffffffffffffffff1673ffffffffffffffffffffffffffffffffffffffff16815260200190815260200160002060010160009054906101000a900460ff168582815181106105d2576105d1612711565b5b602002602001019060ff16908160ff16815250508160000183815481106105fc576105fb612711565b5b9060005260206000200160009054906101000a900473ffffffffffffffffffffffffffffffffffffffff1684828151811061063a57610639612711565b5b602002602001019073ffffffffffffffffffffffffffffffffffffffff16908173ffffffffffffffffffffffffffffffffffffffff168152505050508080610681906127a0565b9150506103a8565b508282829850985098505050505050509250925092565b6060806000600160008573ffffffffffffffffffffffffffffffffffffffff1673ffffffffffffffffffffffffffffffffffffffff168152602001908152602001600020600001805490509050600085905060008211610735576040517f08c379a000000000000000000000000000000000000000000000000000000000815260040161072c9061285a565b60405180910390fd5b81806107409061255c565b92505081871115610786576040517f08c379a000000000000000000000000000000000000000000000000000000000815260040161077d906125f7565b60405180910390fd5b858711156107c9576040517f08c379a00000000000000000000000000000000000000000000000000000000081526004016107c090612689565b60405180910390fd5b818111156107d5578190505b6000600188836107e591906126a9565b6107ef91906126dd565b905060008167ffffffffffffffff81111561080d5761080c6121b5565b5b60405190808252806020026020018201604052801561084057816020015b606081526020019060019003908161082b5790505b50905060008267ffffffffffffffff81111561085f5761085e6121b5565b5b60405190808252806020026020018201604052801561088d5781602001602082028036833780820191505090505b50905060008a90505b848111610ae9576000600160008b73ffffffffffffffffffffffffffffffffffffffff1673ffffffffffffffffffffffffffffffffffffffff168152602001908152602001600020905060008c836108ee91906126a9565b905081600101600083600001858154811061090c5761090b612711565b5b9060005260206000200160009054906101000a900473ffffffffffffffffffffffffffffffffffffffff1673ffffffffffffffffffffffffffffffffffffffff1673ffffffffffffffffffffffffffffffffffffffff168152602001908152602001600020600001805461097f9061276f565b80601f01602080910402602001604051908101604052809291908181526020018280546109ab9061276f565b80156109f85780601f106109cd576101008083540402835291602001916109f8565b820191906000526020600020905b8154815290600101906020018083116109db57829003601f168201915b5050505050858281518110610a1057610a0f612711565b5b6020026020010181905250816001016000836000018581548110610a3757610a36612711565b5b9060005260206000200160009054906101000a900473ffffffffffffffffffffffffffffffffffffffff1673ffffffffffffffffffffffffffffffffffffffff1673ffffffffffffffffffffffffffffffffffffffff16815260200190815260200160002060010160009054906101000a900460ff16848281518110610ac057610abf612711565b5b602002602001019060ff16908160ff168152505050508080610ae1906127a0565b915050610896565b508181965096505050505050935093915050565b6060600080610b0b846117fc565b905060008160ff1603610b53576040517f08c379a0000000000000000000000000000000000000000000000000000000008152600401610b4a906128ec565b60405180910390fd5b6000600160008673ffffffffffffffffffffffffffffffffffffffff1673ffffffffffffffffffffffffffffffffffffffff16815260200190815260200160002060010160003373ffffffffffffffffffffffffffffffffffffffff1673ffffffffffffffffffffffffffffffffffffffff1681526020019081526020016000206000018054610be29061276f565b80601f0160208091040260200160405190810160405280929190818152602001828054610c0e9061276f565b8015610c5b5780601f10610c3057610100808354040283529160200191610c5b565b820191906000526020600020905b815481529060010190602001808311610c3e57829003601f168201915b505050505090508082935093505050915091565b610c7883611895565b610cb7576040517f08c379a0000000000000000000000000000000000000000000000000000000008152600401610cae9061297e565b60405180910390fd5b60008160ff16118015610cce575060058160ff1611155b610d0d576040517f08c379a0000000000000000000000000000000000000000000000000000000008152600401610d0490612a10565b60405180910390fd5b6000600160008573ffffffffffffffffffffffffffffffffffffffff1673ffffffffffffffffffffffffffffffffffffffff16815260200190815260200160002060010160003373ffffffffffffffffffffffffffffffffffffffff1673ffffffffffffffffffffffffffffffffffffffff168152602001908152602001600020604051806060016040529081600082018054610da99061276f565b80601f0160208091040260200160405190810160405280929190818152602001828054610dd59061276f565b8015610e225780601f10610df757610100808354040283529160200191610e22565b820191906000526020600020905b815481529060010190602001808311610e0557829003601f168201915b505050505081526020016001820160009054906101000a900460ff1660ff1660ff1681526020016001820160019054906101000a900460ff16151515158152505090506000816020015160ff16148015610e8157506000816000015151145b156111ab57600060405180606001604052808581526020018460ff16815260200160011515815250905080600160008773ffffffffffffffffffffffffffffffffffffffff1673ffffffffffffffffffffffffffffffffffffffff16815260200190815260200160002060010160003373ffffffffffffffffffffffffffffffffffffffff1673ffffffffffffffffffffffffffffffffffffffff1681526020019081526020016000206000820151816000019081610f409190612bdc565b5060208201518160010160006101000a81548160ff021916908360ff16021790555060408201518160010160016101000a81548160ff021916908315150217905550905050600160008673ffffffffffffffffffffffffffffffffffffffff1673ffffffffffffffffffffffffffffffffffffffff168152602001908152602001600020600001339080600181540180825580915050600190039060005260206000200160009091909190916101000a81548173ffffffffffffffffffffffffffffffffffffffff021916908373ffffffffffffffffffffffffffffffffffffffff16021790555080600260003373ffffffffffffffffffffffffffffffffffffffff1673ffffffffffffffffffffffffffffffffffffffff16815260200190815260200160002060010160008773ffffffffffffffffffffffffffffffffffffffff1673ffffffffffffffffffffffffffffffffffffffff16815260200190815260200160002060008201518160000190816110bd9190612bdc565b5060208201518160010160006101000a81548160ff021916908360ff16021790555060408201518160010160016101000a81548160ff021916908315150217905550905050600260003373ffffffffffffffffffffffffffffffffffffffff1673ffffffffffffffffffffffffffffffffffffffff168152602001908152602001600020600001859080600181540180825580915050600190039060005260206000200160009091909190916101000a81548173ffffffffffffffffffffffffffffffffffffffff021916908373ffffffffffffffffffffffffffffffffffffffff16021790555050611386565b600060405180606001604052808581526020018460ff16815260200160011515815250905080600160008773ffffffffffffffffffffffffffffffffffffffff1673ffffffffffffffffffffffffffffffffffffffff16815260200190815260200160002060010160003373ffffffffffffffffffffffffffffffffffffffff1673ffffffffffffffffffffffffffffffffffffffff16815260200190815260200160002060008201518160000190816112659190612bdc565b5060208201518160010160006101000a81548160ff021916908360ff16021790555060408201518160010160016101000a81548160ff02191690831515021790555090505080600260003373ffffffffffffffffffffffffffffffffffffffff1673ffffffffffffffffffffffffffffffffffffffff16815260200190815260200160002060010160008773ffffffffffffffffffffffffffffffffffffffff1673ffffffffffffffffffffffffffffffffffffffff168152602001908152602001600020600082015181600001908161133f9190612bdc565b5060208201518160010160006101000a81548160ff021916908360ff16021790555060408201518160010160016101000a81548160ff021916908315150217905550905050505b50505050565b808060008054906101000a900473ffffffffffffffffffffffffffffffffffffffff1673ffffffffffffffffffffffffffffffffffffffff1663dd62ed3e33306040518363ffffffff1660e01b81526004016113e9929190612cbd565b602060405180830381865afa158015611406573d6000803e3d6000fd5b505050506040513d601f19601f8201168201806040525081019061142a9190612cfb565b101561146b576040517f08c379a000000000000000000000000000000000000000000000000000000000815260040161146290612d74565b60405180910390fd5b6040518060600160405280604051806020016040528060008152508152602001600060ff16815260200160011515815250600160008573ffffffffffffffffffffffffffffffffffffffff1673ffffffffffffffffffffffffffffffffffffffff16815260200190815260200160002060010160003373ffffffffffffffffffffffffffffffffffffffff1673ffffffffffffffffffffffffffffffffffffffff16815260200190815260200160002060008201518160000190816115309190612bdc565b5060208201518160010160006101000a81548160ff021916908360ff16021790555060408201518160010160016101000a81548160ff0219169083151502179055509050506115c233848460008054906101000a900473ffffffffffffffffffffffffffffffffffffffff1673ffffffffffffffffffffffffffffffffffffffff1661193f909392919063ffffffff16565b505050565b60606000600160008473ffffffffffffffffffffffffffffffffffffffff1673ffffffffffffffffffffffffffffffffffffffff16815260200190815260200160002060000180549050905060008103611656576040517f08c379a000000000000000000000000000000000000000000000000000000000815260040161164d90612e2c565b60405180910390fd5b60008167ffffffffffffffff811115611672576116716121b5565b5b6040519080825280602002602001820160405280156116a05781602001602082028036833780820191505090505b50905060005b828110156117f157600160008673ffffffffffffffffffffffffffffffffffffffff1673ffffffffffffffffffffffffffffffffffffffff1681526020019081526020016000206001016000600160008873ffffffffffffffffffffffffffffffffffffffff1673ffffffffffffffffffffffffffffffffffffffff168152602001908152602001600020600001838154811061174657611745612711565b5b9060005260206000200160009054906101000a900473ffffffffffffffffffffffffffffffffffffffff1673ffffffffffffffffffffffffffffffffffffffff1673ffffffffffffffffffffffffffffffffffffffff16815260200190815260200160002060010160009054906101000a900460ff1660ff168282815181106117d2576117d1612711565b5b60200260200101818152505080806117e9906127a0565b9150506116a6565b508092505050919050565b6000600160008373ffffffffffffffffffffffffffffffffffffffff1673ffffffffffffffffffffffffffffffffffffffff16815260200190815260200160002060010160003373ffffffffffffffffffffffffffffffffffffffff1673ffffffffffffffffffffffffffffffffffffffff16815260200190815260200160002060010160009054906101000a900460ff169050919050565b6000600160008373ffffffffffffffffffffffffffffffffffffffff1673ffffffffffffffffffffffffffffffffffffffff16815260200190815260200160002060010160003373ffffffffffffffffffffffffffffffffffffffff1673ffffffffffffffffffffffffffffffffffffffff16815260200190815260200160002060010160019054906101000a900460ff1615611935576001905061193a565b600090505b919050565b6119c2846323b872dd60e01b85858560405160240161196093929190612e5b565b604051602081830303815290604052907bffffffffffffffffffffffffffffffffffffffffffffffffffffffff19166020820180517bffffffffffffffffffffffffffffffffffffffffffffffffffffffff83818316178352505050506119c8565b50505050565b6000611a2a826040518060400160405280602081526020017f5361666545524332303a206c6f772d6c6576656c2063616c6c206661696c65648152508573ffffffffffffffffffffffffffffffffffffffff16611a8f9092919063ffffffff16565b9050600081511115611a8a5780806020019051810190611a4a9190612eca565b611a89576040517f08c379a0000000000000000000000000000000000000000000000000000000008152600401611a8090612f69565b60405180910390fd5b5b505050565b6060611a9e8484600085611aa7565b90509392505050565b606082471015611aec576040517f08c379a0000000000000000000000000000000000000000000000000000000008152600401611ae390612ffb565b60405180910390fd5b6000808673ffffffffffffffffffffffffffffffffffffffff168587604051611b159190613062565b60006040518083038185875af1925050503d8060008114611b52576040519150601f19603f3d011682016040523d82523d6000602084013e611b57565b606091505b5091509150611b6887838387611b74565b92505050949350505050565b60608315611bd6576000835103611bce57611b8e85611be9565b611bcd576040517f08c379a0000000000000000000000000000000000000000000000000000000008152600401611bc4906130c5565b60405180910390fd5b5b829050611be1565b611be08383611c0c565b5b949350505050565b6000808273ffffffffffffffffffffffffffffffffffffffff163b119050919050565b600082511115611c1f5781518083602001fd5b806040517f08c379a0000000000000000000000000000000000000000000000000000000008152600401611c5391906130e5565b60405180910390fd5b6000604051905090565b600080fd5b600080fd5b6000819050919050565b611c8381611c70565b8114611c8e57600080fd5b50565b600081359050611ca081611c7a565b92915050565b60008060408385031215611cbd57611cbc611c66565b5b6000611ccb85828601611c91565b9250506020611cdc85828601611c91565b9150509250929050565b600081519050919050565b600082825260208201905092915050565b6000819050602082019050919050565b600081519050919050565b600082825260208201905092915050565b60005b83811015611d4c578082015181840152602081019050611d31565b60008484015250505050565b6000601f19601f8301169050919050565b6000611d7482611d12565b611d7e8185611d1d565b9350611d8e818560208601611d2e565b611d9781611d58565b840191505092915050565b6000611dae8383611d69565b905092915050565b6000602082019050919050565b6000611dce82611ce6565b611dd88185611cf1565b935083602082028501611dea85611d02565b8060005b85811015611e265784840389528151611e078582611da2565b9450611e1283611db6565b925060208a01995050600181019050611dee565b50829750879550505050505092915050565b600081519050919050565b600082825260208201905092915050565b6000819050602082019050919050565b600060ff82169050919050565b611e7a81611e64565b82525050565b6000611e8c8383611e71565b60208301905092915050565b6000602082019050919050565b6000611eb082611e38565b611eba8185611e43565b9350611ec583611e54565b8060005b83811015611ef6578151611edd8882611e80565b9750611ee883611e98565b925050600181019050611ec9565b5085935050505092915050565b600081519050919050565b600082825260208201905092915050565b6000819050602082019050919050565b600073ffffffffffffffffffffffffffffffffffffffff82169050919050565b6000611f5a82611f2f565b9050919050565b611f6a81611f4f565b82525050565b6000611f7c8383611f61565b60208301905092915050565b6000602082019050919050565b6000611fa082611f03565b611faa8185611f0e565b9350611fb583611f1f565b8060005b83811015611fe6578151611fcd8882611f70565b9750611fd883611f88565b925050600181019050611fb9565b5085935050505092915050565b6000606082019050818103600083015261200d8186611dc3565b905081810360208301526120218185611ea5565b905081810360408301526120358184611f95565b9050949350505050565b61204881611f4f565b811461205357600080fd5b50565b6000813590506120658161203f565b92915050565b60008060006060848603121561208457612083611c66565b5b600061209286828701611c91565b93505060206120a386828701611c91565b92505060406120b486828701612056565b9150509250925092565b600060408201905081810360008301526120d88185611dc3565b905081810360208301526120ec8184611ea5565b90509392505050565b60006020828403121561210b5761210a611c66565b5b600061211984828501612056565b91505092915050565b600082825260208201905092915050565b600061213e82611d12565b6121488185612122565b9350612158818560208601611d2e565b61216181611d58565b840191505092915050565b61217581611e64565b82525050565b600060408201905081810360008301526121958185612133565b90506121a4602083018461216c565b9392505050565b600080fd5b600080fd5b7f4e487b7100000000000000000000000000000000000000000000000000000000600052604160045260246000fd5b6121ed82611d58565b810181811067ffffffffffffffff8211171561220c5761220b6121b5565b5b80604052505050565b600061221f611c5c565b905061222b82826121e4565b919050565b600067ffffffffffffffff82111561224b5761224a6121b5565b5b61225482611d58565b9050602081019050919050565b82818337600083830152505050565b600061228361227e84612230565b612215565b90508281526020810184848401111561229f5761229e6121b0565b5b6122aa848285612261565b509392505050565b600082601f8301126122c7576122c66121ab565b5b81356122d7848260208601612270565b91505092915050565b6122e981611e64565b81146122f457600080fd5b50565b600081359050612306816122e0565b92915050565b60008060006060848603121561232557612324611c66565b5b600061233386828701612056565b935050602084013567ffffffffffffffff81111561235457612353611c6b565b5b612360868287016122b2565b9250506040612371868287016122f7565b9150509250925092565b6000806040838503121561239257612391611c66565b5b60006123a085828601612056565b92505060206123b185828601611c91565b9150509250929050565b600081519050919050565b600082825260208201905092915050565b6000819050602082019050919050565b6123f081611c70565b82525050565b600061240283836123e7565b60208301905092915050565b6000602082019050919050565b6000612426826123bb565b61243081856123c6565b935061243b836123d7565b8060005b8381101561246c57815161245388826123f6565b975061245e8361240e565b92505060018101905061243f565b5085935050505092915050565b60006020820190508181036000830152612493818461241b565b905092915050565b7f596f752068617665206e6f742072656c656173656420616e792072657669657760008201527f7300000000000000000000000000000000000000000000000000000000000000602082015250565b60006124f7602183612122565b91506125028261249b565b604082019050919050565b60006020820190508181036000830152612526816124ea565b9050919050565b7f4e487b7100000000000000000000000000000000000000000000000000000000600052601160045260246000fd5b600061256782611c70565b91506000820361257a5761257961252d565b5b600182039050919050565b7f5374617274206d757374206265206c657373207468616e20746865206c656e6760008201527f7468206f66207468652061727261790000000000000000000000000000000000602082015250565b60006125e1602f83612122565b91506125ec82612585565b604082019050919050565b60006020820190508181036000830152612610816125d4565b9050919050565b7f5374617274206e756d626572206d757374206265206c657373207468616e206560008201527f6e64000000000000000000000000000000000000000000000000000000000000602082015250565b6000612673602283612122565b915061267e82612617565b604082019050919050565b600060208201905081810360008301526126a281612666565b9050919050565b60006126b482611c70565b91506126bf83611c70565b92508282039050818111156126d7576126d661252d565b5b92915050565b60006126e882611c70565b91506126f383611c70565b925082820190508082111561270b5761270a61252d565b5b92915050565b7f4e487b7100000000000000000000000000000000000000000000000000000000600052603260045260246000fd5b7f4e487b7100000000000000000000000000000000000000000000000000000000600052602260045260246000fd5b6000600282049050600182168061278757607f821691505b60208210810361279a57612799612740565b5b50919050565b60006127ab82611c70565b91507fffffffffffffffffffffffffffffffffffffffffffffffffffffffffffffffff82036127dd576127dc61252d565b5b600182019050919050565b7f5468697320636f6d70616e792068617665206e6f74207265636569766564206160008201527f6e79207265766965777300000000000000000000000000000000000000000000602082015250565b6000612844602a83612122565b915061284f826127e8565b604082019050919050565b6000602082019050818103600083015261287381612837565b9050919050565b7f596f752068617665206e6f742072656c656173656420616e792072657669657760008201527f7320746f20746869732061646472657373000000000000000000000000000000602082015250565b60006128d6603183612122565b91506128e18261287a565b604082019050919050565b60006020820190508181036000830152612905816128c9565b9050919050565b7f596f7520646f6e7420686176652061207472616e736c616374696f6e2066726f60008201527f6d20796f7572206164647265737320746f207468697320616464726573730000602082015250565b6000612968603e83612122565b91506129738261290c565b604082019050919050565b600060208201905081810360008301526129978161295b565b9050919050565b7f4572726f722c207374617273206d75737420626520612076616c75652062657460008201527f7765656e203020616e6420350000000000000000000000000000000000000000602082015250565b60006129fa602c83612122565b9150612a058261299e565b604082019050919050565b60006020820190508181036000830152612a29816129ed565b9050919050565b60008190508160005260206000209050919050565b60006020601f8301049050919050565b600082821b905092915050565b600060088302612a927fffffffffffffffffffffffffffffffffffffffffffffffffffffffffffffffff82612a55565b612a9c8683612a55565b95508019841693508086168417925050509392505050565b6000819050919050565b6000612ad9612ad4612acf84611c70565b612ab4565b611c70565b9050919050565b6000819050919050565b612af383612abe565b612b07612aff82612ae0565b848454612a62565b825550505050565b600090565b612b1c612b0f565b612b27818484612aea565b505050565b5b81811015612b4b57612b40600082612b14565b600181019050612b2d565b5050565b601f821115612b9057612b6181612a30565b612b6a84612a45565b81016020851015612b79578190505b612b8d612b8585612a45565b830182612b2c565b50505b505050565b600082821c905092915050565b6000612bb360001984600802612b95565b1980831691505092915050565b6000612bcc8383612ba2565b9150826002028217905092915050565b612be582611d12565b67ffffffffffffffff811115612bfe57612bfd6121b5565b5b612c08825461276f565b612c13828285612b4f565b600060209050601f831160018114612c465760008415612c34578287015190505b612c3e8582612bc0565b865550612ca6565b601f198416612c5486612a30565b60005b82811015612c7c57848901518255600182019150602085019450602081019050612c57565b86831015612c995784890151612c95601f891682612ba2565b8355505b6001600288020188555050505b505050505050565b612cb781611f4f565b82525050565b6000604082019050612cd26000830185612cae565b612cdf6020830184612cae565b9392505050565b600081519050612cf581611c7a565b92915050565b600060208284031215612d1157612d10611c66565b5b6000612d1f84828501612ce6565b91505092915050565b7f4572726f72207769746820746f6b656e20616c6c6f77616e6365000000000000600082015250565b6000612d5e601a83612122565b9150612d6982612d28565b602082019050919050565b60006020820190508181036000830152612d8d81612d51565b9050919050565b7f5468697320636f6d70616e7920686173206e6f7420726563656976656420616e60008201527f7920726576696577732c2063616e6e6f742063616c63756c617465206176657260208201527f6167652073746172730000000000000000000000000000000000000000000000604082015250565b6000612e16604983612122565b9150612e2182612d94565b606082019050919050565b60006020820190508181036000830152612e4581612e09565b9050919050565b612e5581611c70565b82525050565b6000606082019050612e706000830186612cae565b612e7d6020830185612cae565b612e8a6040830184612e4c565b949350505050565b60008115159050919050565b612ea781612e92565b8114612eb257600080fd5b50565b600081519050612ec481612e9e565b92915050565b600060208284031215612ee057612edf611c66565b5b6000612eee84828501612eb5565b91505092915050565b7f5361666545524332303a204552433230206f7065726174696f6e20646964206e60008201527f6f74207375636365656400000000000000000000000000000000000000000000602082015250565b6000612f53602a83612122565b9150612f5e82612ef7565b604082019050919050565b60006020820190508181036000830152612f8281612f46565b9050919050565b7f416464726573733a20696e73756666696369656e742062616c616e636520666f60008201527f722063616c6c0000000000000000000000000000000000000000000000000000602082015250565b6000612fe5602683612122565b9150612ff082612f89565b604082019050919050565b6000602082019050818103600083015261301481612fd8565b9050919050565b600081519050919050565b600081905092915050565b600061303c8261301b565b6130468185613026565b9350613056818560208601611d2e565b80840191505092915050565b600061306e8284613031565b915081905092915050565b7f416464726573733a2063616c6c20746f206e6f6e2d636f6e7472616374000000600082015250565b60006130af601d83612122565b91506130ba82613079565b602082019050919050565b600060208201905081810360008301526130de816130a2565b9050919050565b600060208201905081810360008301526130ff8184612133565b90509291505056fea2646970667358221220c6b9abf4a3be6f102562a23f7907c3fd7164838f26a62160e5013a020cebf53664736f6c63430008130033",
  "immutableReferences": {},
  "source": "// SPDX-License-Identifier: UNLICENSED\r\npragma solidity ^0.8.17;\r\n\r\nimport \"@openzeppelin/contracts/token/ERC20/IERC20.sol\";\r\nimport \"@openzeppelin/contracts/token/ERC20/utils/SafeERC20.sol\";\r\nimport \"@openzeppelin/contracts/utils/Strings.sol\";\r\n\r\n/*\r\nPiccole note: se l'address non esiste in blockchain non si pu fare il mapping e il contratto resistuisce un errore.\r\nle map sono automaticamente inizializzate a valori di default, quindi non si pu fare il check se esiste un mapping o no, ma bisogna fare come  stato fatto sotto.\r\n*/\r\n\r\ncontract Trustify {\r\n    using SafeERC20 for IERC20;\r\n\r\n    IERC20 private token;\r\n\r\n    struct Review {\r\n        string review;\r\n        uint8 stars;\r\n        bool havePayed;\r\n    }\r\n\r\n    // MAPPING STUFF\r\n    struct Company {\r\n        address[] allCustomerAddress; //tiene tutti gli address degli utenti che hanno fatto una review a questa azienda (serve per la funzione che restituisce tutte le review di un'azienda)\r\n        mapping(address => Review) reviewMap; //map con address di ogni utente e la review che ha fatto a questa azienda\r\n    }\r\n\r\n    struct Customer {\r\n        address[] allCompanyAddress; //tiene tutti gli address delle aziende che hanno ricevuto una review da questo utente (serve per la funzione che restituisce tutte le review di un utente)\r\n        mapping(address => Review) reviewMap; //map con address di ogni azienda/e-shop e la review che ha fatto l'utente\r\n    }\r\n\r\n    mapping(address => Company) companyMap; //map con address di ogni azienda/e-shop\r\n    mapping(address => Customer) customerMap; //map con address di ogni utente\r\n\r\n    constructor(address coinAddress) {\r\n        token = IERC20(coinAddress);\r\n    }\r\n\r\n    //TRANSACTION STUFF\r\n    function CheckTransaction(\r\n        address companyWalletAddress\r\n    ) private view returns (bool) {\r\n        if (companyMap[companyWalletAddress].reviewMap[msg.sender].havePayed) {\r\n            return true;\r\n        } else {\r\n            return false;\r\n        }\r\n    }\r\n\r\n    modifier CheckAllowance(uint amount) {\r\n        require(\r\n            token.allowance(msg.sender, address(this)) >= amount,\r\n            \"Error with token allowance\"\r\n        );\r\n        _;\r\n    }\r\n\r\n    function DepositTokens(\r\n        address addressToDeposit,\r\n        uint _amount\r\n    ) public CheckAllowance(_amount) {\r\n        companyMap[addressToDeposit].reviewMap[msg.sender] = Review(\r\n            \"\",\r\n            0,\r\n            true\r\n        );\r\n        token.safeTransferFrom(msg.sender, addressToDeposit, _amount);\r\n    }\r\n\r\n    //REVIEW STUFF\r\n    /*\r\n        La funzione che scrive la review si accorge se l'utente ha gi scritto una review per quella \r\n        azienda (guarda se le stelle sono a 0, valore impossibile da mettere al di fuori dal contratto),\r\n        in tal caso sovrascrive la vecchia review con la nuova, altrimenti crea una nuova review.\r\n    */\r\n    function WriteAReview(\r\n        address addressToReview,\r\n        string memory review,\r\n        uint8 stars\r\n    ) public {\r\n        require(\r\n            CheckTransaction(addressToReview),\r\n            \"You dont have a translaction from your address to this address\"\r\n        );\r\n\r\n        require(\r\n            stars > 0 && stars <= 5,\r\n            \"Error, stars must be a value between 0 and 5\"\r\n        );\r\n\r\n        Review memory tmpReview = companyMap[addressToReview].reviewMap[\r\n            msg.sender\r\n        ];\r\n\r\n        if (tmpReview.stars == 0 && bytes(tmpReview.review).length == 0) {\r\n            Review memory _review = Review(review, stars, true);\r\n            companyMap[addressToReview].reviewMap[msg.sender] = _review;\r\n            companyMap[addressToReview].allCustomerAddress.push(msg.sender);\r\n            customerMap[msg.sender].reviewMap[addressToReview] = _review;\r\n            customerMap[msg.sender].allCompanyAddress.push(addressToReview);\r\n        } else {\r\n            Review memory _review = Review(review, stars, true);\r\n            companyMap[addressToReview].reviewMap[msg.sender] = _review;\r\n            customerMap[msg.sender].reviewMap[addressToReview] = _review;\r\n        }\r\n    }\r\n\r\n    function GetNCompanyReview(\r\n        uint start,\r\n        uint end,\r\n        address companyAddress\r\n    ) public view returns (string[] memory, uint8[] memory) {\r\n        uint totalLenght = companyMap[companyAddress].allCustomerAddress.length;\r\n        uint realEnd = end;\r\n        require(totalLenght > 0, \"This company have not received any reviews\");\r\n        totalLenght--;\r\n        require(\r\n            start <= totalLenght,\r\n            \"Start must be less than the length of the array\"\r\n        );\r\n        require(start <= end, \"Start number must be less than end\");\r\n\r\n        /*\r\n        require(\r\n            end <= totalLenght,\r\n            \"End must be less than the length of the array\"\r\n        );\r\n        */\r\n        if (realEnd > totalLenght) {\r\n            realEnd = totalLenght;\r\n        }\r\n\r\n        uint length = realEnd - start + 1;\r\n        string[] memory reviews = new string[](length);\r\n        uint8[] memory stars = new uint8[](length);\r\n\r\n        for (uint i = start; i <= realEnd; i++) {\r\n            Company storage company = companyMap[companyAddress];\r\n            uint index = i - start;\r\n            reviews[index] = company\r\n                .reviewMap[company.allCustomerAddress[i]]\r\n                .review;\r\n            stars[index] = company\r\n                .reviewMap[company.allCustomerAddress[i]]\r\n                .stars;\r\n        }\r\n\r\n        return (reviews, stars);\r\n    }\r\n\r\n    function GetSpecificReview(\r\n        address addressReviewed\r\n    ) public view returns (string memory, uint8) {\r\n        uint8 stars = GetSpecificStars(addressReviewed);\r\n        require(\r\n            stars != 0,\r\n            \"You have not released any reviews to this address\"\r\n        );\r\n        string memory review = companyMap[addressReviewed]\r\n            .reviewMap[msg.sender]\r\n            .review;\r\n        return (review, stars);\r\n    }\r\n\r\n    //This return N review of the user with [start, end] included, start start from 0\r\n    function GetNMyReview(\r\n        uint start,\r\n        uint end\r\n    ) public view returns (string[] memory, uint8[] memory, address[] memory) {\r\n        uint totalLenght = customerMap[msg.sender].allCompanyAddress.length;\r\n        uint realEnd = end;\r\n        require(totalLenght > 0, \"You have not released any reviews\");\r\n        totalLenght--;\r\n        require(\r\n            start <= totalLenght,\r\n            \"Start must be less than the length of the array\"\r\n        );\r\n        require(start <= end, \"Start number must be less than end\");\r\n\r\n        /*\r\n        require(\r\n            end <= totalLenght,\r\n            \"End must be less than the length of the array\"\r\n        );\r\n        */\r\n        if (realEnd > totalLenght) {\r\n            realEnd = totalLenght;\r\n        }\r\n\r\n        uint length = realEnd - start + 1;\r\n        string[] memory reviews = new string[](length);\r\n        uint8[] memory stars = new uint8[](length);\r\n        address[] memory addresses = new address[](length);\r\n\r\n        for (uint i = start; i <= realEnd; i++) {\r\n            Customer storage customer = customerMap[msg.sender];\r\n            uint index = i - start;\r\n            reviews[index] = customer\r\n                .reviewMap[customer.allCompanyAddress[i]]\r\n                .review;\r\n            stars[index] = customer\r\n                .reviewMap[customer.allCompanyAddress[i]]\r\n                .stars;\r\n            addresses[index] = customer.allCompanyAddress[i];\r\n        }\r\n\r\n        return (reviews, stars, addresses);\r\n    }\r\n\r\n    function GetSpecificStars(\r\n        address addressReviewed\r\n    ) private view returns (uint8) {\r\n        return companyMap[addressReviewed].reviewMap[msg.sender].stars;\r\n    }\r\n\r\n    function GetAverageStars(\r\n        address addressReviewed\r\n    ) public view returns (uint[] memory) {\r\n        uint length = companyMap[addressReviewed].allCustomerAddress.length;\r\n        require(\r\n            length != 0,\r\n            \"This company has not received any reviews, cannot calculate average stars\"\r\n        );\r\n\r\n        uint[] memory stars = new uint[](length);\r\n        for (uint i = 0; i < length; i++) {\r\n            stars[i] = companyMap[addressReviewed]\r\n                .reviewMap[companyMap[addressReviewed].allCustomerAddress[i]]\r\n                .stars;\r\n        }\r\n\r\n        return stars;\r\n    }\r\n}\r\n",
  "sourcePath": "C:\\Users\\Pietro\\Desktop\\git2\\Trustify-webapp\\Trustify-backend\\Trustify\\contracts\\Trustify.sol",
  "compiler": {
    "name": "solc",
    "version": "0.8.19+commit.7dd6d404.Emscripten.clang"
  },
  "schemaVersion": "3.4.13",
  "updatedAt": "2023-04-03T16:26:27.681Z",
  "networkType": "ethereum",
  "devdoc": {
    "kind": "dev",
    "methods": {},
    "version": 1
  },
  "userdoc": {
    "kind": "user",
    "methods": {},
    "version": 1
  }
}