{
  "contractName": "Trustify",
  "abi": [
    {
      "inputs": [
        {
          "internalType": "address",
          "name": "coinAddress",
          "type": "address"
        }
      ],
      "stateMutability": "nonpayable",
      "type": "constructor"
    },
    {
      "inputs": [
        {
          "internalType": "address",
          "name": "addressToDeposit",
          "type": "address"
        },
        {
          "internalType": "uint256",
          "name": "amount",
          "type": "uint256"
        }
      ],
      "name": "depositTokens",
      "outputs": [],
      "stateMutability": "nonpayable",
      "type": "function"
    },
    {
      "inputs": [
        {
          "internalType": "address",
          "name": "addressToReview",
          "type": "address"
        },
        {
          "internalType": "string",
          "name": "text",
          "type": "string"
        },
        {
          "internalType": "uint8",
          "name": "stars",
          "type": "uint8"
        }
      ],
      "name": "writeAReview",
      "outputs": [],
      "stateMutability": "nonpayable",
      "type": "function"
    },
    {
      "inputs": [
        {
          "internalType": "address",
          "name": "reviewAddress",
          "type": "address"
        }
      ],
      "name": "deleteReview",
      "outputs": [],
      "stateMutability": "nonpayable",
      "type": "function"
    },
    {
      "inputs": [
        {
          "internalType": "uint256",
          "name": "start",
          "type": "uint256"
        },
        {
          "internalType": "uint256",
          "name": "end",
          "type": "uint256"
        },
        {
          "internalType": "address",
          "name": "companyAddress",
          "type": "address"
        }
      ],
      "name": "getCompanyReview",
      "outputs": [
        {
          "internalType": "string[]",
          "name": "",
          "type": "string[]"
        },
        {
          "internalType": "uint8[]",
          "name": "",
          "type": "uint8[]"
        },
        {
          "internalType": "string[]",
          "name": "",
          "type": "string[]"
        }
      ],
      "stateMutability": "view",
      "type": "function"
    },
    {
      "inputs": [
        {
          "internalType": "address",
          "name": "addressReviewed",
          "type": "address"
        }
      ],
      "name": "getSpecificReview",
      "outputs": [
        {
          "internalType": "string",
          "name": "",
          "type": "string"
        },
        {
          "internalType": "uint8",
          "name": "",
          "type": "uint8"
        },
        {
          "internalType": "string",
          "name": "",
          "type": "string"
        }
      ],
      "stateMutability": "view",
      "type": "function"
    },
    {
      "inputs": [
        {
          "internalType": "uint256",
          "name": "start",
          "type": "uint256"
        },
        {
          "internalType": "uint256",
          "name": "end",
          "type": "uint256"
        }
      ],
      "name": "getMyReview",
      "outputs": [
        {
          "internalType": "string[]",
          "name": "",
          "type": "string[]"
        },
        {
          "internalType": "uint8[]",
          "name": "",
          "type": "uint8[]"
        },
        {
          "internalType": "string[]",
          "name": "",
          "type": "string[]"
        },
        {
          "internalType": "address[]",
          "name": "",
          "type": "address[]"
        }
      ],
      "stateMutability": "view",
      "type": "function"
    },
    {
      "inputs": [
        {
          "internalType": "address",
          "name": "addressReviewed",
          "type": "address"
        }
      ],
      "name": "getAverageStars",
      "outputs": [
        {
          "internalType": "uint256[]",
          "name": "",
          "type": "uint256[]"
        }
      ],
      "stateMutability": "view",
      "type": "function"
    }
  ],
  "bytecode": "0x60806040523480156200001157600080fd5b5060405162004117380380620041178339818101604052810190620000379190620000e8565b806000806101000a81548173ffffffffffffffffffffffffffffffffffffffff021916908373ffffffffffffffffffffffffffffffffffffffff160217905550506200011a565b600080fd5b600073ffffffffffffffffffffffffffffffffffffffff82169050919050565b6000620000b08262000083565b9050919050565b620000c281620000a3565b8114620000ce57600080fd5b50565b600081519050620000e281620000b7565b92915050565b6000602082840312156200010157620001006200007e565b5b60006200011184828501620000d1565b91505092915050565b613fed806200012a6000396000f3fe608060405234801561001057600080fd5b506004361061007d5760003560e01c8063803b43791161005b578063803b4379146100ea57806395b5d3d61461011c578063a5718aaf1461014f578063e60d82a2146101815761007d565b806348e31c3d1461008257806366168bd71461009e578063662a0d4a146100ba575b600080fd5b61009c60048036038101906100979190612b11565b61019d565b005b6100b860048036038101906100b39190612bb6565b610ae0565b005b6100d460048036038101906100cf9190612bf6565b610e6d565b6040516100e19190612ce1565b60405180910390f35b61010460048036038101906100ff9190612bf6565b6110a2565b60405161011393929190612d91565b60405180910390f35b61013660048036038101906101319190612dd6565b611340565b604051610146949392919061309e565b60405180910390f35b610169600480360381019061016491906130ff565b611a66565b60405161017893929190613152565b60405180910390f35b61019b60048036038101906101969190612bf6565b6120a0565b005b823373ffffffffffffffffffffffffffffffffffffffff168173ffffffffffffffffffffffffffffffffffffffff160361020c576040517f08c379a000000000000000000000000000000000000000000000000000000000815260040161020390613210565b60405180910390fd5b83600160008273ffffffffffffffffffffffffffffffffffffffff1673ffffffffffffffffffffffffffffffffffffffff16815260200190815260200160002060010160003373ffffffffffffffffffffffffffffffffffffffff1673ffffffffffffffffffffffffffffffffffffffff16815260200190815260200160002060010160019054906101000a900460ff166102dc576040517f08c379a00000000000000000000000000000000000000000000000000000000081526004016102d3906132a2565b60405180910390fd5b60008360ff161180156102f3575060058360ff1611155b610332576040517f08c379a000000000000000000000000000000000000000000000000000000000815260040161032990613334565b60405180910390fd5b6000600160008773ffffffffffffffffffffffffffffffffffffffff1673ffffffffffffffffffffffffffffffffffffffff16815260200190815260200160002060010160003373ffffffffffffffffffffffffffffffffffffffff1673ffffffffffffffffffffffffffffffffffffffff1681526020019081526020016000206040518060800160405290816000820180546103ce90613383565b80601f01602080910402602001604051908101604052809291908181526020018280546103fa90613383565b80156104475780601f1061041c57610100808354040283529160200191610447565b820191906000526020600020905b81548152906001019060200180831161042a57829003601f168201915b505050505081526020016001820160009054906101000a900460ff1660ff1660ff1681526020016001820160019054906101000a900460ff161515151581526020016001820160029054906101000a900460ff1660028111156104ad576104ac6133b4565b5b60028111156104bf576104be6133b4565b5b8152505090506000816020015160ff161480156104e157506000816000015151145b1561088457600060405180608001604052808781526020018660ff1681526020016001151581526020016000600281111561051f5761051e6133b4565b5b815250905080600160008973ffffffffffffffffffffffffffffffffffffffff1673ffffffffffffffffffffffffffffffffffffffff16815260200190815260200160002060010160003373ffffffffffffffffffffffffffffffffffffffff1673ffffffffffffffffffffffffffffffffffffffff16815260200190815260200160002060008201518160000190816105b9919061358f565b5060208201518160010160006101000a81548160ff021916908360ff16021790555060408201518160010160016101000a81548160ff02191690831515021790555060608201518160010160026101000a81548160ff02191690836002811115610626576106256133b4565b5b0217905550905050600160008873ffffffffffffffffffffffffffffffffffffffff1673ffffffffffffffffffffffffffffffffffffffff168152602001908152602001600020600001339080600181540180825580915050600190039060005260206000200160009091909190916101000a81548173ffffffffffffffffffffffffffffffffffffffff021916908373ffffffffffffffffffffffffffffffffffffffff16021790555080600260003373ffffffffffffffffffffffffffffffffffffffff1673ffffffffffffffffffffffffffffffffffffffff16815260200190815260200160002060010160008973ffffffffffffffffffffffffffffffffffffffff1673ffffffffffffffffffffffffffffffffffffffff1681526020019081526020016000206000820151816000019081610766919061358f565b5060208201518160010160006101000a81548160ff021916908360ff16021790555060408201518160010160016101000a81548160ff02191690831515021790555060608201518160010160026101000a81548160ff021916908360028111156107d3576107d26133b4565b5b0217905550905050600260003373ffffffffffffffffffffffffffffffffffffffff1673ffffffffffffffffffffffffffffffffffffffff168152602001908152602001600020600001879080600181540180825580915050600190039060005260206000200160009091909190916101000a81548173ffffffffffffffffffffffffffffffffffffffff021916908373ffffffffffffffffffffffffffffffffffffffff16021790555050610ad8565b600060405180608001604052808781526020018660ff168152602001600115158152602001600160028111156108bd576108bc6133b4565b5b815250905080600160008973ffffffffffffffffffffffffffffffffffffffff1673ffffffffffffffffffffffffffffffffffffffff16815260200190815260200160002060010160003373ffffffffffffffffffffffffffffffffffffffff1673ffffffffffffffffffffffffffffffffffffffff1681526020019081526020016000206000820151816000019081610957919061358f565b5060208201518160010160006101000a81548160ff021916908360ff16021790555060408201518160010160016101000a81548160ff02191690831515021790555060608201518160010160026101000a81548160ff021916908360028111156109c4576109c36133b4565b5b021790555090505080600260003373ffffffffffffffffffffffffffffffffffffffff1673ffffffffffffffffffffffffffffffffffffffff16815260200190815260200160002060010160008973ffffffffffffffffffffffffffffffffffffffff1673ffffffffffffffffffffffffffffffffffffffff1681526020019081526020016000206000820151816000019081610a61919061358f565b5060208201518160010160006101000a81548160ff021916908360ff16021790555060408201518160010160016101000a81548160ff02191690831515021790555060608201518160010160026101000a81548160ff02191690836002811115610ace57610acd6133b4565b5b0217905550905050505b505050505050565b813373ffffffffffffffffffffffffffffffffffffffff168173ffffffffffffffffffffffffffffffffffffffff1603610b4f576040517f08c379a0000000000000000000000000000000000000000000000000000000008152600401610b4690613210565b60405180910390fd5b8160008054906101000a900473ffffffffffffffffffffffffffffffffffffffff1673ffffffffffffffffffffffffffffffffffffffff1663dd62ed3e33306040518363ffffffff1660e01b8152600401610bab929190613670565b602060405180830381865afa158015610bc8573d6000803e3d6000fd5b505050506040513d601f19601f82011682018060405250810190610bec91906136ae565b1015610c2d576040517f08c379a0000000000000000000000000000000000000000000000000000000008152600401610c2490613727565b60405180910390fd5b6000600160008573ffffffffffffffffffffffffffffffffffffffff1673ffffffffffffffffffffffffffffffffffffffff16815260200190815260200160002060010160003373ffffffffffffffffffffffffffffffffffffffff1673ffffffffffffffffffffffffffffffffffffffff16815260200190815260200160002060010160009054906101000a900460ff1660ff1603610e1b576040518060800160405280604051806020016040528060008152508152602001600060ff16815260200160011515815260200160006002811115610d0e57610d0d6133b4565b5b815250600160008573ffffffffffffffffffffffffffffffffffffffff1673ffffffffffffffffffffffffffffffffffffffff16815260200190815260200160002060010160003373ffffffffffffffffffffffffffffffffffffffff1673ffffffffffffffffffffffffffffffffffffffff1681526020019081526020016000206000820151816000019081610da5919061358f565b5060208201518160010160006101000a81548160ff021916908360ff16021790555060408201518160010160016101000a81548160ff02191690831515021790555060608201518160010160026101000a81548160ff02191690836002811115610e1257610e116133b4565b5b02179055509050505b610e6833848460008054906101000a900473ffffffffffffffffffffffffffffffffffffffff1673ffffffffffffffffffffffffffffffffffffffff16612268909392919063ffffffff16565b505050565b60606000600160008473ffffffffffffffffffffffffffffffffffffffff1673ffffffffffffffffffffffffffffffffffffffff16815260200190815260200160002060000180549050905060008103610efc576040517f08c379a0000000000000000000000000000000000000000000000000000000008152600401610ef3906137df565b60405180910390fd5b60008167ffffffffffffffff811115610f1857610f176129ad565b5b604051908082528060200260200182016040528015610f465781602001602082028036833780820191505090505b50905060005b8281101561109757600160008673ffffffffffffffffffffffffffffffffffffffff1673ffffffffffffffffffffffffffffffffffffffff1681526020019081526020016000206001016000600160008873ffffffffffffffffffffffffffffffffffffffff1673ffffffffffffffffffffffffffffffffffffffff1681526020019081526020016000206000018381548110610fec57610feb6137ff565b5b9060005260206000200160009054906101000a900473ffffffffffffffffffffffffffffffffffffffff1673ffffffffffffffffffffffffffffffffffffffff1673ffffffffffffffffffffffffffffffffffffffff16815260200190815260200160002060010160009054906101000a900460ff1660ff16828281518110611078576110776137ff565b5b602002602001018181525050808061108f9061385d565b915050610f4c565b508092505050919050565b6060600060606000600160008673ffffffffffffffffffffffffffffffffffffffff1673ffffffffffffffffffffffffffffffffffffffff16815260200190815260200160002060010160003373ffffffffffffffffffffffffffffffffffffffff1673ffffffffffffffffffffffffffffffffffffffff16815260200190815260200160002060010160009054906101000a900460ff16905060008160ff1603611182576040517f08c379a000000000000000000000000000000000000000000000000000000000815260040161117990613917565b60405180910390fd5b6000600160008773ffffffffffffffffffffffffffffffffffffffff1673ffffffffffffffffffffffffffffffffffffffff16815260200190815260200160002060010160003373ffffffffffffffffffffffffffffffffffffffff1673ffffffffffffffffffffffffffffffffffffffff168152602001908152602001600020600001805461121190613383565b80601f016020809104026020016040519081016040528092919081815260200182805461123d90613383565b801561128a5780601f1061125f5761010080835404028352916020019161128a565b820191906000526020600020905b81548152906001019060200180831161126d57829003601f168201915b50505050509050600061132b600160008973ffffffffffffffffffffffffffffffffffffffff1673ffffffffffffffffffffffffffffffffffffffff16815260200190815260200160002060010160003373ffffffffffffffffffffffffffffffffffffffff1673ffffffffffffffffffffffffffffffffffffffff16815260200190815260200160002060010160029054906101000a900460ff166122f1565b90508183829550955095505050509193909250565b6060806060806000600260003373ffffffffffffffffffffffffffffffffffffffff1673ffffffffffffffffffffffffffffffffffffffff168152602001908152602001600020600001805490509050600081116113d3576040517f08c379a00000000000000000000000000000000000000000000000000000000081526004016113ca906139a9565b60405180910390fd5b80806113de906139c9565b91505080871115611424576040517f08c379a000000000000000000000000000000000000000000000000000000000815260040161141b90613a64565b60405180910390fd5b85871115611467576040517f08c379a000000000000000000000000000000000000000000000000000000000815260040161145e90613af6565b60405180910390fd5b601960ff1687876114789190613b16565b1115611487601960ff1661246b565b6040516020016114979190613bd2565b604051602081830303815290604052906114e7576040517f08c379a00000000000000000000000000000000000000000000000000000000081526004016114de9190613c07565b60405180910390fd5b50808611156114f4578095505b6000600188886115049190613b16565b61150e9190613c29565b905060008167ffffffffffffffff81111561152c5761152b6129ad565b5b60405190808252806020026020018201604052801561155f57816020015b606081526020019060019003908161154a5790505b50905060008267ffffffffffffffff81111561157e5761157d6129ad565b5b6040519080825280602002602001820160405280156115ac5781602001602082028036833780820191505090505b50905060008367ffffffffffffffff8111156115cb576115ca6129ad565b5b6040519080825280602002602001820160405280156115fe57816020015b60608152602001906001900390816115e95790505b50905060008467ffffffffffffffff81111561161d5761161c6129ad565b5b60405190808252806020026020018201604052801561164b5781602001602082028036833780820191505090505b50905060008060018e8961165f9190613b16565b6116699190613c29565b90505b60018d8961167a9190613b16565b6116849190613c29565b8110611a49576000600260003373ffffffffffffffffffffffffffffffffffffffff1673ffffffffffffffffffffffffffffffffffffffff1681526020019081526020016000209050806001016000826000016001856116e49190613b16565b815481106116f5576116f46137ff565b5b9060005260206000200160009054906101000a900473ffffffffffffffffffffffffffffffffffffffff1673ffffffffffffffffffffffffffffffffffffffff1673ffffffffffffffffffffffffffffffffffffffff168152602001908152602001600020600001805461176890613383565b80601f016020809104026020016040519081016040528092919081815260200182805461179490613383565b80156117e15780601f106117b6576101008083540402835291602001916117e1565b820191906000526020600020905b8154815290600101906020018083116117c457829003601f168201915b50505050508784815181106117f9576117f86137ff565b5b60200260200101819052508060010160008260000160018561181b9190613b16565b8154811061182c5761182b6137ff565b5b9060005260206000200160009054906101000a900473ffffffffffffffffffffffffffffffffffffffff1673ffffffffffffffffffffffffffffffffffffffff1673ffffffffffffffffffffffffffffffffffffffff16815260200190815260200160002060010160009054906101000a900460ff168684815181106118b5576118b46137ff565b5b602002602001019060ff16908160ff168152505061196f816001016000836000016001866118e39190613b16565b815481106118f4576118f36137ff565b5b9060005260206000200160009054906101000a900473ffffffffffffffffffffffffffffffffffffffff1673ffffffffffffffffffffffffffffffffffffffff1673ffffffffffffffffffffffffffffffffffffffff16815260200190815260200160002060010160029054906101000a900460ff166122f1565b858481518110611982576119816137ff565b5b60200260200101819052508060000160018361199e9190613b16565b815481106119af576119ae6137ff565b5b9060005260206000200160009054906101000a900473ffffffffffffffffffffffffffffffffffffffff168484815181106119ed576119ec6137ff565b5b602002602001019073ffffffffffffffffffffffffffffffffffffffff16908173ffffffffffffffffffffffffffffffffffffffff16815250508280611a329061385d565b935050508080611a41906139c9565b91505061166c565b50848484849a509a509a509a505050505050505092959194509250565b60608060606000600160008673ffffffffffffffffffffffffffffffffffffffff1673ffffffffffffffffffffffffffffffffffffffff16815260200190815260200160002060000180549050905060008111611af8576040517f08c379a0000000000000000000000000000000000000000000000000000000008152600401611aef90613ccf565b60405180910390fd5b8080611b03906139c9565b91505080871115611b49576040517f08c379a0000000000000000000000000000000000000000000000000000000008152600401611b4090613a64565b60405180910390fd5b85871115611b8c576040517f08c379a0000000000000000000000000000000000000000000000000000000008152600401611b8390613af6565b60405180910390fd5b601960ff168787611b9d9190613b16565b1115611bac601960ff1661246b565b604051602001611bbc9190613bd2565b60405160208183030381529060405290611c0c576040517f08c379a0000000000000000000000000000000000000000000000000000000008152600401611c039190613c07565b60405180910390fd5b5080861115611c19578095505b600060018888611c299190613b16565b611c339190613c29565b905060008167ffffffffffffffff811115611c5157611c506129ad565b5b604051908082528060200260200182016040528015611c8457816020015b6060815260200190600190039081611c6f5790505b50905060008267ffffffffffffffff811115611ca357611ca26129ad565b5b604051908082528060200260200182016040528015611cd15781602001602082028036833780820191505090505b50905060008367ffffffffffffffff811115611cf057611cef6129ad565b5b604051908082528060200260200182016040528015611d2357816020015b6060815260200190600190039081611d0e5790505b50905060008060018d88611d379190613b16565b611d419190613c29565b90505b60018c88611d529190613b16565b611d5c9190613c29565b8110612087576000600160008d73ffffffffffffffffffffffffffffffffffffffff1673ffffffffffffffffffffffffffffffffffffffff168152602001908152602001600020905080600101600082600001600185611dbc9190613b16565b81548110611dcd57611dcc6137ff565b5b9060005260206000200160009054906101000a900473ffffffffffffffffffffffffffffffffffffffff1673ffffffffffffffffffffffffffffffffffffffff1673ffffffffffffffffffffffffffffffffffffffff1681526020019081526020016000206000018054611e4090613383565b80601f0160208091040260200160405190810160405280929190818152602001828054611e6c90613383565b8015611eb95780601f10611e8e57610100808354040283529160200191611eb9565b820191906000526020600020905b815481529060010190602001808311611e9c57829003601f168201915b5050505050868481518110611ed157611ed06137ff565b5b602002602001018190525080600101600082600001600185611ef39190613b16565b81548110611f0457611f036137ff565b5b9060005260206000200160009054906101000a900473ffffffffffffffffffffffffffffffffffffffff1673ffffffffffffffffffffffffffffffffffffffff1673ffffffffffffffffffffffffffffffffffffffff16815260200190815260200160002060010160009054906101000a900460ff16858481518110611f8d57611f8c6137ff565b5b602002602001019060ff16908160ff168152505061204781600101600083600001600186611fbb9190613b16565b81548110611fcc57611fcb6137ff565b5b9060005260206000200160009054906101000a900473ffffffffffffffffffffffffffffffffffffffff1673ffffffffffffffffffffffffffffffffffffffff1673ffffffffffffffffffffffffffffffffffffffff16815260200190815260200160002060010160029054906101000a900460ff166122f1565b84848151811061205a576120596137ff565b5b602002602001018190525082806120709061385d565b93505050808061207f906139c9565b915050611d44565b5083838398509850985050505050505093509350939050565b803373ffffffffffffffffffffffffffffffffffffffff168173ffffffffffffffffffffffffffffffffffffffff160361210f576040517f08c379a000000000000000000000000000000000000000000000000000000000815260040161210690613210565b60405180910390fd5b6002600160008473ffffffffffffffffffffffffffffffffffffffff1673ffffffffffffffffffffffffffffffffffffffff16815260200190815260200160002060010160003373ffffffffffffffffffffffffffffffffffffffff1673ffffffffffffffffffffffffffffffffffffffff16815260200190815260200160002060010160026101000a81548160ff021916908360028111156121b5576121b46133b4565b5b021790555060028060003373ffffffffffffffffffffffffffffffffffffffff1673ffffffffffffffffffffffffffffffffffffffff16815260200190815260200160002060010160008473ffffffffffffffffffffffffffffffffffffffff1673ffffffffffffffffffffffffffffffffffffffff16815260200190815260200160002060010160026101000a81548160ff0219169083600281111561225f5761225e6133b4565b5b02179055505050565b6122eb846323b872dd60e01b85858560405160240161228993929190613cfe565b604051602081830303815290604052907bffffffffffffffffffffffffffffffffffffffffffffffffffffffff19166020820180517bffffffffffffffffffffffffffffffffffffffffffffffffffffffff8381831617835250505050612539565b50505050565b606060006002811115612307576123066133b4565b5b82600281111561231a576123196133b4565b5b0361235c576040518060400160405280600681526020017f41435449564500000000000000000000000000000000000000000000000000008152509050612466565b600160028111156123705761236f6133b4565b5b826002811115612383576123826133b4565b5b036123c5576040518060400160405280600881526020017f4d4f4449464945440000000000000000000000000000000000000000000000008152509050612466565b6002808111156123d8576123d76133b4565b5b8260028111156123eb576123ea6133b4565b5b0361242d576040518060400160405280600781526020017f44454c45544544000000000000000000000000000000000000000000000000008152509050612466565b6040518060400160405280600781526020017f554e4b4e4f574e0000000000000000000000000000000000000000000000000081525090505b919050565b60606000600161247a84612600565b01905060008167ffffffffffffffff811115612499576124986129ad565b5b6040519080825280601f01601f1916602001820160405280156124cb5781602001600182028036833780820191505090505b509050600082602001820190505b60011561252e578080600190039150507f3031323334353637383961626364656600000000000000000000000000000000600a86061a8153600a858161252257612521613d35565b5b049450600085036124d9575b819350505050919050565b600061259b826040518060400160405280602081526020017f5361666545524332303a206c6f772d6c6576656c2063616c6c206661696c65648152508573ffffffffffffffffffffffffffffffffffffffff166127539092919063ffffffff16565b90506000815111156125fb57808060200190518101906125bb9190613d9c565b6125fa576040517f08c379a00000000000000000000000000000000000000000000000000000000081526004016125f190613e3b565b60405180910390fd5b5b505050565b600080600090507a184f03e93ff9f4daa797ed6e38ed64bf6a1f010000000000000000831061265e577a184f03e93ff9f4daa797ed6e38ed64bf6a1f010000000000000000838161265457612653613d35565b5b0492506040810190505b6d04ee2d6d415b85acef8100000000831061269b576d04ee2d6d415b85acef8100000000838161269157612690613d35565b5b0492506020810190505b662386f26fc1000083106126ca57662386f26fc1000083816126c0576126bf613d35565b5b0492506010810190505b6305f5e10083106126f3576305f5e10083816126e9576126e8613d35565b5b0492506008810190505b612710831061271857612710838161270e5761270d613d35565b5b0492506004810190505b6064831061273b576064838161273157612730613d35565b5b0492506002810190505b600a831061274a576001810190505b80915050919050565b6060612762848460008561276b565b90509392505050565b6060824710156127b0576040517f08c379a00000000000000000000000000000000000000000000000000000000081526004016127a790613ecd565b60405180910390fd5b6000808673ffffffffffffffffffffffffffffffffffffffff1685876040516127d99190613f34565b60006040518083038185875af1925050503d8060008114612816576040519150601f19603f3d011682016040523d82523d6000602084013e61281b565b606091505b509150915061282c87838387612838565b92505050949350505050565b6060831561289a57600083510361289257612852856128ad565b612891576040517f08c379a000000000000000000000000000000000000000000000000000000000815260040161288890613f97565b60405180910390fd5b5b8290506128a5565b6128a483836128d0565b5b949350505050565b6000808273ffffffffffffffffffffffffffffffffffffffff163b119050919050565b6000825111156128e35781518083602001fd5b806040517f08c379a00000000000000000000000000000000000000000000000000000000081526004016129179190613c07565b60405180910390fd5b6000604051905090565b600080fd5b600080fd5b600073ffffffffffffffffffffffffffffffffffffffff82169050919050565b600061295f82612934565b9050919050565b61296f81612954565b811461297a57600080fd5b50565b60008135905061298c81612966565b92915050565b600080fd5b600080fd5b6000601f19601f8301169050919050565b7f4e487b7100000000000000000000000000000000000000000000000000000000600052604160045260246000fd5b6129e58261299c565b810181811067ffffffffffffffff82111715612a0457612a036129ad565b5b80604052505050565b6000612a17612920565b9050612a2382826129dc565b919050565b600067ffffffffffffffff821115612a4357612a426129ad565b5b612a4c8261299c565b9050602081019050919050565b82818337600083830152505050565b6000612a7b612a7684612a28565b612a0d565b905082815260208101848484011115612a9757612a96612997565b5b612aa2848285612a59565b509392505050565b600082601f830112612abf57612abe612992565b5b8135612acf848260208601612a68565b91505092915050565b600060ff82169050919050565b612aee81612ad8565b8114612af957600080fd5b50565b600081359050612b0b81612ae5565b92915050565b600080600060608486031215612b2a57612b2961292a565b5b6000612b388682870161297d565b935050602084013567ffffffffffffffff811115612b5957612b5861292f565b5b612b6586828701612aaa565b9250506040612b7686828701612afc565b9150509250925092565b6000819050919050565b612b9381612b80565b8114612b9e57600080fd5b50565b600081359050612bb081612b8a565b92915050565b60008060408385031215612bcd57612bcc61292a565b5b6000612bdb8582860161297d565b9250506020612bec85828601612ba1565b9150509250929050565b600060208284031215612c0c57612c0b61292a565b5b6000612c1a8482850161297d565b91505092915050565b600081519050919050565b600082825260208201905092915050565b6000819050602082019050919050565b612c5881612b80565b82525050565b6000612c6a8383612c4f565b60208301905092915050565b6000602082019050919050565b6000612c8e82612c23565b612c988185612c2e565b9350612ca383612c3f565b8060005b83811015612cd4578151612cbb8882612c5e565b9750612cc683612c76565b925050600181019050612ca7565b5085935050505092915050565b60006020820190508181036000830152612cfb8184612c83565b905092915050565b600081519050919050565b600082825260208201905092915050565b60005b83811015612d3d578082015181840152602081019050612d22565b60008484015250505050565b6000612d5482612d03565b612d5e8185612d0e565b9350612d6e818560208601612d1f565b612d778161299c565b840191505092915050565b612d8b81612ad8565b82525050565b60006060820190508181036000830152612dab8186612d49565b9050612dba6020830185612d82565b8181036040830152612dcc8184612d49565b9050949350505050565b60008060408385031215612ded57612dec61292a565b5b6000612dfb85828601612ba1565b9250506020612e0c85828601612ba1565b9150509250929050565b600081519050919050565b600082825260208201905092915050565b6000819050602082019050919050565b600082825260208201905092915050565b6000612e5e82612d03565b612e688185612e42565b9350612e78818560208601612d1f565b612e818161299c565b840191505092915050565b6000612e988383612e53565b905092915050565b6000602082019050919050565b6000612eb882612e16565b612ec28185612e21565b935083602082028501612ed485612e32565b8060005b85811015612f105784840389528151612ef18582612e8c565b9450612efc83612ea0565b925060208a01995050600181019050612ed8565b50829750879550505050505092915050565b600081519050919050565b600082825260208201905092915050565b6000819050602082019050919050565b612f5781612ad8565b82525050565b6000612f698383612f4e565b60208301905092915050565b6000602082019050919050565b6000612f8d82612f22565b612f978185612f2d565b9350612fa283612f3e565b8060005b83811015612fd3578151612fba8882612f5d565b9750612fc583612f75565b925050600181019050612fa6565b5085935050505092915050565b600081519050919050565b600082825260208201905092915050565b6000819050602082019050919050565b61301581612954565b82525050565b6000613027838361300c565b60208301905092915050565b6000602082019050919050565b600061304b82612fe0565b6130558185612feb565b935061306083612ffc565b8060005b83811015613091578151613078888261301b565b975061308383613033565b925050600181019050613064565b5085935050505092915050565b600060808201905081810360008301526130b88187612ead565b905081810360208301526130cc8186612f82565b905081810360408301526130e08185612ead565b905081810360608301526130f48184613040565b905095945050505050565b6000806000606084860312156131185761311761292a565b5b600061312686828701612ba1565b935050602061313786828701612ba1565b92505060406131488682870161297d565b9150509250925092565b6000606082019050818103600083015261316c8186612ead565b905081810360208301526131808185612f82565b905081810360408301526131948184612ead565b9050949350505050565b7f596f752063616e277420646f207468697320616374696f6e20746f20796f757260008201527f73656c662050616c210000000000000000000000000000000000000000000000602082015250565b60006131fa602983612d0e565b91506132058261319e565b604082019050919050565b60006020820190508181036000830152613229816131ed565b9050919050565b7f596f7520646f6e7420686176652061207472616e736c616374696f6e2066726f60008201527f6d20796f7572206164647265737320746f207468697320616464726573730000602082015250565b600061328c603e83612d0e565b915061329782613230565b604082019050919050565b600060208201905081810360008301526132bb8161327f565b9050919050565b7f4572726f722c207374617273206d75737420626520612076616c75652062657460008201527f7765656e203020616e6420350000000000000000000000000000000000000000602082015250565b600061331e602c83612d0e565b9150613329826132c2565b604082019050919050565b6000602082019050818103600083015261334d81613311565b9050919050565b7f4e487b7100000000000000000000000000000000000000000000000000000000600052602260045260246000fd5b6000600282049050600182168061339b57607f821691505b6020821081036133ae576133ad613354565b5b50919050565b7f4e487b7100000000000000000000000000000000000000000000000000000000600052602160045260246000fd5b60008190508160005260206000209050919050565b60006020601f8301049050919050565b600082821b905092915050565b6000600883026134457fffffffffffffffffffffffffffffffffffffffffffffffffffffffffffffffff82613408565b61344f8683613408565b95508019841693508086168417925050509392505050565b6000819050919050565b600061348c61348761348284612b80565b613467565b612b80565b9050919050565b6000819050919050565b6134a683613471565b6134ba6134b282613493565b848454613415565b825550505050565b600090565b6134cf6134c2565b6134da81848461349d565b505050565b5b818110156134fe576134f36000826134c7565b6001810190506134e0565b5050565b601f82111561354357613514816133e3565b61351d846133f8565b8101602085101561352c578190505b613540613538856133f8565b8301826134df565b50505b505050565b600082821c905092915050565b600061356660001984600802613548565b1980831691505092915050565b600061357f8383613555565b9150826002028217905092915050565b61359882612d03565b67ffffffffffffffff8111156135b1576135b06129ad565b5b6135bb8254613383565b6135c6828285613502565b600060209050601f8311600181146135f957600084156135e7578287015190505b6135f18582613573565b865550613659565b601f198416613607866133e3565b60005b8281101561362f5784890151825560018201915060208501945060208101905061360a565b8683101561364c5784890151613648601f891682613555565b8355505b6001600288020188555050505b505050505050565b61366a81612954565b82525050565b60006040820190506136856000830185613661565b6136926020830184613661565b9392505050565b6000815190506136a881612b8a565b92915050565b6000602082840312156136c4576136c361292a565b5b60006136d284828501613699565b91505092915050565b7f4572726f72207769746820746f6b656e20616c6c6f77616e6365000000000000600082015250565b6000613711601a83612d0e565b915061371c826136db565b602082019050919050565b6000602082019050818103600083015261374081613704565b9050919050565b7f5468697320636f6d70616e7920686173206e6f7420726563656976656420616e60008201527f7920726576696577732c2063616e6e6f742063616c63756c617465206176657260208201527f6167652073746172730000000000000000000000000000000000000000000000604082015250565b60006137c9604983612d0e565b91506137d482613747565b606082019050919050565b600060208201905081810360008301526137f8816137bc565b9050919050565b7f4e487b7100000000000000000000000000000000000000000000000000000000600052603260045260246000fd5b7f4e487b7100000000000000000000000000000000000000000000000000000000600052601160045260246000fd5b600061386882612b80565b91507fffffffffffffffffffffffffffffffffffffffffffffffffffffffffffffffff820361389a5761389961382e565b5b600182019050919050565b7f596f752068617665206e6f742072656c656173656420616e792072657669657760008201527f7320746f20746869732061646472657373000000000000000000000000000000602082015250565b6000613901603183612d0e565b915061390c826138a5565b604082019050919050565b60006020820190508181036000830152613930816138f4565b9050919050565b7f596f752068617665206e6f742072656c656173656420616e792072657669657760008201527f7300000000000000000000000000000000000000000000000000000000000000602082015250565b6000613993602183612d0e565b915061399e82613937565b604082019050919050565b600060208201905081810360008301526139c281613986565b9050919050565b60006139d482612b80565b9150600082036139e7576139e661382e565b5b600182039050919050565b7f5374617274206d757374206265206c657373207468616e20746865206c656e6760008201527f7468206f66207468652061727261790000000000000000000000000000000000602082015250565b6000613a4e602f83612d0e565b9150613a59826139f2565b604082019050919050565b60006020820190508181036000830152613a7d81613a41565b9050919050565b7f5374617274206e756d626572206d757374206265206c657373207468616e206560008201527f6e64000000000000000000000000000000000000000000000000000000000000602082015250565b6000613ae0602283612d0e565b9150613aeb82613a84565b604082019050919050565b60006020820190508181036000830152613b0f81613ad3565b9050919050565b6000613b2182612b80565b9150613b2c83612b80565b9250828203905081811115613b4457613b4361382e565b5b92915050565b7f596f752063616e20676574206d61782000000000000000000000000000000000815250565b600081905092915050565b6000613b8682612d03565b613b908185613b70565b9350613ba0818560208601612d1f565b80840191505092915050565b7f2072657669657773207065722063616c6c000000000000000000000000000000815250565b6000613bdd82613b4a565b601082019150613bed8284613b7b565b9150613bf882613bac565b60118201915081905092915050565b60006020820190508181036000830152613c218184612d49565b905092915050565b6000613c3482612b80565b9150613c3f83612b80565b9250828201905080821115613c5757613c5661382e565b5b92915050565b7f5468697320636f6d70616e792068617665206e6f74207265636569766564206160008201527f6e79207265766965777300000000000000000000000000000000000000000000602082015250565b6000613cb9602a83612d0e565b9150613cc482613c5d565b604082019050919050565b60006020820190508181036000830152613ce881613cac565b9050919050565b613cf881612b80565b82525050565b6000606082019050613d136000830186613661565b613d206020830185613661565b613d2d6040830184613cef565b949350505050565b7f4e487b7100000000000000000000000000000000000000000000000000000000600052601260045260246000fd5b60008115159050919050565b613d7981613d64565b8114613d8457600080fd5b50565b600081519050613d9681613d70565b92915050565b600060208284031215613db257613db161292a565b5b6000613dc084828501613d87565b91505092915050565b7f5361666545524332303a204552433230206f7065726174696f6e20646964206e60008201527f6f74207375636365656400000000000000000000000000000000000000000000602082015250565b6000613e25602a83612d0e565b9150613e3082613dc9565b604082019050919050565b60006020820190508181036000830152613e5481613e18565b9050919050565b7f416464726573733a20696e73756666696369656e742062616c616e636520666f60008201527f722063616c6c0000000000000000000000000000000000000000000000000000602082015250565b6000613eb7602683612d0e565b9150613ec282613e5b565b604082019050919050565b60006020820190508181036000830152613ee681613eaa565b9050919050565b600081519050919050565b600081905092915050565b6000613f0e82613eed565b613f188185613ef8565b9350613f28818560208601612d1f565b80840191505092915050565b6000613f408284613f03565b915081905092915050565b7f416464726573733a2063616c6c20746f206e6f6e2d636f6e7472616374000000600082015250565b6000613f81601d83612d0e565b9150613f8c82613f4b565b602082019050919050565b60006020820190508181036000830152613fb081613f74565b905091905056fea26469706673582212203cd0a27e4674eab146494f6a6678ce3b7b78af1b59075524bd36730866820a4d64736f6c63430008130033",
  "immutableReferences": {},
  "source": "// SPDX-License-Identifier: UNLICENSED\r\npragma solidity ^0.8.17;\r\n\r\nimport \"@openzeppelin/contracts/token/ERC20/IERC20.sol\";\r\nimport \"@openzeppelin/contracts/token/ERC20/utils/SafeERC20.sol\";\r\nimport \"@openzeppelin/contracts/utils/Strings.sol\";\r\n\r\n/*\r\nPiccole note: se l'address non esiste in blockchain non si pu fare il mapping e il contratto resistuisce un errore.\r\nle map sono automaticamente inizializzate a valori di default, quindi non si pu fare il check se esiste un mapping o no.\r\n*/\r\n\r\ncontract Trustify {\r\n    using SafeERC20 for IERC20;\r\n\r\n    uint8 private constant MAX_REVIEW_PER_CALL = 25;\r\n\r\n    IERC20 private token;\r\n\r\n    enum ReviewState {\r\n        ACTIVE,\r\n        MODIFIED,\r\n        DELETED\r\n    }\r\n\r\n    struct Review {\r\n        string text;\r\n        uint8 stars;\r\n        bool havePayed;\r\n        ReviewState state;\r\n    }\r\n\r\n    // MAPPING STUFF\r\n    struct Company {\r\n        address[] allCustomerAddress; //tiene tutti gli address degli utenti che hanno fatto una review a questa azienda (serve per la funzione che restituisce tutte le review di un'azienda)\r\n        mapping(address => Review) reviewMap; //map con address di ogni utente e la review che ha fatto a questa azienda\r\n    }\r\n\r\n    struct Customer {\r\n        address[] allCompanyAddress; //tiene tutti gli address delle aziende che hanno ricevuto una review da questo utente (serve per la funzione che restituisce tutte le review di un utente)\r\n        mapping(address => Review) reviewMap; //map con address di ogni azienda/e-shop e la review che ha fatto l'utente\r\n    }\r\n\r\n    mapping(address => Company) companyMap; //map con address di ogni azienda/e-shop\r\n    mapping(address => Customer) customerMap; //map con address di ogni utente\r\n\r\n    constructor(address coinAddress) {\r\n        token = IERC20(coinAddress);\r\n    }\r\n\r\n    //------------------ TRANSACTION STUFF -------------------------------------------------------------------------------\r\n\r\n    modifier checkTransaction(address companyWalletAddress) {\r\n        require(\r\n            companyMap[companyWalletAddress].reviewMap[msg.sender].havePayed,\r\n            \"You dont have a translaction from your address to this address\"\r\n        );\r\n        _;\r\n    }\r\n\r\n    modifier checkActionToYourself(address yourAddress) {\r\n        require(\r\n            yourAddress != msg.sender,\r\n            \"You can't do this action to yourself Pal!\"\r\n        );\r\n        _;\r\n    }\r\n\r\n    function depositTokens(\r\n        address addressToDeposit,\r\n        uint amount\r\n    ) public checkActionToYourself(addressToDeposit) {\r\n        require(\r\n            token.allowance(msg.sender, address(this)) >= amount,\r\n            \"Error with token allowance\"\r\n        );\r\n\r\n        if (companyMap[addressToDeposit].reviewMap[msg.sender].stars == 0) {\r\n            companyMap[addressToDeposit].reviewMap[msg.sender] = Review(\r\n                \"\",\r\n                0,\r\n                true,\r\n                ReviewState.ACTIVE\r\n            );\r\n        }\r\n        token.safeTransferFrom(msg.sender, addressToDeposit, amount);\r\n    }\r\n\r\n    //------------------ REVIEW STUFF ------------------------------------------------------------------------------------\r\n\r\n    /*\r\n        La funzione che scrive la review si accorge se l'utente ha gi scritto una review per quella \r\n        azienda (guarda se le stelle sono a 0, valore impossibile da mettere al di fuori dal contratto),\r\n        in tal caso sovrascrive la vecchia review con la nuova, altrimenti crea una nuova review.\r\n    */\r\n    function writeAReview(\r\n        address addressToReview,\r\n        string memory text,\r\n        uint8 stars\r\n    )\r\n        public\r\n        checkActionToYourself(addressToReview)\r\n        checkTransaction(addressToReview)\r\n    {\r\n        require(\r\n            stars > 0 && stars <= 5,\r\n            \"Error, stars must be a value between 0 and 5\"\r\n        );\r\n\r\n        Review memory tmpReview = companyMap[addressToReview].reviewMap[\r\n            msg.sender\r\n        ];\r\n\r\n        if (tmpReview.stars == 0 && bytes(tmpReview.text).length == 0) {\r\n            Review memory _review = Review(\r\n                text,\r\n                stars,\r\n                true,\r\n                ReviewState.ACTIVE\r\n            );\r\n            companyMap[addressToReview].reviewMap[msg.sender] = _review;\r\n            companyMap[addressToReview].allCustomerAddress.push(msg.sender);\r\n            customerMap[msg.sender].reviewMap[addressToReview] = _review;\r\n            customerMap[msg.sender].allCompanyAddress.push(addressToReview);\r\n        } else {\r\n            Review memory _review = Review(\r\n                text,\r\n                stars,\r\n                true,\r\n                ReviewState.MODIFIED\r\n            );\r\n            companyMap[addressToReview].reviewMap[msg.sender] = _review;\r\n            customerMap[msg.sender].reviewMap[addressToReview] = _review;\r\n        }\r\n    }\r\n\r\n    function deleteReview(\r\n        address reviewAddress\r\n    ) public checkActionToYourself(reviewAddress) {\r\n        companyMap[reviewAddress].reviewMap[msg.sender].state = ReviewState\r\n            .DELETED;\r\n        customerMap[msg.sender].reviewMap[reviewAddress].state = ReviewState\r\n            .DELETED;\r\n    }\r\n\r\n    function stateToString(\r\n        ReviewState state\r\n    ) private pure returns (string memory) {\r\n        if (state == ReviewState.ACTIVE) return \"ACTIVE\";\r\n        if (state == ReviewState.MODIFIED) return \"MODIFIED\";\r\n        if (state == ReviewState.DELETED) return \"DELETED\";\r\n        return \"UNKNOWN\";\r\n    }\r\n\r\n    //------------------ GETTER REVIEW STUFF ------------------------------------------------------------------------------------\r\n\r\n    function getCompanyReview(\r\n        uint start,\r\n        uint end,\r\n        address companyAddress\r\n    ) public view returns (string[] memory, uint8[] memory, string[] memory) {\r\n        uint totalLength = companyMap[companyAddress].allCustomerAddress.length;\r\n        require(totalLength > 0, \"This company have not received any reviews\");\r\n        totalLength--;\r\n        require(\r\n            start <= totalLength,\r\n            \"Start must be less than the length of the array\"\r\n        );\r\n        require(start <= end, \"Start number must be less than end\");\r\n        require(\r\n            end - start <= MAX_REVIEW_PER_CALL,\r\n            string.concat(\r\n                \"You can get max \",\r\n                Strings.toString(MAX_REVIEW_PER_CALL),\r\n                \" reviews per call\"\r\n            )\r\n        );\r\n\r\n        if (end > totalLength) {\r\n            end = totalLength;\r\n        }\r\n\r\n        uint length = end - start + 1;\r\n        string[] memory reviews = new string[](length);\r\n        uint8[] memory stars = new uint8[](length);\r\n        string[] memory state = new string[](length);\r\n\r\n        uint index = 0;\r\n        for (\r\n            uint i = totalLength - start + 1;\r\n            i >= totalLength - end + 1;\r\n            i--\r\n        ) {\r\n            Company storage company = companyMap[companyAddress];\r\n            reviews[index] = company\r\n                .reviewMap[company.allCustomerAddress[i - 1]]\r\n                .text;\r\n            stars[index] = company\r\n                .reviewMap[company.allCustomerAddress[i - 1]]\r\n                .stars;\r\n            state[index] = stateToString(\r\n                company.reviewMap[company.allCustomerAddress[i - 1]].state\r\n            );\r\n            index++;\r\n        }\r\n\r\n        return (reviews, stars, state);\r\n    }\r\n\r\n    function getSpecificReview(\r\n        address addressReviewed\r\n    ) public view returns (string memory, uint8, string memory) {\r\n        uint8 stars = companyMap[addressReviewed].reviewMap[msg.sender].stars;\r\n        require(\r\n            stars != 0,\r\n            \"You have not released any reviews to this address\"\r\n        );\r\n        string memory text = companyMap[addressReviewed]\r\n            .reviewMap[msg.sender]\r\n            .text;\r\n        string memory state = stateToString(\r\n            companyMap[addressReviewed].reviewMap[msg.sender].state\r\n        );\r\n        return (text, stars, state);\r\n    }\r\n\r\n    //This return N review of the user with [start, end] included, start start from 0\r\n    function getMyReview(\r\n        uint start,\r\n        uint end\r\n    )\r\n        public\r\n        view\r\n        returns (\r\n            string[] memory,\r\n            uint8[] memory,\r\n            string[] memory,\r\n            address[] memory\r\n        )\r\n    {\r\n        uint totalLength = customerMap[msg.sender].allCompanyAddress.length;\r\n        require(totalLength > 0, \"You have not released any reviews\");\r\n        totalLength--;\r\n        require(\r\n            start <= totalLength,\r\n            \"Start must be less than the length of the array\"\r\n        );\r\n\r\n        require(start <= end, \"Start number must be less than end\");\r\n        require(\r\n            end - start <= MAX_REVIEW_PER_CALL,\r\n            string.concat(\r\n                \"You can get max \",\r\n                Strings.toString(MAX_REVIEW_PER_CALL),\r\n                \" reviews per call\"\r\n            )\r\n        );\r\n\r\n        if (end > totalLength) {\r\n            end = totalLength;\r\n        }\r\n\r\n        uint length = end - start + 1;\r\n        string[] memory reviews = new string[](length);\r\n        uint8[] memory stars = new uint8[](length);\r\n        string[] memory state = new string[](length);\r\n        address[] memory addresses = new address[](length);\r\n\r\n        uint index = 0;\r\n        for (\r\n            uint i = totalLength - start + 1;\r\n            i >= totalLength - end + 1;\r\n            i--\r\n        ) {\r\n            Customer storage customer = customerMap[msg.sender];\r\n            reviews[index] = customer\r\n                .reviewMap[customer.allCompanyAddress[i - 1]]\r\n                .text;\r\n            stars[index] = customer\r\n                .reviewMap[customer.allCompanyAddress[i - 1]]\r\n                .stars;\r\n            state[index] = stateToString(\r\n                customer.reviewMap[customer.allCompanyAddress[i - 1]].state\r\n            );\r\n            addresses[index] = customer.allCompanyAddress[i - 1];\r\n            index++;\r\n        }\r\n        return (reviews, stars, state, addresses);\r\n    }\r\n\r\n    function getAverageStars(\r\n        address addressReviewed\r\n    ) public view returns (uint[] memory) {\r\n        uint length = companyMap[addressReviewed].allCustomerAddress.length;\r\n        require(\r\n            length != 0,\r\n            \"This company has not received any reviews, cannot calculate average stars\"\r\n        );\r\n\r\n        uint[] memory stars = new uint[](length);\r\n        for (uint i = 0; i < length; i++) {\r\n            stars[i] = companyMap[addressReviewed]\r\n                .reviewMap[companyMap[addressReviewed].allCustomerAddress[i]]\r\n                .stars;\r\n        }\r\n\r\n        return stars;\r\n    }\r\n}\r\n",
  "sourcePath": "C:\\Users\\Nicola\\Desktop\\Git-Repositories\\Trustify-webapp\\Trustify-backend\\Trustify\\contracts\\Trustify.sol",
  "compiler": {
    "name": "solc",
    "version": "0.8.19+commit.7dd6d404.Emscripten.clang"
  },
  "schemaVersion": "3.4.8",
  "updatedAt": "2023-04-28T15:26:12.056Z",
  "devdoc": {
    "kind": "dev",
    "methods": {},
    "version": 1
  },
  "userdoc": {
    "kind": "user",
    "methods": {},
    "version": 1
  }
}